:100000000C942A000C9447000C9447000C94470071
:100010000C9447000C9447000C9447000C94470044
:100020000C9447000C9447000C9447000C94470034
:100030000C9447000C9447000C9447000C94470024
:100040000C94A5060C9447000C9447000C944700B0
:100050000C94470011241FBECFE5D8E0DEBFCDBF12
:1000600010E0A0E6B0E0EAECF6E402C005900D92E4
:10007000A039B107D9F710E0A0E9B0E001C01D92A6
:10008000A339B107E1F70E9413220C9463230C9467
:100090000000EF92FF920F931F937B018C0120E0F1
:1000A00030E040E05FE40E94490388238CF0C801FF
:1000B000B70120E030E040E05FE40E94C1010E940F
:1000C000A9039B01AC01205030404040504806C07D
:1000D000C801B7010E94A9039B01AC01B901CA0183
:1000E0001F910F91FF90EF900895A0E0B0E0EBE733
:1000F000F0E00C942C23DC012B01FA019C9192304E
:1001000008F439C1EB018881823008F433C194309E
:1001100069F4843009F02FC111969C91119789815F
:10012000981709F428C1A3E8B0E025C1843009F488
:1001300021C18230A9F4923009F01DC19A01AD01AC
:1001400088E0EA010990AE01E90109929E0181501F
:10015000C1F7E201898111969C918923818308C1AD
:10016000923009F407C112962D903C901397EB0141
:100170008A819B811496AD90BD90CD90DC901797AD
:10018000EC80FD800E811F819101281B390BB90184
:1001900037FF04C066277727621B730B6032710537
:1001A0000CF061C0121613066CF537014801062EDB
:1001B00004C096948794779467940A94D2F721E0C8
:1001C00030E040E050E004C0220F331F441F551FB1
:1001D0006A95D2F721503040404050402E213F21B7
:1001E00040235123211531054105510521F021E01E
:1001F00030E040E050E079018A01E628F72808293C
:1002000019293CC0232BD1F1260E371E350146019A
:10021000062E04C096948794779467940A94D2F734
:1002200021E030E040E050E004C0220F331F441FC3
:10023000551F6A95D2F721503040404050402A2146
:100240003B214C215D21211531054105510521F04E
:1002500021E030E040E050E059016A01A628B728CB
:10026000C828D9280BC0821593052CF01C01AA249C
:10027000BB24650103C0EE24FF24870111969C91E5
:10028000D20111968C91981709F445C0992339F041
:10029000A80197012A193B094C095D0906C0A6016E
:1002A00095012E193F09400B510B57FD08C01182D3
:1002B0003382228224833583468357831DC081E0A5
:1002C00081833382228288279927DC01821B930B4A
:1002D000A40BB50B84839583A683B7830DC0220F2F
:1002E000331F441F551F24833583468357838281E0
:1002F000938101979383828324813581468157813D
:10030000DA01C9010197A109B1098F5F9F4FAF4F72
:10031000BF4328F30BC0918333822282EA0CFB1C7B
:100320000C1D1D1DE482F5820683178383E0808304
:10033000248135814681578157FF1AC0C901AA27F8
:1003400097FDA095BA2F81709070A070B0705695EF
:10035000479537952795822B932BA42BB52B848318
:100360009583A683B7838281938101969383828349
:10037000DF0101C0D201CD01CDB7DEB7E2E10C94BF
:100380004823A0E2B0E0E7ECF1E00C943823698365
:100390007A838B839C832D833E834F835887E9E048
:1003A000EE2EF12CEC0EFD1ECE010196B7010E943F
:1003B000D2048E010F5E1F4FCE010596B8010E9438
:1003C000D2048A8991E089278A8BC701B801AE01DE
:1003D000475E5F4F0E9475000E94FD03A096E6E015
:1003E0000C945423A0E2B0E0E8EFF1E00C94382341
:1003F00069837A838B839C832D833E834F835887C5
:10040000F9E0EF2EF12CEC0EFD1ECE010196B701A6
:100410000E94D2048E010F5E1F4FCE010596B801D7
:100420000E94D204C701B801AE01475E5F4F0E942F
:1004300075000E94FD03A096E6E00C945423A0E210
:10044000B0E0E5E2F2E00C942C2369837A838B839D
:100450009C832D833E834F835887CE010196BE0136
:10046000675F7F4F0E94D204CE010596BE016F5E8A
:100470007F4F0E94D2049985923088F0898982301A
:10048000C8F0943019F4823051F404C0843029F457
:10049000923081F483E890E0C6C0923049F420E0C5
:1004A0009A858A89981321E02A87CE010996BBC0D4
:1004B000823049F420E09A858A89981321E02A8BBA
:1004C000CE014196B0C02D843E844F8458886D88FB
:1004D0007E888F88988CEE24FF248701AA24BB2471
:1004E000650140E050E060E070E0E0E0F0E0C10174
:1004F00081709070892BE9F0E60CF71C081D191D1E
:100500009A01AB012A0D3B1D4C1D5D1D80E090E062
:10051000A0E0B0E0E614F7040805190520F481E036
:1005200090E0A0E0B0E0BA01A901480F591F6A1F8E
:100530007B1FAA0CBB1CCC1CDD1C97FE08C081E0F5
:1005400090E0A0E0B0E0A82AB92ACA2ADB2A3196B6
:10055000E032F10549F0660C771C881C991C569412
:10056000479437942794C3CFFA85EA892B893C892D
:100570008B859C85280F391F2E5F3F4F17C0CA01FE
:1005800081709070892B61F016950795F794E79428
:1005900080E090E0A0E0B0E8E82AF92A0A2B1B2BC3
:1005A00076956795579547952F5F3F4F77FDE7CF36
:1005B0000CC0440F551F661F771F17FD4160EE0CDE
:1005C000FF1C001F111F21503040403090E05907A0
:1005D00090E0690790E4790760F32B8F3C8FDB0193
:1005E000CA018F779070A070B07080349105A1051A
:1005F000B10561F447FD0AC0E114F10401051105DC
:1006000029F0405C5F4F6F4F7F4F40781A8EFE1786
:1006100011F081E08A8F4D8F5E8F6F8F78A383E01A
:10062000898FCE0149960E94FD03A096E2E10C94C9
:100630004823A8E1B0E0EFE1F3E00C9438236983AC
:100640007A838B839C832D833E834F83588789E0F5
:10065000E82EF12CEC0EFD1ECE010196B7010E9492
:10066000D2048E010F5E1F4FCE010596B8010E9485
:10067000D2048985823040F08989823028F0C70110
:10068000B8010E944A0501C08FEF6896E6E00C941D
:100690005423A8E1B0E0EFE4F3E00C94382369833D
:1006A0007A838B839C832D833E834F83588789E095
:1006B000E82EF12CEC0EFD1ECE010196B7010E9432
:1006C000D2048E010F5E1F4FCE010596B8010E9425
:1006D000D2048985823040F08989823028F0C701B0
:1006E000B8010E944A0501C08FEF6896E6E00C94BD
:1006F0005423A8E1B0E0EFE7F3E00C9438236983DA
:100700007A838B839C832D833E834F83588789E034
:10071000E82EF12CEC0EFD1ECE010196B7010E94D1
:10072000D2048E010F5E1F4FCE010596B8010E94C4
:10073000D2048985823040F08989823028F0C7014F
:10074000B8010E944A0501C081E06896E6E00C9479
:100750005423ACE0B0E0EFEAF3E00C943C2369836F
:100760007A838B839C83CE010196BE016B5F7F4FA2
:100770000E94D2048D81823061F1823050F1843048
:1007800021F48E81882351F12EC02F81388537FDC9
:1007900020C06E812F3131051CF06623F9F023C093
:1007A0008EE190E0821B930B29853A854B855C8511
:1007B00004C056954795379527958A95D2F76623B5
:1007C000B1F050954095309521953F4F4F4F5F4F79
:1007D0000EC020E030E040E050E009C02FEF3FEFD6
:1007E0004FEF5FE704C020E030E040E050E8B9019F
:1007F000CA012C96E2E00C945823DF92EF92FF920C
:100800000F931F93FC01E480F58006811781D1804E
:100810008081823048F480E090E0A0E1B0E0E82AF6
:10082000F92A0A2B1B2BA5C0843009F49FC0823003
:1008300021F4EE24FF24870105C0E114F104010531
:10084000110519F4E0E0F0E096C0628173819FEF3A
:10085000623879070CF05BC022E83FEF261B370BAC
:100860002A3131052CF020E030E040E050E02AC091
:10087000B801A701022E04C0769567955795479554
:100880000A94D2F781E090E0A0E0B0E004C0880FC5
:10089000991FAA1FBB1F2A95D2F70197A109B10979
:1008A0008E219F21A023B1230097A105B10521F03E
:1008B00081E090E0A0E0B0E09A01AB01282B392B59
:1008C0004A2B5B2BDA01C9018F779070A070B07052
:1008D00080349105A105B10539F427FF09C0205CDA
:1008E0003F4F4F4F5F4F04C0215C3F4F4F4F5F4F13
:1008F000E0E0F0E02030A0E03A07A0E04A07A0E402
:100900005A0710F0E1E0F0E079018A0127C0603871
:10091000710564F5FB01E158FF4FD801C7018F77DE
:100920009070A070B07080349105A105B10539F4C4
:10093000E7FE0DC080E490E0A0E0B0E004C08FE3EB
:1009400090E0A0E0B0E0E80EF91E0A1F1B1F17FFA1
:1009500005C016950795F794E794319687E01695AC
:100960000795F794E7948A95D1F705C0EE24FF2404
:100970008701EFEFF0E06E2F679566276795902F60
:100980009F77D794DD24D7948E2F8695492F462BB9
:10099000582F5D29B701CA011F910F91FF90EF9069
:1009A000DF900895FC01DB01408151812281622F9B
:1009B0006F7770E0221F2227221F9381892F880FD3
:1009C000822B282F30E0991F9927991F11969C930D
:1009D000119721153105A9F54115510561057105DD
:1009E00011F482E037C082E89FEF13969C938E93B8
:1009F00012979A01AB0167E0220F331F441F551F66
:100A00006A95D1F783E08C930DC0220F331F441FEA
:100A1000551F12968D919C911397019713969C9355
:100A20008E931297203080E0380780E0480780E4FA
:100A3000580758F314962D933D934D935C93179755
:100A400008952F3F310579F4411551056105710570
:100A500019F484E08C93089564FF03C081E08C93C3
:100A600012C01C9210C02F57304013963C932E9307
:100A7000129783E08C9387E0440F551F661F771F02
:100A80008A95D1F7706414964D935D936D937C9322
:100A9000179708951F93DC01FB019C91923008F495
:100AA00047C08081823008F443C0943051F41196DD
:100AB0001C91843099F58181682F70E0611B710968
:100AC0003FC0843021F0923031F48230B9F181811D
:100AD000882389F12DC011961C9111978230F1F075
:100AE00081811817D9F412962D913C911397828128
:100AF00093818217930794F028173907BCF0149656
:100B00008D919D910D90BC91A02D248135814681C0
:100B10005781281739074A075B0718F4112341F05A
:100B20000AC082179307A407B50740F4112319F0F0
:100B300061E070E005C06FEF7FEF02C060E070E041
:100B4000CB011F910895DF93CF93CDB7DEB7A7E216
:100B5000B0E0E7E2F0E080818F778C93A7E2B0E02D
:100B6000E7E2F0E0808180648C93A7E2B0E0E7E206
:100B7000F0E080818F7D8C93A6E2B0E0E6E2F0E0C9
:100B800080818F7D8C93A6E2B0E0E6E2F0E0808188
:100B90008E7F8C93A6E2B0E0E6E2F0E08081826096
:100BA0008C93A6E2B0E0E6E2F0E0808184608C9372
:100BB000A6E2B0E0E6E2F0E0808180688C93CF911D
:100BC000DF910895DF93CF93CDB7DEB728970FB6A7
:100BD000F894DEBF0FBECDBF8E8378876F8381E030
:100BE0008D8319821A821B821C828E81803208F0CA
:100BF0005BC08F819885009709F456C0A7E2B0E0EA
:100C0000E7E2F0E08081807E8C93A7E2B0E0E7E24B
:100C1000F0E090818E81892B8C93A6E2B0E0E6E231
:100C2000F0E0808180648C930BC089819A81AB81D4
:100C3000BC810196A11DB11D89839A83AB83BC83BE
:100C4000E6E2F0E0808182958F70882F90E08170DD
:100C50009070009761F489819A81AB81BC8188385A
:100C600023E1920720E0A20720E0B207F0F2E6E2DB
:100C7000F0E0808182958F70882F90E08170907075
:100C8000882381F0E4E2F0E080819181EF81F885B2
:100C900091838083A6E2B0E0E6E2F0E080818061AB
:100CA0008C9303C01D8201C01D828D8128960FB6D2
:100CB000F894DEBF0FBECDBFCF91DF910895DF93D3
:100CC000CF9300D000D0CDB7DEB78A837C836B830F
:100CD00081E089838A81803278F58B819C810097BD
:100CE00059F180919200882339F581E08093920038
:100CF0008B819C819093910080939000A6E2B0E05C
:100D0000E6E2F0E0808188608C93A7E2B0E0E7E261
:100D1000F0E08081807E8C93A7E2B0E0E7E2F0E033
:100D200090818A81892B8C93A6E2B0E0E6E2F0E024
:100D3000808180648C9301C0198289810F900F900B
:100D40000F900F90CF91DF9108951F920F920FB6E1
:100D50000F9211242F933F934F935F936F937F9341
:100D60008F939F93AF93BF93EF93FF93DF93CF93B3
:100D7000CDB7DEB78091900090919100009799F0E7
:100D8000A6E2B0E0E6E2F0E08081877F8C932091DC
:100D9000900030919100E4E2F0E080819181F901CE
:100DA000099510929200CF91DF91FF91EF91BF9141
:100DB000AF919F918F917F916F915F914F913F91F3
:100DC0002F910F900FBE0F901F901895DF93CF9328
:100DD000CDB7DEB7EAE3F0E08FEF8083E7E3F0E042
:100DE0008FEF8083E4E3F0E08CE38083E1E3F0E0E5
:100DF0001082EBE3F0E01082E8E3F0E087E180832B
:100E0000E5E3F0E08CE38083E2E3F0E088EE8083CA
:100E1000CF91DF910895DF93CF93CDB7DEB72E97B3
:100E20000FB6F894DEBF0FBECDBF8A836B834C83B1
:100E300081E089838A81843008F00CC18B818830FD
:100E400008F008C18C81813021F08C81882309F061
:100E500001C18A81282F30E03E872D878D859E85B0
:100E60008130910509F44FC02D853E852230310532
:100E70002CF48D859E85009771F0EDC02D853E8503
:100E80002230310509F477C08D859E858330910528
:100E900009F4A9C0E0C08C81282F30E03C872B8763
:100EA0008B859C850097D1F02B853C8521303105C1
:100EB00009F0D1C0AAE3B0E0EAE3F0E08081482F76
:100EC0008B81282F30E081E090E0022E02C0880F55
:100ED000991F0A94E2F7842B8C93BDC0AAE3B0E07B
:100EE000EAE3F0E08081482F8B81282F30E081E019
:100EF00090E0022E02C0880F991F0A94E2F78095B5
:100F000084238C93A8C08C81282F30E03A872987CE
:100F100089859A850097D1F029853A852130310558
:100F200009F099C0A7E3B0E0E7E3F0E08081482F43
:100F30008B81282F30E081E090E0022E02C0880FE4
:100F4000991F0A94E2F7842B8C9385C0A7E3B0E045
:100F5000E7E3F0E08081482F8B81282F30E081E0AB
:100F600090E0022E02C0880F991F0A94E2F7809544
:100F700084238C9370C08C81282F30E038872F8396
:100F80008F8198850097D1F02F81388521303105E8
:100F900009F061C0A4E3B0E0E4E3F0E08081482F11
:100FA0008B81282F30E081E090E0022E02C0880F74
:100FB000991F0A94E2F7842B8C934DC0A4E3B0E010
:100FC000E4E3F0E08081482F8B81282F30E081E03E
:100FD00090E0022E02C0880F991F0A94E2F78095D4
:100FE00084238C9338C08C81282F30E03E832D835E
:100FF0008D819E810097C9F02D813E812130310580
:1010000051F5A1E3B0E0E1E3F0E08081482F8B816E
:10101000282F30E081E090E0022E02C0880F991F57
:101020000A94E2F7842B8C9316C0A1E3B0E0E1E3CD
:10103000F0E08081482F8B81282F30E081E090E024
:10104000022E02C0880F991F0A94E2F7809584232C
:101050008C9301C0198289812E960FB6F894DEBF59
:101060000FBECDBFCF91DF910895DF93CF93CDB762
:10107000DEB72E970FB6F894DEBF0FBECDBF8A83C2
:101080006B834C8381E089838B81883008F008C1B1
:101090008A81282F30E03E872D878D859E8581307F
:1010A000910509F450C02D853E85223031052CF480
:1010B0008D859E85009771F0F1C02D853E8522308B
:1010C000310509F479C08D859E858330910509F439
:1010D000ACC0E4C08C81282F30E03C872B878B8507
:1010E0009C850097C9F02B853C852130310549F559
:1010F000ABE3B0E0EBE3F0E08081482F8B81282F59
:1011000030E081E090E0022E02C0880F991F0A941F
:10111000E2F7842B8C93C5C0ABE3B0E0EBE3F0E0E7
:101120008081482F8B81282F30E081E090E0022ED3
:1011300002C0880F991F0A94E2F7809584238C934C
:10114000B0C01982AEC08C81282F30E03A87298741
:1011500089859A850097C9F029853A85213031051E
:1011600049F5A8E3B0E0E8E3F0E08081482F8B8107
:10117000282F30E081E090E0022E02C0880F991FF6
:101180000A94E2F7842B8C938CC0A8E3B0E0E8E3E8
:10119000F0E08081482F8B81282F30E081E090E0C3
:1011A000022E02C0880F991F0A94E2F780958423CB
:1011B0008C9377C0198275C08C81282F30E03887D6
:1011C0002F838F8198850097C9F02F813885213032
:1011D000310549F5A5E3B0E0E5E3F0E08081482F73
:1011E0008B81282F30E081E090E0022E02C0880F32
:1011F000991F0A94E2F7842B8C9353C0A5E3B0E0C7
:10120000E5E3F0E08081482F8B81282F30E081E0FA
:1012100090E0022E02C0880F991F0A94E2F7809591
:1012200084238C933EC019823CC08C81282F30E0EF
:101230003E832D838D819E810097C9F02D813E8153
:101240002130310549F5A2E3B0E0E2E3F0E080812E
:10125000482F8B81282F30E081E090E0022E02C0E1
:10126000880F991F0A94E2F7842B8C931AC0A2E38B
:10127000B0E0E2E3F0E08081482F8B81282F30E05E
:1012800081E090E0022E02C0880F991F0A94E2F7D5
:10129000809584238C9305C0198203C0198201C0F4
:1012A000198289812E960FB6F894DEBF0FBECDBF8E
:1012B000CF91DF910895DF93CF93CDB7DEB7289715
:1012C0000FB6F894DEBF0FBECDBF8B836C835E83F9
:1012D0004D8381E08A838B81843008F09FC08C81AC
:1012E000883008F09BC08D819E81009709F496C0DC
:1012F0008B81282F30E038872F834F8158854130EC
:101300005105A9F18F8198858230910534F42F81A0
:1013100038852115310571F082C04F8158854230E2
:10132000510509F441C08F8198858330910509F4F6
:1013300058C075C0E9E3F0E08081282F30E08C814F
:10134000882F90E0A90102C0559547958A95E2F74C
:10135000CA01817089838981882321F4ED81FE810E
:1013600010825DC0ED81FE8181E0808358C0E6E39C
:10137000F0E08081282F30E08C81882F90E0A90157
:1013800002C0559547958A95E2F7CA018170898315
:101390008981882321F4ED81FE81108240C0ED8196
:1013A000FE8181E080833BC0E3E3F0E08081282F71
:1013B00030E08C81882F90E0A90102C055954795B7
:1013C0008A95E2F7CA01817089838981882321F493
:1013D000ED81FE81108223C0ED81FE8181E080835A
:1013E0001EC0E0E3F0E08081282F30E08C81882F60
:1013F00090E0A90102C0559547958A95E2F7CA0188
:10140000817089838981882321F4ED81FE81108296
:1014100006C0ED81FE8181E0808301C01A828A814D
:1014200028960FB6F894DEBF0FBECDBFCF91DF91E7
:101430000895DF93CF93CDB7DEB72D970FB6F8940D
:10144000DEBF0FBECDBF8A836B8381E089838B8132
:10145000813021F08B81882309F07FC08A81282F79
:1014600030E03D872C878C859D858130910571F119
:101470002C853D85223031052CF48C859D85009787
:1014800069F069C02C853D8522303105B1F18C852C
:101490009D858330910509F447C05DC08B81282F5D
:1014A00030E03B872A878A859B85009759F02A85FB
:1014B0003B852130310509F051C0EAE3F0E08FEFC0
:1014C00080834CC0EAE3F0E0108248C08B81282F73
:1014D00030E03987288788859985009751F02885DD
:1014E000398521303105D1F5E7E3F0E08FEF8083D6
:1014F00035C0E7E3F0E0108231C08B81282F30E067
:101500003F832E838E819F81009751F02E813F81F2
:101510002130310519F5E4E3F0E08FEF80831EC040
:10152000E4E3F0E010821AC08B81282F30E03D8385
:101530002C838C819D81009751F02C813D8121303D
:10154000310561F4E1E3F0E08FEF808307C0E1E370
:10155000F0E0108203C0198201C0198289812D96A2
:101560000FB6F894DEBF0FBECDBFCF91DF910895C7
:10157000DF93CF9300D000D00F92CDB7DEB78A8330
:101580006B8381E089838A81282F30E03D832C831F
:101590008C819D8181309105D1F02C813D8122305B
:1015A00031052CF48C819D81009761F01FC02C8146
:1015B0003D812230310581F08C819D818330910500
:1015C00081F014C0EBE3F0E08B81808310C0E8E38E
:1015D000F0E08B8180830BC0E5E3F0E08B818083BA
:1015E00006C0E2E3F0E08B81808301C0198289812B
:1015F0000F900F900F900F900F90CF91DF91089563
:10160000DF93CF9300D000D000D0CDB7DEB78A8370
:101610007C836B8381E089838B819C810097E9F1D6
:101620008A81282F30E03E832D838D819E818130F9
:101630009105E1F02D813E81223031052CF48D8120
:101640009E81009761F027C02D813E8122303105B7
:10165000A1F08D819E8183309105B1F01CC0E9E33A
:10166000F0E08081EB81FC81808318C0E6E3F0E04C
:101670008081EB81FC81808311C0E3E3F0E0808115
:10168000EB81FC8180830AC0E0E3F0E08081EB81A4
:10169000FC81808303C0198201C01982898126964A
:1016A0000FB6F894DEBF0FBECDBFCF91DF91089586
:1016B000DF93CF9300D000D00F92CDB7DEB78A83EF
:1016C0006B8381E089838A81843008F073C08B81C9
:1016D000883008F06FC08A81282F30E03D832C834A
:1016E0008C819D818130910549F12C813D81223091
:1016F00031052CF48C819D81009761F05CC02C81B8
:101700003D812230310571F18C819D8183309105BD
:10171000E9F151C0ABE3B0E0EBE3F0E08081482FAA
:101720008B81282F30E081E090E0022E02C0880FEC
:10173000991F0A94E2F784278C933DC0A8E3B0E098
:10174000E8E3F0E08081482F8B81282F30E081E0B2
:1017500090E0022E02C0880F991F0A94E2F78427B6
:101760008C9329C0A5E3B0E0E5E3F0E08081482F49
:101770008B81282F30E081E090E0022E02C0880F9C
:10178000991F0A94E2F784278C9315C0A2E3B0E076
:10179000E2E3F0E08081482F8B81282F30E081E068
:1017A00090E0022E02C0880F991F0A94E2F7842766
:1017B0008C9301C0198289810F900F900F900F9028
:1017C0000F90CF91DF910895DF93CF9300D000D099
:1017D0000F92CDB7DEB78A836B838B81807F8B833B
:1017E00081E089838A81843008F05FC08A81282F54
:1017F00030E03D832C838C819D818130910529F1DE
:101800002C813D81223031052CF48C819D81009703
:1018100061F04CC02C813D812230310531F18C8149
:101820009D818330910589F141C0ABE3B0E0EBE3EA
:10183000F0E080818F708C93ABE3B0E0EBE3F0E0FD
:1018400090818B81892B8C9331C0A8E3B0E0E8E3D1
:10185000F0E080818F708C93A8E3B0E0E8E3F0E0E3
:1018600090818B81892B8C9321C0A5E3B0E0E5E3C7
:10187000F0E080818F708C93A5E3B0E0E5E3F0E0C9
:1018800090818B81892B8C9311C0A2E3B0E0E2E3BD
:10189000F0E080818F708C93A5E3B0E0E5E3F0E0A9
:1018A00090818B81892B8C9301C0198289810F9043
:1018B0000F900F900F900F90CF91DF910895DF93CD
:1018C000CF9300D000D00F92CDB7DEB78A836B8361
:1018D0008B818F708B8381E089838A81843008F0CB
:1018E0005FC08A81282F30E03D832C838C819D81CD
:1018F0008130910529F12C813D81223031052CF474
:101900008C819D81009761F04CC02C813D812230FB
:10191000310531F18C819D818330910589F141C080
:10192000ABE3B0E0EBE3F0E08081807F8C93ABE34E
:10193000B0E0EBE3F0E090818B81892B8C9331C098
:10194000A8E3B0E0E8E3F0E08081807F8C93A8E337
:10195000B0E0E8E3F0E090818B81892B8C9321C08B
:10196000A5E3B0E0E5E3F0E08081807F8C93A5E320
:10197000B0E0E5E3F0E090818B81892B8C9311C07E
:10198000A2E3B0E0E2E3F0E08081807F8C93A2E309
:10199000B0E0E2E3F0E090818B81892B8C9301C071
:1019A000198289810F900F900F900F900F90CF9117
:1019B000DF910895DF93CF93CDB7DEB7AFE5B0E009
:1019C000EFE5F0E0808180688C93CF91DF910895FE
:1019D000DF93CF93CDB7DEB7AFE5B0E0EFE5F0E052
:1019E00080818F778C93CF91DF9108950F931F9310
:1019F000DF93CF93CDB7DEB7CA50D1400FB6F8947E
:101A0000DEBF0FBECDBFFE01E95FFE4F80E090E07C
:101A1000ACE0B2E480839183A283B3838E010D5F37
:101A20001E4FFE01E95FFE4F6081718182819381CB
:101A300020E030E04AEF54E40E941F02DC01CB01B9
:101A4000F80180839183A283B383FE01ED5FFE4F93
:101A5000608171818281938120E030E040E85FE322
:101A60000E947903882344F4FE01EF5FFE4F81E07A
:101A700090E09183808364C0FE01ED5FFE4F608142
:101A800071818281938120E03FEF4FE757E40E940C
:101A9000190318160CF043C0FE01E95FFE4F608188
:101AA00071818281938120E030E040E251E40E9424
:101AB0001F02DC01CB018E010F5F1E4FBC01CD0167
:101AC0000E944900DC01CB01F801918380831FC093
:101AD000FE01E150FF4F88EC90E091838083FE018E
:101AE000E150FF4F808191810197F1F7FE01E150B4
:101AF000FF4F91838083DE01AF5FBE4FFE01EF5F3A
:101B0000FE4F80819181019711969C938E93FE01E7
:101B1000EF5FFE4F808191810097D1F627C08E0143
:101B20000F5F1E4FFE01ED5FFE4F6081718182816C
:101B300093810E944900DC01CB01F80191838083ED
:101B4000DE01A350BF4FFE01EF5FFE4F8081918108
:101B50008D939C93FE01E350FF4F8081918101970B
:101B6000F1F7FE01E350FF4F9183808380E062E054
:101B700040E00E94350880E063E040E00E943508C4
:101B800081E060E040E00E94350881E061E041E0F2
:101B90000E94350881E062E040E00E94350881E063
:101BA00064E040E00E94350880E062E041E00E948D
:101BB0003508FE01E750FF4F80E090E0A0E8BFE36A
:101BC00080839183A283B3838E010B501F4FFE014C
:101BD000E750FF4F608171818281938120E030E086
:101BE0004AEF54E40E941F02DC01CB01F80180831C
:101BF0009183A283B383FE01EB50FF4F608171811B
:101C00008281938120E030E040E85FE30E94790325
:101C1000882344F4FE01ED50FF4F81E090E0918372
:101C2000808364C0FE01EB50FF4F6081718182812F
:101C3000938120E03FEF4FE757E40E941903181605
:101C40000CF043C0FE01E750FF4F6081718182813B
:101C5000938120E030E040E251E40E941F02DC0169
:101C6000CB018E010D501F4FBC01CD010E944900D8
:101C7000DC01CB01F801918380831FC0FE01EF508E
:101C8000FF4F88EC90E091838083FE01EF50FF4F7F
:101C9000808191810197F1F7FE01EF50FF4F918311
:101CA0008083DE01AD50BF4FFE01ED50FF4F8081BC
:101CB0009181019711969C938E93FE01ED50FF4FF9
:101CC000808191810097D1F627C08E010D501F4F62
:101CD000FE01EB50FF4F60817181828193810E94F0
:101CE0004900DC01CB01F80191838083DE01A15121
:101CF000BF4FFE01ED50FF4F808191818D939C93EA
:101D0000FE01E151FF4F808191810197F1F7FE01C2
:101D1000E151FF4F9183808380E062E040E00E94C8
:101D2000350880E063E040E00E943508FE01E5519F
:101D3000FF4F80E090E0A0E8BFE380839183A2831F
:101D4000B3838E0109511F4FFE01E551FF4F6081A2
:101D500071818281938120E030E04AEF54E40E9457
:101D60001F02DC01CB01F80180839183A283B3833E
:101D7000FE01E951FF4F608171818281938120E0F2
:101D800030E040E85FE30E947903882344F4FE01D9
:101D9000EB51FF4F81E090E09183808364C0FE01AE
:101DA000E951FF4F608171818281938120E03FEF93
:101DB0004FE757E40E94190318160CF043C0FE01C8
:101DC000E551FF4F608171818281938120E030E095
:101DD00040E251E40E941F02DC01CB018E010B5155
:101DE0001F4FBC01CD010E944900DC01CB01F8016D
:101DF000918380831FC0FE01ED51FF4F88EC90E07E
:101E000091838083FE01ED51FF4F80819181019785
:101E1000F1F7FE01ED51FF4F91838083DE01AB515D
:101E2000BF4FFE01EB51FF4F8081918101971196C9
:101E30009C938E93FE01EB51FF4F8081918100971F
:101E4000D1F627C08E010B511F4FFE01E951FF4F04
:101E500060817181828193810E944900DC01CB0104
:101E6000F80191838083DE01AF51BF4FFE01EB513A
:101E7000FF4F808191818D939C93FE01EF51FF4F25
:101E8000808191810197F1F7FE01EF51FF4F91831E
:101E9000808381E060E040E00E94350881E061E0FD
:101EA00041E00E94350881E062E040E00E94350890
:101EB00081E064E040E00E94350880E062E041E0BB
:101EC0000E943508FE01E352FF4F80E090E0A0E859
:101ED000BFE380839183A283B3838E0107521F4F98
:101EE000FE01E352FF4F608171818281938120E086
:101EF00030E04AEF54E40E941F02DC01CB01F801FC
:101F000080839183A283B383FE01E752FF4F6081F8
:101F100071818281938120E030E040E85FE30E949C
:101F20007903882344F4FE01E952FF4F81E090E0F9
:101F30009183808364C0FE01E752FF4F608171810D
:101F40008281938120E03FEF4FE757E40E9419031D
:101F500018160CF043C0FE01E352FF4F60817181FF
:101F60008281938120E030E040E251E40E941F0230
:101F7000DC01CB018E0109521F4FBC01CD010E9433
:101F80004900DC01CB01F801918380831FC0FE0171
:101F9000EB52FF4F88EC90E091838083FE01EB527F
:101FA000FF4F808191810197F1F7FE01EB52FF4FC6
:101FB00091838083DE01A952BF4FFE01E952FF4F9A
:101FC00080819181019711969C938E93FE01E95235
:101FD000FF4F808191810097D1F627C08E01095271
:101FE0001F4FFE01E752FF4F608171818281938113
:101FF0000E944900DC01CB01F80191838083DE015E
:10200000AD52BF4FFE01E952FF4F808191818D9308
:102010009C93FE01ED52FF4F808191810197F1F772
:10202000FE01ED52FF4F9183808380E062E040E04B
:102030000E94350880E063E040E00E943508FE0120
:10204000E153FF4F80E090E0A0E8BFE380839183FD
:10205000A283B3838E0105531F4FFE01E153FF4F4F
:10206000608171818281938120E030E04AEF54E405
:102070000E941F02DC01CB01F80180839183A283BF
:10208000B383FE01E553FF4F6081718182819381AB
:1020900020E030E040E85FE30E947903882344F4C5
:1020A000FE01E753FF4F81E090E09183808364C09D
:1020B000FE01E553FF4F608171818281938120E0B1
:1020C0003FEF4FE757E40E94190318160CF043C086
:1020D000FE01E153FF4F608171818281938120E095
:1020E00030E040E251E40E941F02DC01CB018E018E
:1020F00007531F4FBC01CD010E944900DC01CB01F9
:10210000F801918380831FC0FE01E953FF4F88ECE3
:1021100090E091838083FE01E953FF4F808191819C
:102120000197F1F7FE01E953FF4F91838083DE01B0
:10213000A753BF4FFE01E753FF4F80819181019765
:1021400011969C938E93FE01E753FF4F80819181FE
:102150000097D1F627C08E0107531F4FFE01E553AC
:10216000FF4F60817181828193810E944900DC016F
:10217000CB01F80191838083DE01AB53BF4FFE0199
:10218000E753FF4F808191818D939C93FE01EB5328
:10219000FF4F808191810197F1F7FE01EB53FF4FD3
:1021A0009183808381E060E040E00E94350881E017
:1021B00061E040E00E94350881E062E040E00E947A
:1021C000350881E064E041E00E94350880E062E08B
:1021D00041E00E943508FE01EF53FF4F80E090E0A0
:1021E000ACE0B2E480839183A283B3838E01035475
:1021F0001F4FFE01EF53FF4F6081718182819381F8
:1022000020E030E04AEF54E40E941F02DC01CB01E1
:10221000F80180839183A283B383FE01E354FF4FCF
:10222000608171818281938120E030E040E85FE34A
:102230000E947903882344F4FE01E554FF4F81E0B6
:1022400090E09183808364C0FE01E354FF4F60817E
:1022500071818281938120E03FEF4FE757E40E9434
:10226000190318160CF043C0FE01EF53FF4F6081B5
:1022700071818281938120E030E040E251E40E944C
:102280001F02DC01CB018E0105541F4FBC01CD01A3
:102290000E944900DC01CB01F801918380831FC0BB
:1022A000FE01E754FF4F88EC90E091838083FE01AC
:1022B000E754FF4F808191810197F1F7FE01E754C8
:1022C000FF4F91838083DE01A554BF4FFE01E5548B
:1022D000FF4F80819181019711969C938E93FE010F
:1022E000E554FF4F808191810097D1F627C08E0180
:1022F00005541F4FFE01E354FF4F608171818281BD
:1023000093810E944900DC01CB01F8019183808315
:10231000DE01A954BF4FFE01E554FF4F808191813A
:102320008D939C93FE01E954FF4F80819181019729
:10233000F1F7FE01E954FF4F9183808380E062E072
:1023400040E00E94350880E063E040E00E943508EC
:10235000FE01ED54FF4F80E090E0A0E8BFE38083F2
:102360009183A283B3838E0101551F4FFE01ED546B
:10237000FF4F608171818281938120E030E04AEFDC
:1023800054E40E941F02DC01CB01F8018083918399
:10239000A283B383FE01E155FF4F60817181828189
:1023A000938120E030E040E85FE30E9479038823D6
:1023B00044F4FE01E355FF4F81E090E09183808378
:1023C00064C0FE01E155FF4F60817181828193817C
:1023D00020E03FEF4FE757E40E94190318160CF076
:1023E00043C0FE01ED54FF4F608171818281938172
:1023F00020E030E040E251E40E941F02DC01CB010A
:102400008E0103551F4FBC01CD010E944900DC0124
:10241000CB01F801918380831FC0FE01E555FF4F7A
:1024200088EC90E091838083FE01E555FF4F808129
:1024300091810197F1F7FE01E555FF4F918380836C
:10244000DE01A355BF4FFE01E355FF4F808191810F
:10245000019711969C938E93FE01E355FF4F808167
:1024600091810097D1F627C08E0103551F4FFE01C1
:10247000E155FF4F60817181828193810E94490003
:10248000DC01CB01F80191838083DE01A755BF4FAA
:10249000FE01E355FF4F808191818D939C93FE0156
:1024A000E755FF4F808191810197F1F7FE01E755D4
:1024B000FF4F9183808381E060E040E00E94350817
:1024C00081E061E040E00E94350881E062E040E0A8
:1024D0000E94350881E064E040E00E94350880E019
:1024E00062E041E00E943508FE01EB55FF4F80E0BD
:1024F00090E0A0E8BFE380839183A283B3838E0141
:102500000F551F4FFE01EB55FF4F60817181828196
:10251000938120E030E04AEF54E40E941F02DC0186
:10252000CB01F80180839183A283B383FE01EF5531
:10253000FF4F608171818281938120E030E040E82B
:102540005FE30E947903882344F4FE01E156FF4FC4
:1025500081E090E09183808364C0FE01EF55FF4FDE
:10256000608171818281938120E03FEF4FE757E4E2
:102570000E94190318160CF043C0FE01EB55FF4FE3
:10258000608171818281938120E030E040E251E4FA
:102590000E941F02DC01CB018E0101561F4FBC01BE
:1025A000CD010E944900DC01CB01F80191838083B9
:1025B0001FC0FE01E356FF4F88EC90E091838083BB
:1025C000FE01E356FF4F808191810197F1F7FE01F3
:1025D000E356FF4F91838083DE01A156BF4FFE017A
:1025E000E156FF4F80819181019711969C938E93C4
:1025F000FE01E156FF4F808191810097D1F627C0FF
:102600008E0101561F4FFE01EF55FF4F6081718112
:10261000828193810E944900DC01CB01F801918302
:102620008083DE01A556BF4FFE01E156FF4F80813A
:1026300091818D939C93FE01E556FF4F808191819E
:102640000197F1F7FE01E556FF4F9183808380E00B
:1026500062E040E00E94350880E063E040E00E94D4
:102660003508FE01E956FF4F80E090E0A0E8BFE3A7
:1026700080839183A283B3838E010D561F4FFE0189
:10268000E956FF4F608171818281938120E030E0C3
:102690004AEF54E40E941F02DC01CB01F801808361
:1026A0009183A283B383FE01ED56FF4F6081718158
:1026B0008281938120E030E040E85FE30E9479036B
:1026C000882344F4FE01EF56FF4F81E090E09183B0
:1026D000808364C0FE01ED56FF4F6081718182816D
:1026E000938120E03FEF4FE757E40E94190318164B
:1026F0000CF043C0FE01E956FF4F60817181828179
:10270000938120E030E040E251E40E941F02DC01AE
:10271000CB018E010F561F4FBC01CD010E94490015
:10272000DC01CB01F801918380831FC0FE01E157DA
:10273000FF4F88EC90E091838083FE01E157FF4FCB
:10274000808191810197F1F7FE01E157FF4F91835D
:102750008083DE01AF56BF4FFE01EF56FF4F8081F1
:102760009181019711969C938E93FE01EF56FF4F36
:10277000808191810097D1F627C08E010F561F4F9F
:10278000FE01ED56FF4F60817181828193810E942D
:102790004900DC01CB01F80191838083DE01A3575E
:1027A000BF4FFE01EF56FF4F808191818D939C9327
:1027B000FE01E357FF4F808191810197F1F7FE0100
:1027C000E357FF4F9183808381E060E040E00E9407
:1027D000350881E061E040E00E94350881E062E078
:1027E00041E00E94350881E064E041E00E94350844
:1027F00080E062E041E00E943508FE01E757FF4FAC
:1028000080E090E0ACE0B2E480839183A283B38364
:102810008E010B571F4FFE01E757FF4F60817181FB
:102820008281938120E030E04AEF54E40E941F024D
:10283000DC01CB01F80180839183A283B383FE0185
:10284000EB57FF4F608171818281938120E030E0FE
:1028500040E85FE30E947903882344F4FE01ED57CA
:10286000FF4F81E090E09183808364C0FE01EB57CD
:10287000FF4F608171818281938120E03FEF4FE7BC
:1028800057E40E94190318160CF043C0FE01E757E5
:10289000FF4F608171818281938120E030E040E2CE
:1028A00051E40E941F02DC01CB018E010D571F4F26
:1028B000BC01CD010E944900DC01CB01F8019183EC
:1028C00080831FC0FE01EF57FF4F88EC90E091839B
:1028D0008083FE01EF57FF4F808191810197F1F7CF
:1028E000FE01EF57FF4F91838083DE01AD57BF4F4D
:1028F000FE01ED57FF4F80819181019711969C93C6
:102900008E93FE01ED57FF4F808191810097D1F6A4
:1029100027C08E010D571F4FFE01EB57FF4F6081FF
:102920007181828193810E944900DC01CB01F80111
:1029300091838083DE01A158BF4FFE01ED57FF4F09
:10294000808191818D939C93FE01E158FF4F80819E
:1029500091810197F1F7FE01E158FF4F9183808348
:1029600080E062E040E00E94350880E063E040E003
:102970000E943508FE01E558FF4F80E090E0A0E896
:10298000BFE380839183A283B3838E0109581F4FD5
:10299000FE01E558FF4F608171818281938120E0C3
:1029A00030E04AEF54E40E941F02DC01CB01F80141
:1029B00080839183A283B383FE01E958FF4F608136
:1029C00071818281938120E030E040E85FE30E94E2
:1029D0007903882344F4FE01EB58FF4F81E090E037
:1029E0009183808364C0FE01E958FF4F608171814B
:1029F0008281938120E03FEF4FE757E40E94190363
:102A000018160CF043C0FE01E558FF4F608171813C
:102A10008281938120E030E040E251E40E941F0275
:102A2000DC01CB018E010B581F4FBC01CD010E9470
:102A30004900DC01CB01F801918380831FC0FE01B6
:102A4000ED58FF4F88EC90E091838083FE01ED58B4
:102A5000FF4F808191810197F1F7FE01ED58FF4F03
:102A600091838083DE01AB58BF4FFE01EB58FF4FCF
:102A700080819181019711969C938E93FE01EB5872
:102A8000FF4F808191810097D1F627C08E010B58AE
:102A90001F4FFE01E958FF4F608171818281938150
:102AA0000E944900DC01CB01F80191838083DE01A3
:102AB000AF58BF4FFE01EB58FF4F808191818D933E
:102AC0009C93FE01EF58FF4F808191810197F1F7B0
:102AD000FE01EF58FF4F9183808381E060E040E08A
:102AE0000E94350881E061E040E00E94350881E005
:102AF00062E040E00E94350881E064E040E00E942E
:102B0000350880E062E041E00E943508FE01E359AB
:102B1000FF4F80E090E0A0E8BFE380839183A28331
:102B2000B3838E0107591F4FFE01E359FF4F6081A8
:102B300071818281938120E030E04AEF54E40E9469
:102B40001F02DC01CB01F80180839183A283B38350
:102B5000FE01E759FF4F608171818281938120E0FE
:102B600030E040E85FE30E947903882344F4FE01EB
:102B7000E959FF4F81E090E09183808364C0FE01BA
:102B8000E759FF4F608171818281938120E03FEF9F
:102B90004FE757E40E94190318160CF043C0FE01DA
:102BA000E359FF4F608171818281938120E030E0A1
:102BB00040E251E40E941F02DC01CB018E01095961
:102BC0001F4FBC01CD010E944900DC01CB01F8017F
:102BD000918380831FC0FE01EB59FF4F88EC90E08A
:102BE00091838083FE01EB59FF4F80819181019792
:102BF000F1F7FE01EB59FF4F91838083DE01A95964
:102C0000BF4FFE01E959FF4F8081918101971196D5
:102C10009C938E93FE01E959FF4F8081918100972B
:102C2000D1F627C08E0109591F4FFE01E759FF4F0A
:102C300060817181828193810E944900DC01CB0116
:102C4000F80191838083DE01AD59BF4FFE01E95940
:102C5000FF4F808191818D939C93FE01ED59FF4F31
:102C6000808191810197F1F7FE01ED59FF4F91832A
:102C7000808380E062E040E00E94350880E063E00D
:102C800040E00E943508FE01E15AFF4F80E090E0ED
:102C9000A0E8BFE380839183A283B3838E01055AAA
:102CA0001F4FFE01E15AFF4F608171818281938144
:102CB00020E030E04AEF54E40E941F02DC01CB0127
:102CC000F80180839183A283B383FE01E55AFF4F0D
:102CD000608171818281938120E030E040E85FE390
:102CE0000E947903882344F4FE01E75AFF4F81E0F4
:102CF00090E09183808364C0FE01E55AFF4F6081BC
:102D000071818281938120E03FEF4FE757E40E9479
:102D1000190318160CF043C0FE01E15AFF4F608101
:102D200071818281938120E030E040E251E40E9491
:102D30001F02DC01CB018E01075A1F4FBC01CD01E0
:102D40000E944900DC01CB01F801918380831FC000
:102D5000FE01E95AFF4F88EC90E091838083FE01E9
:102D6000E95AFF4F808191810197F1F7FE01E95AFD
:102D7000FF4F91838083DE01A75ABF4FFE01E75AC0
:102D8000FF4F80819181019711969C938E93FE0154
:102D9000E75AFF4F808191810097D1F627C08E01BD
:102DA000075A1F4FFE01E55AFF4F608171818281F2
:102DB00093810E944900DC01CB01F801918380835B
:102DC000DE01AB5ABF4FFE01E75AFF4F8081918170
:102DD0008D939C93FE01EB5AFF4F80819181019767
:102DE000F1F7FE01EB5AFF4F9183808381E060E0B1
:102DF00041E00E94350881E061E040E00E94350832
:102E000081E062E040E00E94350881E064E040E05B
:102E10000E94350880E062E041E00E943508FE0132
:102E2000EF5AFF4F80E090E0ACE0B2E48083918302
:102E3000A283B3838E01035B1F4FFE01EF5AFF4F46
:102E4000608171818281938120E030E04AEF54E417
:102E50000E941F02DC01CB01F80180839183A283D1
:102E6000B383FE01E35BFF4F6081718182819381B7
:102E700020E030E040E85FE30E947903882344F4D7
:102E8000FE01E55BFF4F81E090E09183808364C0A9
:102E9000FE01E35BFF4F608171818281938120E0BD
:102EA0003FEF4FE757E40E94190318160CF043C098
:102EB000FE01EF5AFF4F608171818281938120E092
:102EC00030E040E251E40E941F02DC01CB018E01A0
:102ED000055B1F4FBC01CD010E944900DC01CB0105
:102EE000F801918380831FC0FE01E75BFF4F88ECF0
:102EF00090E091838083FE01E75BFF4F80819181A9
:102F00000197F1F7FE01E75BFF4F91838083DE01BC
:102F1000A55BBF4FFE01E55BFF4F8081918101976B
:102F200011969C938E93FE01E55BFF4F808191810A
:102F30000097D1F627C08E01055B1F4FFE01E35BB2
:102F4000FF4F60817181828193810E944900DC0181
:102F5000CB01F80191838083DE01A95BBF4FFE01A5
:102F6000E55BFF4F808191818D939C93FE01E95B2E
:102F7000FF4F808191810197F1F7FE01E95BFF4FDF
:102F80009183808380E062E040E00E94350880E029
:102F900063E040E00E943508FE01ED5BFF4F80E0FA
:102FA00090E0A0E8BFE380839183A283B3838E0186
:102FB000015C1F4FFE01ED5BFF4F608171818281DB
:102FC000938120E030E04AEF54E40E941F02DC01CC
:102FD000CB01F80180839183A283B383FE01FF9626
:102FE000608171818281938120E030E040E85FE37D
:102FF0000E94790388232CF481E090E09EAF8DAF8E
:1030000046C0FE01FF96608171818281938120E03C
:103010003FEF4FE757E40E941903181664F5FE01CD
:10302000ED5BFF4F608171818281938120E030E010
:1030300040E251E40E941F02DC01CB01BC01CD0142
:103040000E944900DC01CB019EAF8DAF0FC088EC20
:1030500090E09CAF8BAF8BAD9CAD0197F1F79CAF2F
:103060008BAF8DAD9EAD01979EAF8DAF8DAD9EADFB
:10307000009769F716C0FE01FF9660817181828119
:1030800093810E944900DC01CB019EAF8DAF8DADD5
:103090009EAD9AAF89AF89AD9AAD0197F1F79AAF1E
:1030A00089AF81E060E040E00E94350881E061E0A6
:1030B00040E00E94350881E062E040E00E9435086F
:1030C00081E064E040E00E94350880E062E041E099
:1030D0000E94350880E090E0A0E8BFE38DAB9EAB96
:1030E000AFABB8AF6DA97EA98FA998AD20E030E055
:1030F0004AEF54E40E941F02DC01CB0189AB9AAB7A
:10310000ABABBCAB69A97AA98BA99CA920E030E044
:1031100040E85FE30E94790388232CF481E090E08B
:1031200098AB8FA73FC069A97AA98BA99CA920E079
:103130003FEF4FE757E40E94190318164CF56DA9AD
:103140007EA98FA998AD20E030E040E251E40E94D2
:103150001F02DC01CB01BC01CD010E944900DC0152
:10316000CB0198AB8FA70FC088EC90E09EA78DA7EE
:103170008DA59EA50197F1F79EA78DA78FA598A96C
:10318000019798AB8FA78FA598A9009769F714C0EE
:1031900069A97AA98BA99CA90E944900DC01CB01ED
:1031A00098AB8FA78FA598A99CA78BA78BA59CA54B
:1031B0000197F1F79CA78BA780E062E040E00E94B6
:1031C000350880E063E040E00E94350880E090E050
:1031D000A0E8BFE38FA398A7A9A7BAA76FA178A576
:1031E00089A59AA520E030E04AEF54E40E941F022E
:1031F000DC01CB018BA39CA3ADA3BEA36BA17CA1DF
:103200008DA19EA120E030E040E85FE30E947903B9
:1032100088232CF481E090E09AA389A33FC06BA19E
:103220007CA18DA19EA120E03FEF4FE757E40E94D3
:10323000190318164CF56FA178A589A59AA520E069
:1032400030E040E251E40E941F02DC01CB01BC01EE
:10325000CD010E944900DC01CB019AA389A30FC0D4
:1032600088EC90E098A38F8F8F8D98A10197F1F74C
:1032700098A38F8F89A19AA101979AA389A389A165
:103280009AA1009769F714C06BA17CA18DA19EA1A2
:103290000E944900DC01CB019AA389A389A19AA1CC
:1032A0009E8F8D8F8D8D9E8D0197F1F79E8F8D8FC7
:1032B00081E060E040E00E94350881E061E041E0AB
:1032C0000E94350881E062E041E00E94350881E01B
:1032D00064E040E00E94350880E062E041E00E9446
:1032E000350880E090E0A0E0B0E4898F9A8FAB8F42
:1032F000BC8F698D7A8D8B8D9C8D20E030E04AEFFC
:1033000054E40E941F02DC01CB018D8B9E8BAF8B9E
:10331000B88F6D897E898F89988D20E030E040E8F4
:103320005FE30E94790388232CF481E090E09C8B7A
:103330008B8B3FC06D897E898F89988D20E03FEF10
:103340004FE757E40E94190318164CF5698D7A8DE2
:103350008B8D9C8D20E030E040E251E40E941F0202
:10336000DC01CB01BC01CD010E944900DC01CB0195
:103370009C8B8B8B0FC088EC90E09A8B898B898912
:103380009A890197F1F79A8B898B8B899C89019790
:103390009C8B8B8B8B899C89009769F714C06D89F6
:1033A0007E898F89988D0E944900DC01CB019C8B1E
:1033B0008B8B8B899C89988B8F878F8598890197B8
:1033C000F1F7988B8F8780E062E040E00E9435083B
:1033D00080E090E0A0E8BFE38B879C87AD87BE8745
:1033E0006B857C858D859E8520E030E04AEF54E436
:1033F0000E941F02DC01CB018F839887A987BA87BF
:103400006F81788589859A8520E030E040E85FE328
:103410000E94790388232CF481E090E09E838D83C1
:103420003FC06F81788589859A8520E03FEF4FE71F
:1034300057E40E94190318164CF56B857C858D8521
:103440009E8520E030E040E251E40E941F02DC0152
:10345000CB01BC01CD010E944900DC01CB019E8360
:103460008D830FC088EC90E09C838B838B819C8143
:103470000197F1F79C838B838D819E8101979E83B9
:103480008D838D819E81009769F714C06F81788547
:1034900089859A850E944900DC01CB019E838D833A
:1034A0008D819E819A83898389819A810197F1F721
:1034B0009A838983C65FDE4F0FB6F894DEBF0FBED6
:1034C000CDBFCF91DF911F910F910895DF93CF93DF
:1034D000CDB7DEB7E9970FB6F894DEBF0FBECDBF0C
:1034E00089AF80E062E040E00E94350880E063E060
:1034F00040E00E94350889AD82958F70982F9170B9
:1035000081E060E0492F0E94350889AD829586955B
:103510008770982F917081E061E0492F0E943508F3
:1035200089AD8295869586958370982F917081E0FC
:1035300062E0492F0E94350889AD982F991F99277D
:10354000991F81E064E0492F0E94350880E062E025
:1035500041E00E94350880E090E0A0E0B0E48DAB4F
:103560009EABAFABB8AF6DA97EA98FA998AD20E097
:1035700030E04AEF54E40E941F02DC01CB0189AB2A
:103580009AABABABBCAB69A97AA98BA99CA920E08B
:1035900030E040E85FE30E94790388232CF481E067
:1035A00090E098AB8FA73FC069A97AA98BA99CA985
:1035B00020E03FEF4FE757E40E94190318164CF53F
:1035C0006DA97EA98FA998AD20E030E040E251E4DA
:1035D0000E941F02DC01CB01BC01CD010E94490009
:1035E000DC01CB0198AB8FA70FC088EC90E09EA7C1
:1035F0008DA78DA59EA50197F1F79EA78DA78FA5F5
:1036000098A9019798AB8FA78FA598A9009769F7FC
:1036100014C069A97AA98BA99CA90E944900DC0160
:10362000CB0198AB8FA78FA598A99CA78BA78BA53B
:103630009CA50197F1F79CA78BA780E062E040E092
:103640000E94350880E090E0A0E0B0E48FA398A746
:10365000A9A7BAA76FA178A589A59AA520E030E00F
:103660004AEF54E40E941F02DC01CB018BA39CA310
:10367000ADA3BEA36BA17CA18DA19EA120E030E0F3
:1036800040E85FE30E94790388232CF481E090E016
:103690009AA389A33FC06BA17CA18DA19EA120E02C
:1036A0003FEF4FE757E40E94190318164CF56FA13E
:1036B00078A589A59AA520E030E040E251E40E9477
:1036C0001F02DC01CB01BC01CD010E944900DC01DD
:1036D000CB019AA389A30FC088EC90E098A38F8FA9
:1036E0008F8D98A10197F1F798A38F8F89A19AA147
:1036F00001979AA389A389A19AA1009769F714C099
:103700006BA17CA18DA19EA10E944900DC01CB018F
:103710009AA389A389A19AA19E8F8D8F8D8D9E8D4D
:103720000197F1F79E8F8D8F89AD982F917081E071
:1037300060E0492F0E94350889AD8695982F9170D9
:1037400081E061E0492F0E94350889AD8695869514
:10375000982F917081E062E0492F0E94350889AD71
:10376000869586958695982F917081E064E0492F23
:103770000E94350880E062E041E00E94350880E068
:1037800090E0A0E0B0E4898F9A8FAB8FBC8F698DF9
:103790007A8D8B8D9C8D20E030E04AEF54E40E94BE
:1037A0001F02DC01CB018D8B9E8BAF8BB88F6D8997
:1037B0007E898F89988D20E030E040E85FE30E94A9
:1037C000790388232CF481E090E09C8B8B8B3FC0A5
:1037D0006D897E898F89988D20E03FEF4FE757E410
:1037E0000E94190318164CF5698D7A8D8B8D9C8D6E
:1037F00020E030E040E251E40E941F02DC01CB01F6
:10380000BC01CD010E944900DC01CB019C8B8B8B5C
:103810000FC088EC90E09A8B898B89899A890197EF
:10382000F1F79A8B898B8B899C8901979C8B8B8B69
:103830008B899C89009769F714C06D897E898F896F
:10384000988D0E944900DC01CB019C8B8B8B8B896E
:103850009C89988B8F878F8598890197F1F7988B32
:103860008F8780E062E040E00E94350880E090E0D1
:10387000A0E0B0E48B879C87AD87BE876B857C8595
:103880008D859E8520E030E04AEF54E40E941F02BF
:10389000DC01CB018F839887A987BA876F817885F0
:1038A00089859A8520E030E040E85FE30E94790353
:1038B00088232CF481E090E09E838D833FC06F814C
:1038C000788589859A8520E03FEF4FE757E40E948D
:1038D000190318164CF56B857C858D859E8520E037
:1038E00030E040E251E40E941F02DC01CB01BC0148
:1038F000CD010E944900DC01CB019E838D830FC066
:1039000088EC90E09C838B838B819C810197F1F7FD
:103910009C838B838D819E8101979E838D838D8176
:103920009E81009769F714C06F81788589859A8593
:103930000E944900DC01CB019E838D838D819E8195
:103940009A83898389819A810197F1F79A83898380
:10395000E9960FB6F894DEBF0FBECDBFCF91DF91D1
:103960000895DF93CF93CDB7DEB7E9970FB6F894FC
:10397000DEBF0FBECDBF89AF80E062E040E00E94B5
:10398000350880E063E041E00E94350889AD82950A
:103990008F70982F917081E060E0492F0E94350868
:1039A00089AD829586958770982F917081E061E04E
:1039B000492F0E94350889AD82958695869583703A
:1039C000982F917081E062E0492F0E94350889ADFF
:1039D000982F991F9927991F81E064E0492F0E9431
:1039E000350880E062E041E00E94350880E090E028
:1039F000A0E0B0E48DAB9EABAFABB8AF6DA97EA934
:103A00008FA998AD20E030E04AEF54E40E941F02F5
:103A1000DC01CB0189AB9AABABABBCAB69A97AA992
:103A20008BA99CA920E030E040E85FE30E94790385
:103A300088232CF481E090E098AB8FA73FC069A960
:103A40007AA98BA99CA920E03FEF4FE757E40E9499
:103A5000190318164CF56DA97EA98FA998AD20E021
:103A600030E040E251E40E941F02DC01CB01BC01C6
:103A7000CD010E944900DC01CB0198AB8FA70FC09C
:103A800088EC90E09EA78DA78DA59EA50197F1F7E4
:103A90009EA78DA78FA598A9019798AB8FA78FA5F3
:103AA00098A9009769F714C069A97AA98BA99CA95C
:103AB0000E944900DC01CB0198AB8FA78FA598A984
:103AC0009CA78BA78BA59CA50197F1F79CA78BA71B
:103AD00080E062E040E00E94350880E090E0A0E0F5
:103AE000B0E48FA398A7A9A7BAA76FA178A589A5C5
:103AF0009AA520E030E04AEF54E40E941F02DC0166
:103B0000CB018BA39CA3ADA3BEA36BA17CA18DA174
:103B10009EA120E030E040E85FE30E947903882323
:103B20002CF481E090E09AA389A33FC06BA17CA113
:103B30008DA19EA120E03FEF4FE757E40E941903BB
:103B400018164CF56FA178A589A59AA520E030E05C
:103B500040E251E40E941F02DC01CB01BC01CD0117
:103B60000E944900DC01CB019AA389A30FC088EC15
:103B700090E098A38F8F8F8D98A10197F1F798A36C
:103B80008F8F89A19AA101979AA389A389A19AA14C
:103B9000009769F714C06BA17CA18DA19EA10E9422
:103BA0004900DC01CB019AA389A389A19AA19E8F28
:103BB0008D8F8D8D9E8D0197F1F79E8F8D8F89ADA5
:103BC000982F917081E060E0492F0E94350889ADFF
:103BD0008695982F917081E061E0492F0E94350809
:103BE00089AD86958695982F917081E062E0492F86
:103BF0000E94350889AD869586958695982F917097
:103C000081E064E0492F0E94350880E062E041E0F5
:103C10000E94350880E090E0A0E0B0E4898F9A8FA0
:103C2000AB8FBC8F698D7A8D8B8D9C8D20E030E0C1
:103C30004AEF54E40E941F02DC01CB018D8B9E8B66
:103C4000AF8BB88F6D897E898F89988D20E030E0A9
:103C500040E85FE30E94790388232CF481E090E040
:103C60009C8B8B8B3FC06D897E898F89988D20E0DE
:103C70003FEF4FE757E40E94190318164CF5698D82
:103C80007A8D8B8D9C8D20E030E040E251E40E94E3
:103C90001F02DC01CB01BC01CD010E944900DC0107
:103CA000CB019C8B8B8B0FC088EC90E09A8B898B1F
:103CB00089899A890197F1F79A8B898B8B899C89DD
:103CC00001979C8B8B8B8B899C89009769F714C01B
:103CD0006D897E898F89988D0E944900DC01CB0116
:103CE0009C8B8B8B8B899C89988B8F878F859889F0
:103CF0000197F1F7988B8F8780E062E040E00E94A7
:103D0000350880E090E0A0E0B0E48B879C87AD8729
:103D1000BE876B857C858D859E8520E030E04AEFEF
:103D200054E40E941F02DC01CB018F839887A9878E
:103D3000BA876F81788589859A8520E030E040E8F0
:103D40005FE30E94790388232CF481E090E09E8356
:103D50008D833FC06F81788589859A8520E03FEF0C
:103D60004FE757E40E94190318164CF56B857C85C4
:103D70008D859E8520E030E040E251E40E941F02E4
:103D8000DC01CB01BC01CD010E944900DC01CB016B
:103D90009E838D830FC088EC90E09C838B838B8106
:103DA0009C810197F1F79C838B838D819E81019784
:103DB0009E838D838D819E81009769F714C06F81EA
:103DC000788589859A850E944900DC01CB019E8314
:103DD0008D838D819E819A83898389819A810197C0
:103DE000F1F79A838983E9960FB6F894DEBF0FBE88
:103DF000CDBFCF91DF910895DF93CF9300D00F9285
:103E0000CDB7DEB79B838A8319820EC08981282FA4
:103E100030E08A819B81FC01E20FF31F80810E94C8
:103E2000B11C89818F5F89838981282F30E08A8145
:103E30009B81FC01E20FF31F8081882339F70F90EB
:103E40000F900F90CF91DF9108950F931F93DF9301
:103E5000CF93CDB7DEB761970FB6F894DEBF0FBE34
:103E6000CDBF6E877F87888B998B8AE0FE01349661
:103E7000DF01982F1D929A95E9F71B828E859F8509
:103E8000A889B9890097A105B10589F580E30E9449
:103E9000B11C50C08B81082F10E08E859F85A889AA
:103EA000B9892AE030E040E050E0BC01CD010E9439
:103EB0000A23DC01CB01282FCE010496FC01E00F80
:103EC000F11F20838E859F85A889B9892AE030E07B
:103ED00040E050E0BC01CD010E940A23DA01C90193
:103EE0008E879F87A88BB98B8B818F5F8B838E8505
:103EF0009F85A889B9890097A105B10559F68B81DD
:103F0000882F90E001979A83898310C029813A8194
:103F1000CE010496FC01E20FF31F8081805D0E94B8
:103F2000B11C89819A8101979A83898389819A81B9
:103F3000992364F761960FB6F894DEBF0FBECDBF2C
:103F4000CF91DF911F910F910895DF93CF9300D010
:103F500000D00F92CDB7DEB78A836B8381E089836F
:103F60008B818832B0F58A81282F30E03D832C8305
:103F70008C819D8182309105D9F02C813D81233047
:103F8000310534F48C819D818130910561F01FC031
:103F90002C813D812330310581F08C819D818430DD
:103FA000910581F014C08B8180580E94661A12C05E
:103FB0008B8180540E94661A0DC08B818C560E94A2
:103FC000661A08C08B818C520E94661A03C019823F
:103FD00001C0198289810F900F900F900F900F9060
:103FE000CF91DF910895DF93CF93CDB7DEB72E97B2
:103FF0000FB6F894DEBF0FBECDBF81E00E94661AF7
:1040000080E090E0A0E0B0E48B879C87AD87BE871E
:104010006B857C858D859E8520E030E04AEF54E4F9
:104020000E941F02DC01CB018F839887A987BA8782
:104030006F81788589859A8520E030E040E85FE3EC
:104040000E94790388232CF481E090E09E838D8385
:104050003FC06F81788589859A8520E03FEF4FE7E3
:1040600057E40E94190318164CF56B857C858D85E5
:104070009E8520E030E040E251E40E941F02DC0116
:10408000CB01BC01CD010E944900DC01CB019E8324
:104090008D830FC088EC90E09C838B838B819C8107
:1040A0000197F1F79C838B838D819E8101979E837D
:1040B0008D838D819E81009769F714C06F8178850B
:1040C00089859A850E944900DC01CB019E838D83FE
:1040D0008D819E819A83898389819A810197F1F7E5
:1040E0009A8389832E960FB6F894DEBF0FBECDBF9C
:1040F000CF91DF910895DF93CF93CDB7DEB72897A7
:104100000FB6F894DEBF0FBECDBF8C837E836D8368
:1041100081E08B838C81883008F06AC08C81282FE5
:1041200030E038872F838F81988583309105A9F1FE
:104130002F813885243031057CF48F81988581303A
:10414000910519F12F8138852230310514F58F81C1
:1041500098850097B1F034C02F813885253031051E
:1041600021F18F81988585309105DCF02F8138858C
:1041700026303105F1F08F81988587309105E9F07F
:104180001FC080E40E94661A1BC088E40E94661A61
:1041900017C080E50E94661A13C088E50E94661A5F
:1041A0000FC080E60E94661A0BC088E60E94661A5D
:1041B00007C080E70E94661A03C088E70E94661A5B
:1041C0001A8219820FC029813A818D819E81FC015A
:1041D000E20FF31F80810E94B11C89819A810196B0
:1041E0009A83898389819A818830910564F301C01B
:1041F0001B828B8128960FB6F894DEBF0FBECDBF11
:10420000CF91DF910895DF93CF93CDB7DEB72E978F
:104210000FB6F894DEBF0FBECDBF8CE10E94661AC8
:1042200080E090E0A8ECB2E48B879C87AD87BE87E6
:104230006B857C858D859E8520E030E04AEF54E4D7
:104240000E941F02DC01CB018F839887A987BA8760
:104250006F81788589859A8520E030E040E85FE3CA
:104260000E94790388232CF481E090E09E838D8363
:104270003FC06F81788589859A8520E03FEF4FE7C1
:1042800057E40E94190318164CF56B857C858D85C3
:104290009E8520E030E040E251E40E941F02DC01F4
:1042A000CB01BC01CD010E944900DC01CB019E8302
:1042B0008D830FC088EC90E09C838B838B819C81E5
:1042C0000197F1F79C838B838D819E8101979E835B
:1042D0008D838D819E81009769F714C06F817885E9
:1042E00089859A850E944900DC01CB019E838D83DC
:1042F0008D819E819A83898389819A810197F1F7C3
:104300009A8389832E960FB6F894DEBF0FBECDBF79
:10431000CF91DF910895DF93CF93CDB7DEB72E977E
:104320000FB6F894DEBF0FBECDBF88E10E94661ABB
:1043300080E090E0A8ECB2E48B879C87AD87BE87D5
:104340006B857C858D859E8520E030E04AEF54E4C6
:104350000E941F02DC01CB018F839887A987BA874F
:104360006F81788589859A8520E030E040E85FE3B9
:104370000E94790388232CF481E090E09E838D8352
:104380003FC06F81788589859A8520E03FEF4FE7B0
:1043900057E40E94190318164CF56B857C858D85B2
:1043A0009E8520E030E040E251E40E941F02DC01E3
:1043B000CB01BC01CD010E944900DC01CB019E83F1
:1043C0008D830FC088EC90E09C838B838B819C81D4
:1043D0000197F1F79C838B838D819E8101979E834A
:1043E0008D838D819E81009769F714C06F817885D8
:1043F00089859A850E944900DC01CB019E838D83CB
:104400008D819E819A83898389819A810197F1F7B1
:104410009A8389832E960FB6F894DEBF0FBECDBF68
:10442000CF91DF910895DF93CF93CDB7DEB7649737
:104430000FB6F894DEBF0FBECDBF1F86188A198A4B
:104440001A8A0E94E6060E94A3050E94F60C80E6E6
:1044500090E00E94FC1E82E060E00E94A51F83E7BE
:1044600090E00E94FC1E9E012D5E3F4F80E0B9014E
:104470000E94E2058B899C89CC01A0E0B0E028E88D
:1044800033E140E050E0BC01CD010E94EB22DC01B1
:10449000CB01072E7AE0B695A795979587957A95E3
:1044A000D1F7702D8F87988BA98BBA8B81E06AE04A
:1044B0000E94A51F8F859889A989BA89BC01CD0161
:1044C0000E94251F82E067E00E94A51F8F859889C2
:1044D000A989BA892AE030E040E050E0BC01CD0172
:1044E0000E940A23DA01C901BC01CD010E94251FE7
:1044F00080E090E0AAE7B4E48B879C87AD87BE8715
:104500006B857C858D859E8520E030E04AEF54E404
:104510000E941F02DC01CB018F839887A987BA878D
:104520006F81788589859A8520E030E040E85FE3F7
:104530000E94790388232CF481E090E09E838D8390
:104540003FC06F81788589859A8520E03FEF4FE7EE
:1045500057E40E94190318164CF56B857C858D85F0
:104560009E8520E030E040E251E40E941F02DC0121
:10457000CB01BC01CD010E944900DC01CB019E832F
:104580008D830FC088EC90E09C838B838B819C8112
:104590000197F1F79C838B838D819E8101979E8388
:1045A0008D838D819E81009769F75DCF6F817885BE
:1045B00089859A850E944900DC01CB019E838D8309
:1045C0008D819E819A83898389819A810197F1F7F0
:1045D0009A83898348CF629FD001739FF001829FA5
:1045E000E00DF11D649FE00DF11D929FF00D839F82
:1045F000F00D749FF00D659FF00D9927729FB00D1F
:10460000E11DF91F639FB00DE11DF91FBD01CF0131
:1046100011240895A1E21A2EAA1BBB1BFD010DC097
:10462000AA1FBB1FEE1FFF1FA217B307E407F50762
:1046300020F0A21BB30BE40BF50B661F771F881F3E
:10464000991F1A9469F760957095809590959B01D4
:10465000AC01BD01CF0108952F923F924F925F921E
:104660006F927F928F929F92AF92BF92CF92DF9282
:10467000EF92FF920F931F93CF93DF93CDB7DEB7E7
:10468000CA1BDB0B0FB6F894DEBF0FBECDBF09947B
:104690002A88398848885F846E847D848C849B84D2
:1046A000AA84B984C884DF80EE80FD800C811B81E0
:1046B000AA81B981CE0FD11D0FB6F894DEBF0FBE0F
:0A46C000CDBFED010895F894FFCF7F
:1046CA00564F4C54414745203D2020202020202091
:1046DA006D760054454D50203D202020202020207A
:1046EA00274300000000000000000000010204004F
:00000001FF
