:100000000C942A000C943F000C943F000C943F0089
:100010000C943F000C943F000C943F000C943F0064
:100020000C943F000C943F000C943F000C943F0054
:100030000C943F000C943F000C943F000C943F0044
:100040000C943F000C943F000C943F000C943F0034
:100050000C943F0011241FBECFE5D8E0DEBFCDBF1A
:1000600012E0A0E6B0E0EEE2F7E502C005900D92E6
:10007000AE32B107D9F70E94A8180C94952B0C94B6
:100080000000EF92FF920F931F937B018C0120E001
:1000900030E040E05FE40E94ED0388238CF0C8016B
:1000A000B70120E030E040E05FE40E94B9010E9427
:1000B0004D049B01AC01205030404040504806C0E8
:1000C000C801B7010E944D049B01AC01B901CA01EE
:1000D0001F910F91FF90EF900895A0E0B0E0E3E74B
:1000E000F0E00C945E2BDC012B01FA019C91923024
:1000F00008F439C1EB018881823008F433C19430AF
:1001000069F4843009F02FC111969C91119789816F
:10011000981709F428C1ADE0B2E025C1843009F494
:1001200021C18230A9F4923009F01DC19A01AD01BC
:1001300088E0EA010990AE01E90109929E0181502F
:10014000C1F7E201898111969C918923818308C1BD
:10015000923009F407C112962D903C901397EB0151
:100160008A819B811496AD90BD90CD90DC901797BD
:10017000EC80FD800E811F819101281B390BB90194
:1001800037FF04C066277727621B730B6032710547
:100190000CF061C0121613066CF537014801062EEB
:1001A00004C096948794779467940A94D2F721E0D8
:1001B00030E040E050E004C0220F331F441F551FC1
:1001C0006A95D2F721503040404050402E213F21C7
:1001D00040235123211531054105510521F021E02E
:1001E00030E040E050E079018A01E628F72808294C
:1001F00019293CC0232BD1F1260E371E35014601AB
:10020000062E04C096948794779467940A94D2F744
:1002100021E030E040E050E004C0220F331F441FD3
:10022000551F6A95D2F721503040404050402A2156
:100230003B214C215D21211531054105510521F05E
:1002400021E030E040E050E059016A01A628B728DB
:10025000C828D9280BC0821593052CF01C01AA24AC
:10026000BB24650103C0EE24FF24870111969C91F5
:10027000D20111968C91981709F445C0992339F051
:10028000A80197012A193B094C095D0906C0A6017E
:1002900095012E193F09400B510B57FD08C01182E3
:1002A0003382228224833583468357831DC081E0B5
:1002B00081833382228288279927DC01821B930B5A
:1002C000A40BB50B84839583A683B7830DC0220F3F
:1002D000331F441F551F24833583468357838281F0
:1002E000938101979383828324813581468157814D
:1002F000DA01C9010197A109B1098F5F9F4FAF4F83
:10030000BF4328F30BC0918333822282EA0CFB1C8B
:100310000C1D1D1DE482F5820683178383E0808314
:10032000248135814681578157FF1AC0C901AA2708
:1003300097FDA095BA2F81709070A070B0705695FF
:10034000479537952795822B932BA42BB52B848328
:100350009583A683B7838281938101969383828359
:10036000DF0101C0D201CD01CDB7DEB7E2E10C94CF
:100370007A2BA0E2B0E0EFEBF1E00C946A2B6983FA
:100380007A838B839C832D833E834F835887E9E058
:10039000EE2EF12CEC0EFD1ECE010196B7010E944F
:1003A00076058E010F5E1F4FCE010596B8010E94A3
:1003B00076058A8991E089278A8BC701B801AE0149
:1003C000475E5F4F0E946D000E94A104A096E6E088
:1003D0000C94862BA0E2B0E0E0EFF1E00C946A2BE5
:1003E00069837A838B839C832D833E834F835887D5
:1003F000F9E0EF2EF12CEC0EFD1ECE010196B701B7
:100400000E9476058E010F5E1F4FCE010596B80142
:100410000E947605C701B801AE01475E5F4F0E949A
:100420006D000E94A104A096E6E00C94862BA0E249
:10043000B0E0EDE1F2E00C945E2B69837A838B836C
:100440009C832D833E834F835887CE010196BE0146
:10045000675F7F4F0E947605CE010596BE016F5EF5
:100460007F4F0E9476059985923088F08989823085
:10047000C8F0943019F4823051F404C0843029F467
:10048000923081F48DE092E0C6C0923049F420E0D1
:100490009A858A89981321E02A87CE010996BBC0E4
:1004A000823049F420E09A858A89981321E02A8BCA
:1004B000CE014196B0C02D843E844F8458886D880B
:1004C0007E888F88988CEE24FF248701AA24BB2481
:1004D000650140E050E060E070E0E0E0F0E0C10184
:1004E00081709070892BE9F0E60CF71C081D191D2E
:1004F0009A01AB012A0D3B1D4C1D5D1D80E090E073
:10050000A0E0B0E0E614F7040805190520F481E046
:1005100090E0A0E0B0E0BA01A901480F591F6A1F9E
:100520007B1FAA0CBB1CCC1CDD1C97FE08C081E005
:1005300090E0A0E0B0E0A82AB92ACA2ADB2A3196C6
:10054000E032F10549F0660C771C881C991C569422
:10055000479437942794C3CFFA85EA892B893C893D
:100560008B859C85280F391F2E5F3F4F17C0CA010E
:1005700081709070892B61F016950795F794E79438
:1005800080E090E0A0E0B0E8E82AF92A0A2B1B2BD3
:1005900076956795579547952F5F3F4F77FDE7CF46
:1005A0000CC0440F551F661F771F17FD4160EE0CEE
:1005B000FF1C001F111F21503040403090E05907B0
:1005C00090E0690790E4790760F32B8F3C8FDB01A3
:1005D000CA018F779070A070B07080349105A1052A
:1005E000B10561F447FD0AC0E114F10401051105EC
:1005F00029F0405C5F4F6F4F7F4F40781A8EFE1797
:1006000011F081E08A8F4D8F5E8F6F8F78A383E02A
:10061000898FCE0149960E94A104A096E2E10C9434
:100620007A2BA8E1B0E0E7E1F3E00C94662B698354
:100630007A838B839C832D833E834F835887B9E0D5
:10064000EB2EF12CEC0EFD1ECE010196B7010E949F
:1006500076058E010F5E1F4FCE010596B8010E94F0
:1006600076052985223008F47EC03989323010F4AD
:10067000B8017CC08A859A8989278A87243011F03D
:10068000223031F4231709F06EC06DE072E06EC0C5
:10069000343039F41D861E861F86188A1C861B86F8
:1006A00004C0323021F484E08987B7015FC02B8514
:1006B0003C858B899C89281B390B3C872B87ED84D3
:1006C000FE840F851889AD88BE88CF88D88CEA143F
:1006D000FB040C051D0540F4EE0CFF1C001F111F50
:1006E000215030403C872B8720E030E040E050E054
:1006F00080E090E0A0E0B0E460E070E0EA14FB0489
:100700000C051D0540F0282B392B4A2B5B2BEA18D2
:10071000FB080C091D09B695A79597958795EE0CD2
:10072000FF1C001F111F6F5F7F4F6F31710531F785
:10073000DA01C9018F779070A070B0708034910594
:10074000A105B10561F427FD0AC0E114F10401051A
:10075000110529F0205C3F4F4F4F5F4F20782D87C8
:100760003E874F87588BBE01675F7F4FCB010E944A
:10077000A1046896EAE00C94822BA8E1B0E0E3ECD7
:10078000F3E00C946A2B69837A838B839C832D839B
:100790003E834F83588789E0E82EF12CEC0EFD1E36
:1007A000CE010196B7010E9476058E010F5E1F4FA4
:1007B000CE010596B8010E9476058985823040F009
:1007C0008989823028F0C701B8010E94EE0501C076
:1007D0008FEF6896E6E00C94862BA8E1B0E0E3EF9B
:1007E000F3E00C946A2B69837A838B839C832D833B
:1007F0003E834F83588789E0E82EF12CEC0EFD1ED6
:10080000CE010196B7010E9476058E010F5E1F4F43
:10081000CE010596B8010E9476058985823040F0A8
:100820008989823028F0C701B8010E94EE0501C015
:100830008FEF6896E6E00C94862BA8E1B0E0E3E247
:10084000F4E00C946A2B69837A838B839C832D83D9
:100850003E834F83588789E0E82EF12CEC0EFD1E75
:10086000CE010196B7010E9476058E010F5E1F4FE3
:10087000CE010596B8010E9476058985823040F048
:100880008989823028F0C701B8010E94EE0501C0B5
:1008900081E06896E6E00C94862BACE0B0E0E3E5FE
:1008A000F4E00C946E2B69837A838B839C83CE0156
:1008B0000196BE016B5F7F4F0E9476058D8182306D
:1008C00061F1823050F1843021F48E81882351F11E
:1008D0002EC02F81388537FD20C06E812F31310524
:1008E0001CF06623F9F023C08EE190E0821B930B8D
:1008F00029853A854B855C8504C056954795379583
:1009000027958A95D2F76623B1F05095409530959A
:1009100021953F4F4F4F5F4F0EC020E030E040E049
:1009200050E009C02FEF3FEF4FEF5FE704C020E03A
:1009300030E040E050E8B901CA012C96E2E00C94A6
:100940008A2BDF92EF92FF920F931F93FC01E480BA
:10095000F58006811781D1808081823048F480E063
:1009600090E0A0E1B0E0E82AF92A0A2B1B2BA5C0F1
:10097000843009F49FC0823021F4EE24FF248701E3
:1009800005C0E114F1040105110519F4E0E0F0E0FF
:1009900096C0628173819FEF623879070CF05BC06B
:1009A00022E83FEF261B370B2A3131052CF020E0DF
:1009B00030E040E050E02AC0B801A701022E04C098
:1009C00076956795579547950A94D2F781E090E020
:1009D000A0E0B0E004C0880F991FAA1FBB1F2A9592
:1009E000D2F70197A109B1098E219F21A023B1233C
:1009F0000097A105B10521F081E090E0A0E0B0E012
:100A00009A01AB01282B392B4A2B5B2BDA01C90148
:100A10008F779070A070B07080349105A105B105FA
:100A200039F427FF09C0205C3F4F4F4F5F4F04C090
:100A3000215C3F4F4F4F5F4FE0E0F0E02030A0E0FF
:100A40003A07A0E04A07A0E45A0710F0E1E0F0E01E
:100A500079018A0127C06038710564F5FB01E1580E
:100A6000FF4FD801C7018F779070A070B0708034AD
:100A70009105A105B10539F4E7FE0DC080E490E0D1
:100A8000A0E0B0E004C08FE390E0A0E0B0E0E80EAA
:100A9000F91E0A1F1B1F17FF05C016950795F7942F
:100AA000E794319687E016950795F794E7948A9531
:100AB000D1F705C0EE24FF248701EFEFF0E06E2FA1
:100AC000679566276795902F9F77D794DD24D794F5
:100AD0008E2F8695492F462B582F5D29B701CA01C5
:100AE0001F910F91FF90EF90DF900895FC01DB01C3
:100AF000408151812281622F6F7770E0221F22276F
:100B0000221F9381892F880F822B282F30E0991F75
:100B10009927991F11969C93119721153105A9F5D5
:100B2000411551056105710511F482E037C082E875
:100B30009FEF13969C938E9312979A01AB0167E0F7
:100B4000220F331F441F551F6A95D1F783E08C9302
:100B50000DC0220F331F441F551F12968D919C917B
:100B60001397019713969C938E931297203080E0F1
:100B7000380780E0480780E4580758F314962D930F
:100B80003D934D935C93179708952F3F310579F46A
:100B9000411551056105710519F484E08C930895A0
:100BA00064FF03C081E08C9312C01C9210C02F57C9
:100BB000304013963C932E93129783E08C9387E0FA
:100BC000440F551F661F771F8A95D1F770641496DE
:100BD0004D935D936D937C93179708951F93DC015C
:100BE000FB019C91923008F447C08081823008F468
:100BF00043C0943051F411961C91843099F5818151
:100C0000682F70E0611B71093FC0843021F0923081
:100C100031F48230B9F18181882389F12DC0119698
:100C20001C9111978230F1F081811817D9F4129636
:100C30002D913C911397828193818217930794F0B1
:100C400028173907BCF014968D919D910D90BC9199
:100C5000A02D2481358146815781281739074A07FD
:100C60005B0718F4112341F00AC082179307A40709
:100C7000B50740F4112319F061E070E005C06FEF93
:100C80007FEF02C060E070E0CB011F910895DF9319
:100C9000CF93CDB7DEB7EAE3F0E08FEF8083E7E3F1
:100CA000F0E087EB8083E4E3F0E08FE18083E1E331
:100CB000F0E08FE08083EBE3F0E01082E8E3F0E027
:100CC0001082E5E3F0E01082E2E3F0E08FEF808352
:100CD000CF91DF910895DF93CF93CDB7DEB72E97F5
:100CE0000FB6F894DEBF0FBECDBF8A836B834C83F3
:100CF00081E089838A81843008F00CC18B8188303F
:100D000008F008C18C81813021F08C81882309F0A2
:100D100001C18A81282F30E03E872D878D859E85F1
:100D20008130910509F44FC02D853E852230310573
:100D30002CF48D859E85009771F0EDC02D853E8544
:100D40002230310509F477C08D859E858330910569
:100D500009F4A9C0E0C08C81282F30E03C872B87A4
:100D60008B859C850097D1F02B853C852130310502
:100D700009F0D1C0AAE3B0E0EAE3F0E08081482FB7
:100D80008B81282F30E081E090E0022E02C0880F96
:100D9000991F0A94E2F7842B8C93BDC0AAE3B0E0BC
:100DA000EAE3F0E08081482F8B81282F30E081E05A
:100DB00090E0022E02C0880F991F0A94E2F78095F6
:100DC00084238C93A8C08C81282F30E03A87298710
:100DD00089859A850097D1F029853A85213031059A
:100DE00009F099C0A7E3B0E0E7E3F0E08081482F85
:100DF0008B81282F30E081E090E0022E02C0880F26
:100E0000991F0A94E2F7842B8C9385C0A7E3B0E086
:100E1000E7E3F0E08081482F8B81282F30E081E0EC
:100E200090E0022E02C0880F991F0A94E2F7809585
:100E300084238C9370C08C81282F30E038872F83D7
:100E40008F8198850097D1F02F8138852130310529
:100E500009F061C0A4E3B0E0E4E3F0E08081482F52
:100E60008B81282F30E081E090E0022E02C0880FB5
:100E7000991F0A94E2F7842B8C934DC0A4E3B0E051
:100E8000E4E3F0E08081482F8B81282F30E081E07F
:100E900090E0022E02C0880F991F0A94E2F7809515
:100EA00084238C9338C08C81282F30E03E832D839F
:100EB0008D819E810097C9F02D813E8121303105C1
:100EC00051F5A1E3B0E0E1E3F0E08081482F8B81B0
:100ED000282F30E081E090E0022E02C0880F991F99
:100EE0000A94E2F7842B8C9316C0A1E3B0E0E1E30F
:100EF000F0E08081482F8B81282F30E081E090E066
:100F0000022E02C0880F991F0A94E2F7809584236D
:100F10008C9301C0198289812E960FB6F894DEBF9A
:100F20000FBECDBFCF91DF910895DF93CF93CDB7A3
:100F3000DEB72E970FB6F894DEBF0FBECDBF8A8303
:100F40006B834C8381E089838B81883008F008C1F2
:100F50008A81282F30E03E872D878D859E858130C0
:100F6000910509F450C02D853E85223031052CF4C1
:100F70008D859E85009771F0F1C02D853E852230CC
:100F8000310509F479C08D859E858330910509F47A
:100F9000ACC0E4C08C81282F30E03C872B878B8548
:100FA0009C850097C9F02B853C852130310549F59A
:100FB000ABE3B0E0EBE3F0E08081482F8B81282F9A
:100FC00030E081E090E0022E02C0880F991F0A9461
:100FD000E2F7842B8C93C5C0ABE3B0E0EBE3F0E029
:100FE0008081482F8B81282F30E081E090E0022E15
:100FF00002C0880F991F0A94E2F7809584238C938E
:10100000B0C01982AEC08C81282F30E03A87298782
:1010100089859A850097C9F029853A85213031055F
:1010200049F5A8E3B0E0E8E3F0E08081482F8B8148
:10103000282F30E081E090E0022E02C0880F991F37
:101040000A94E2F7842B8C938CC0A8E3B0E0E8E329
:10105000F0E08081482F8B81282F30E081E090E004
:10106000022E02C0880F991F0A94E2F7809584230C
:101070008C9377C0198275C08C81282F30E0388717
:101080002F838F8198850097C9F02F813885213073
:10109000310549F5A5E3B0E0E5E3F0E08081482FB4
:1010A0008B81282F30E081E090E0022E02C0880F73
:1010B000991F0A94E2F7842B8C9353C0A5E3B0E008
:1010C000E5E3F0E08081482F8B81282F30E081E03C
:1010D00090E0022E02C0880F991F0A94E2F78095D3
:1010E00084238C933EC019823CC08C81282F30E031
:1010F0003E832D838D819E810097C9F02D813E8195
:101100002130310549F5A2E3B0E0E2E3F0E080816F
:10111000482F8B81282F30E081E090E0022E02C022
:10112000880F991F0A94E2F7842B8C931AC0A2E3CC
:10113000B0E0E2E3F0E08081482F8B81282F30E09F
:1011400081E090E0022E02C0880F991F0A94E2F716
:10115000809584238C9305C0198203C0198201C035
:10116000198289812E960FB6F894DEBF0FBECDBFCF
:10117000CF91DF910895DF93CF93CDB7DEB7289756
:101180000FB6F894DEBF0FBECDBF8B836C835E833A
:101190004D8381E08A838B81843008F09FC08C81ED
:1011A000883008F09BC08D819E81009709F496C01D
:1011B0008B81282F30E038872F834F81588541302D
:1011C0005105A9F18F8198858230910534F42F81E2
:1011D00038852115310571F082C04F815885423024
:1011E000510509F441C08F8198858330910509F438
:1011F00058C075C0E9E3F0E08081282F30E08C8191
:10120000882F90E0A90102C0559547958A95E2F78D
:10121000CA01817089838981882321F4ED81FE814F
:1012200010825DC0ED81FE8181E0808358C0E6E3DD
:10123000F0E08081282F30E08C81882F90E0A90198
:1012400002C0559547958A95E2F7CA018170898356
:101250008981882321F4ED81FE81108240C0ED81D7
:10126000FE8181E080833BC0E3E3F0E08081282FB2
:1012700030E08C81882F90E0A90102C055954795F8
:101280008A95E2F7CA01817089838981882321F4D4
:10129000ED81FE81108223C0ED81FE8181E080839B
:1012A0001EC0E0E3F0E08081282F30E08C81882FA1
:1012B00090E0A90102C0559547958A95E2F7CA01C9
:1012C000817089838981882321F4ED81FE811082D8
:1012D00006C0ED81FE8181E0808301C01A828A818F
:1012E00028960FB6F894DEBF0FBECDBFCF91DF9129
:1012F0000895DF93CF93CDB7DEB72D970FB6F8944F
:10130000DEBF0FBECDBF8A836B8381E089838B8173
:10131000813021F08B81882309F07FC08A81282FBA
:1013200030E03D872C878C859D858130910571F15A
:101330002C853D85223031052CF48C859D850097C8
:1013400069F069C02C853D8522303105B1F18C856D
:101350009D858330910509F447C05DC08B81282F9E
:1013600030E03B872A878A859B85009759F02A853C
:101370003B852130310509F051C0EAE3F0E08FEF01
:1013800080834CC0EAE3F0E0108248C08B81282FB4
:1013900030E03987288788859985009751F028851E
:1013A000398521303105D1F5E7E3F0E08FEF808317
:1013B00035C0E7E3F0E0108231C08B81282F30E0A8
:1013C0003F832E838E819F81009751F02E813F8134
:1013D0002130310519F5E4E3F0E08FEF80831EC082
:1013E000E4E3F0E010821AC08B81282F30E03D83C7
:1013F0002C838C819D81009751F02C813D8121307F
:10140000310561F4E1E3F0E08FEF808307C0E1E3B1
:10141000F0E0108203C0198201C0198289812D96E3
:101420000FB6F894DEBF0FBECDBFCF91DF91089508
:10143000DF93CF9300D000D00F92CDB7DEB78A8371
:101440006B8381E089838A81282F30E03D832C8360
:101450008C819D8181309105D1F02C813D8122309C
:1014600031052CF48C819D81009761F01FC02C8187
:101470003D812230310581F08C819D818330910541
:1014800081F014C0EBE3F0E08B81808310C0E8E3CF
:10149000F0E08B8180830BC0E5E3F0E08B818083FB
:1014A00006C0E2E3F0E08B81808301C0198289816C
:1014B0000F900F900F900F900F90CF91DF910895A4
:1014C000DF93CF9300D000D000D0CDB7DEB78A83B2
:1014D0007C836B8381E089838B819C810097E9F118
:1014E0008A81282F30E03E832D838D819E8181303B
:1014F0009105E1F02D813E81223031052CF48D8162
:101500009E81009761F027C02D813E8122303105F8
:10151000A1F08D819E8183309105B1F01CC0E9E37B
:10152000F0E08081EB81FC81808318C0E6E3F0E08D
:101530008081EB81FC81808311C0E3E3F0E0808156
:10154000EB81FC8180830AC0E0E3F0E08081EB81E5
:10155000FC81808303C0198201C01982898126968B
:101560000FB6F894DEBF0FBECDBFCF91DF910895C7
:10157000DF93CF9300D000D00F92CDB7DEB78A8330
:101580006B8381E089838A81843008F073C08B810A
:10159000883008F06FC08A81282F30E03D832C838B
:1015A0008C819D818130910549F12C813D812230D2
:1015B00031052CF48C819D81009761F05CC02C81F9
:1015C0003D812230310571F18C819D8183309105FF
:1015D000E9F151C0ABE3B0E0EBE3F0E08081482FEC
:1015E0008B81282F30E081E090E0022E02C0880F2E
:1015F000991F0A94E2F784278C933DC0A8E3B0E0DA
:10160000E8E3F0E08081482F8B81282F30E081E0F3
:1016100090E0022E02C0880F991F0A94E2F78427F7
:101620008C9329C0A5E3B0E0E5E3F0E08081482F8A
:101630008B81282F30E081E090E0022E02C0880FDD
:10164000991F0A94E2F784278C9315C0A2E3B0E0B7
:10165000E2E3F0E08081482F8B81282F30E081E0A9
:1016600090E0022E02C0880F991F0A94E2F78427A7
:101670008C9301C0198289810F900F900F900F9069
:101680000F90CF91DF910895DF93CF9300D000D0DA
:101690000F92CDB7DEB78A836B838B81807F8B837C
:1016A00081E089838A81843008F05FC08A81282F95
:1016B00030E03D832C838C819D818130910529F11F
:1016C0002C813D81223031052CF48C819D81009745
:1016D00061F04CC02C813D812230310531F18C818B
:1016E0009D818330910589F141C0ABE3B0E0EBE32C
:1016F000F0E080818F708C93ABE3B0E0EBE3F0E03F
:1017000090818B81892B8C9331C0A8E3B0E0E8E312
:10171000F0E080818F708C93A8E3B0E0E8E3F0E024
:1017200090818B81892B8C9321C0A5E3B0E0E5E308
:10173000F0E080818F708C93A5E3B0E0E5E3F0E00A
:1017400090818B81892B8C9311C0A2E3B0E0E2E3FE
:10175000F0E080818F708C93A5E3B0E0E5E3F0E0EA
:1017600090818B81892B8C9301C0198289810F9084
:101770000F900F900F900F90CF91DF910895DF930E
:10178000CF9300D000D00F92CDB7DEB78A836B83A2
:101790008B818F708B8381E089838A81843008F00C
:1017A0005FC08A81282F30E03D832C838C819D810E
:1017B0008130910529F12C813D81223031052CF4B5
:1017C0008C819D81009761F04CC02C813D8122303D
:1017D000310531F18C819D818330910589F141C0C2
:1017E000ABE3B0E0EBE3F0E08081807F8C93ABE390
:1017F000B0E0EBE3F0E090818B81892B8C9331C0DA
:10180000A8E3B0E0E8E3F0E08081807F8C93A8E378
:10181000B0E0E8E3F0E090818B81892B8C9321C0CC
:10182000A5E3B0E0E5E3F0E08081807F8C93A5E361
:10183000B0E0E5E3F0E090818B81892B8C9311C0BF
:10184000A2E3B0E0E2E3F0E08081807F8C93A2E34A
:10185000B0E0E2E3F0E090818B81892B8C9301C0B2
:10186000198289810F900F900F900F900F90CF9158
:10187000DF910895DF93CF93CDB7DEB763970FB6AF
:10188000F894DEBF0FBECDBF9A8B898B6B8B81E046
:10189000888B81E08F870E9453178F878F850E94E6
:1018A000BB0D888B89899A89892F992783708065D8
:1018B0000E94C3178F878F850E94BB0D888B8989F3
:1018C0000E9447188F878F850E94BB0D888B8B895C
:1018D0000E9447188F878F850E94BB0D888B0E94BE
:1018E000A91780E090E0A0EAB1E48B879C87AD87E0
:1018F000BE876B857C858D859E8520E030E04AEF34
:1019000054E40E941702DC01CB018F839887A987DA
:10191000BA876F81788589859A8520E030E040E834
:101920005FE30E941D0488232CF481E090E09E83F5
:101930008D833FC06F81788589859A8520E03FEF50
:101940004FE757E40E94BD0318164CF56B857C8564
:101950008D859E8520E030E040E251E40E94170230
:10196000DC01CB01BC01CD010E944100DC01CB01B7
:101970009E838D830FC088EC90E09C838B838B814A
:101980009C810197F1F79C838B838D819E810197C8
:101990009E838D838D819E81009769F714C06F812E
:1019A000788589859A850E944100DC01CB019E8360
:1019B0008D838D819E819A83898389819A81019704
:1019C000F1F79A838983888963960FB6F894DEBF0E
:1019D0000FBECDBFCF91DF910895DF93CF93CDB7E9
:1019E000DEB764970FB6F894DEBF0FBECDBF9A8BFB
:1019F000898B7C8B6B8B81E0888B81E08F878B89D7
:101A00009C89009709F4ACC00E9453178F878F857B
:101A10000E94BB0D888B89899A89892F99278065B7
:101A20000E94C3178F878F850E94BB0D888B898981
:101A30000E9447188F878F850E94BB0D888B0E945C
:101A40007E178F878F850E94BB0D888B89899A8925
:101A5000892F992780650E9405188F878F850E949E
:101A6000BB0D888B8B899C890E9471188F878F850D
:101A70000E94BB0D888B0E94A91780E090E0A0EA2D
:101A8000B1E48B879C87AD87BE876B857C858D8510
:101A90009E8520E030E04AEF54E40E941702DC010A
:101AA000CB018F839887A987BA876F8178858985CD
:101AB0009A8520E030E040E85FE30E941D0488231F
:101AC0002CF481E090E09E838D833FC06F81788508
:101AD00089859A8520E03FEF4FE757E40E94BD03D8
:101AE00018164CF56B857C858D859E8520E030E051
:101AF00040E251E40E941702DC01CB01BC01CD01A0
:101B00000E944100DC01CB019E838D830FC088ECD5
:101B100090E09C838B838B819C810197F1F79C8360
:101B20008B838D819E8101979E838D838D819E8184
:101B3000009769F716C06F81788589859A850E941C
:101B40004100DC01CB019E838D838D819E819A8330
:101B5000898389819A810197F1F79A83898301C0EA
:101B6000188A888964960FB6F894DEBF0FBECDBF81
:101B7000CF91DF910895DF93CF9300D0CDB7DEB73B
:101B80008A8381E089838A81813009F01982898181
:101B90000F900F90CF91DF910895DF93CF93CDB742
:101BA000DEB765970FB6F894DEBF0FBECDBF9D8B35
:101BB0008C8B81E08A8B1F868C899D89009709F424
:101BC000F0C0EC89FD898FEF8083198AE5C089898F
:101BD000882F90E0FC01EB5DFD4F908183E0692F41
:101BE00040E00E949507188AC1C08889882F90E03C
:101BF000FC01E75DFD4F90819E012D5E3F4F83E02C
:101C0000692FA9010E94BB088B89882309F0ABC00A
:101C100080E090E0A0EAB1E48B879C87AD87BE8727
:101C20006B857C858D859E8520E030E04AEF54E40D
:101C30000E941702DC01CB018F839887A987BA879E
:101C40006F81788589859A8520E030E040E85FE300
:101C50000E941D0488232CF481E090E09E838D83F4
:101C60003FC06F81788589859A8520E03FEF4FE7F7
:101C700057E40E94BD0318164CF56B857C858D8555
:101C80009E8520E030E040E251E40E941702DC0132
:101C9000CB01BC01CD010E944100DC01CB019E8340
:101CA0008D830FC088EC90E09C838B838B819C811B
:101CB0000197F1F79C838B838D819E8101979E8391
:101CC0008D838D819E81009769F714C06F8178851F
:101CD00089859A850E944100DC01CB019E838D831A
:101CE0008D819E819A83898389819A810197F1F7F9
:101CF0009A8389838889882F90E0FC01E75DFD4FF6
:101D000090819E012D5E3F4F83E0692FA9010E94C3
:101D1000BB080FC08889882F90E0FC01E75DFD4F6C
:101D200090819E012D5E3F4F83E0692FA9010E94A3
:101D3000BB088B89882371F38989482F50E08889F3
:101D4000282F30E0CA01880F991F880F991F820F32
:101D5000931FFC01EB5EFD4F8081EC89FD89808340
:101D600081E08F8707C088898F5F888B888984305E
:101D700008F43BCF8989882F90E0FC01EB5DFD4F93
:101D8000908183E0692F41E00E9495078F85813023
:101D900049F089898F5F898B8989843008F417CF4E
:101DA00001C01A8A8A8965960FB6F894DEBF0FBE05
:101DB000CDBFCF91DF9108950F931F93DF93CF9302
:101DC000CDB7DEB7CC54D0400FB6F894DEBF0FBE0F
:101DD000CDBFFE01E75BFF4F80E090E0ACE0B2E4F6
:101DE00080839183A283B3838E010B5B1F4FFE011F
:101DF000E75BFF4F608171818281938120E030E059
:101E00004AEF54E40E941702DC01CB01F801808301
:101E10009183A283B383FE01EB5BFF4F60817181ED
:101E20008281938120E030E040E85FE30E941D045E
:101E3000882344F4FE01ED5BFF4F81E090E0918345
:101E4000808364C0FE01EB5BFF4F60817181828102
:101E5000938120E03FEF4FE757E40E94BD0318163F
:101E60000CF043C0FE01E75BFF4F6081718182810E
:101E7000938120E030E040E251E40E941702DC014F
:101E8000CB018E010D5B1F4FBC01CD010E944100B3
:101E9000DC01CB01F801918380831FC0FE01EF5B61
:101EA000FF4F88EC90E091838083FE01EF5BFF4F52
:101EB000808191810197F1F7FE01EF5BFF4F9183E4
:101EC0008083DE01AD5BBF4FFE01ED5BFF4F808184
:101ED0009181019711969C938E93FE01ED5BFF4FCC
:101EE000808191810097D1F624C08E010D5B1F4F38
:101EF000FE01EB5BFF4F60817181828193810E94C3
:101F00004100DC01CB01F80191838083FE01ED5B90
:101F1000FF4F80819181FE01FF9691838083FE01B6
:101F2000FF96808191810197F1F7FE01FF969183E1
:101F3000808388E30E949F1180E090E0A0E2B2E4F9
:101F40008BAF9CAFADAFBEAF6BAD7CAD8DAD9EAD7D
:101F50002BEA3AEA4AE250E40E941702DC01CB0184
:101F60008FAB98AFA9AFBAAF6FA978AD89AD9AAD75
:101F700020E030E040E85FE30E941D0488231CF469
:101F800081E08EAB91C06FA978AD89AD9AAD20E0AC
:101F900030E04FE753E40E94BD0318160CF07BC0FD
:101FA0006BAD7CAD8DAD9EAD20E030E04AE754E4F2
:101FB0000E941103DC01CB018AAB9BABACABBDAB88
:101FC0006AA97BA98CA99DA920E030E04AEF54E4DE
:101FD0000E941702DC01CB018EA79FA7A8ABB9AB6B
:101FE0006EA57FA588A999A920E030E040E85FE3CD
:101FF0000E941D0488232CF481E090E09DA78CA70B
:102000003FC06EA57FA588A999A920E03FEF4FE7C3
:1020100057E40E94BD0318164CF56AA97BA98CA948
:102020009DA920E030E040E251E40E941702DC016B
:10203000CB01BC01CD010E944100DC01CB019DA779
:102040008CA70FC088EC90E09BA78AA78AA59BA5C8
:102050000197F1F79BA78AA78CA59DA501979DA73E
:102060008CA78CA59DA5009769F724C06EA57FA5B8
:1020700088A999A90E944100DC01CB019DA78CA7EA
:102080008CA59DA599A788A788A599A50197F1F783
:1020900099A788A70FC06FA978AD89AD9AAD0E94A6
:1020A0004100DC01CB018EAB8EA98FA38FA18A9555
:1020B000F1F78FA38CE00E949F1180E090E0A0E2F6
:1020C000B2E48BA39CA3ADA3BEA36BA17CA18DA105
:1020D0009EA12BEA3AEA4AE250E40E941702DC0190
:1020E000CB018F8F98A3A9A3BAA36F8D78A189A1E3
:1020F0009AA120E030E040E85FE30E941D048823BD
:102100001CF481E08E8F91C06F8D78A189A19AA176
:1021100020E030E04FE753E40E94BD0318160CF0B6
:102120007BC06BA17CA18DA19EA120E030E04AE79D
:1021300054E40E941103DC01CB018A8F9B8FAC8F8A
:10214000BD8F6A8D7B8D8C8D9D8D20E030E04AEFB8
:1021500054E40E941702DC01CB018E8B9F8BA88F69
:10216000B98F6E897F89888D998D20E030E040E8B5
:102170005FE30E941D0488232CF481E090E09D8B96
:102180008C8B3FC06E897F89888D998D20E03FEFD1
:102190004FE757E40E94BD0318164CF56A8D7B8DFE
:1021A0008C8D9D8D20E030E040E251E40E941702CA
:1021B000DC01CB01BC01CD010E944100DC01CB015F
:1021C0009D8B8C8B0FC088EC90E09B8B8A8B8A89CF
:1021D0009B890197F1F79B8B8A8B8C899D8901974D
:1021E0009D8B8C8B8C899D89009769F724C06E89A3
:1021F0007F89888D998D0E944100DC01CB019D8BE8
:102200008C8B8C899D89998B888B8889998901977A
:10221000F1F7998B888B0FC06F8D78A189A19AA156
:102220000E944100DC01CB018E8F8E8D8F878F85C0
:102230008A95F1F78F8781E00E949F1180E090E0FE
:10224000A0E0B0E48B879C87AD87BE876B857C85DB
:102250008D859E8520E030E04AEF54E40E9417020D
:10226000DC01CB018F839887A987BA876F81788536
:1022700089859A8520E030E040E85FE30E941D04F4
:1022800088232CF481E090E09E838D833FC06F8192
:10229000788589859A8520E03FEF4FE757E40E94D3
:1022A000BD0318164CF56B857C858D859E8520E0D9
:1022B00030E040E251E40E941702DC01CB01BC0196
:1022C000CD010E944100DC01CB019E838D830FC0B4
:1022D00088EC90E09C838B838B819C810197F1F744
:1022E0009C838B838D819E8101979E838D838D81BD
:1022F0009E81009769F714C06F81788589859A85DA
:102300000E944100DC01CB019E838D838D819E81E3
:102310009A83898389819A810197F1F79A838983C6
:1023200086E00E949F11C45BDF4F0FB6F894DEBFBA
:102330000FBECDBFCF91DF911F910F910895DF9315
:10234000CF93CDB7DEB769970FB6F894DEBF0FBE57
:10235000CDBF898F81E060E040E00E94950781E079
:1023600061E040E00E94950780E0698D0E94180AB4
:1023700081E062E041E00E94950780E090E0A0E803
:10238000BFE38D8B9E8BAF8BB88F6D897E898F89D4
:10239000988D2BEA3AEA4AE250E40E941702DC01E7
:1023A000CB01898B9A8BAB8BBC8B69897A898B89A2
:1023B0009C8920E030E040E85FE30E941D04882310
:1023C0001CF481E0888B91C069897A898B899C890A
:1023D00020E030E04FE753E40E94BD0318160CF0F4
:1023E0007BC06D897E898F89988D20E030E04AE737
:1023F00054E40E941103DC01CB018C879D87AE87DA
:10240000BF876C857D858E859F8520E030E04AEF13
:1024100054E40E941702DC01CB0188879987AA87C0
:10242000BB87688579858A859B8520E030E040E818
:102430005FE30E941D0488232CF481E090E09F83D9
:102440008E833FC0688579858A859B8520E03FEF34
:102450004FE757E40E94BD0318164CF56C857D8547
:102460008E859F8520E030E040E251E40E94170213
:10247000DC01CB01BC01CD010E944100DC01CB019C
:102480009F838E830FC088EC90E09D838C838C812A
:102490009D810197F1F79D838C838E819F810197A8
:1024A0009F838E838E819F81009769F724C0688502
:1024B00079858A859B850E944100DC01CB019F8341
:1024C0008E838E819F819B838A838A819B810197E2
:1024D000F1F79B838A830FC069897A898B899C89EC
:1024E0000E944100DC01CB01888B88898983898126
:1024F0008A95F1F7898381E062E040E00E949507C8
:1025000069960FB6F894DEBF0FBECDBFCF91DF91B5
:102510000895DF93CF93CDB7DEB769970FB6F894E0
:10252000DEBF0FBECDBF898F81E060E041E00E9439
:10253000950781E061E040E00E94950780E0698DA9
:102540000E94180A81E062E041E00E94950780E065
:1025500090E0A0E2B1E48D8B9E8BAF8BB88F6D893C
:102560007E898F89988D2BEA3AEA4AE250E40E94EC
:102570001702DC01CB01898B9A8BAB8BBC8B6989F1
:102580007A898B899C8920E030E040E85FE30E94F3
:102590001D0488231CF481E0888B91C069897A89A5
:1025A0008B899C8920E030E04FE753E40E94BD0313
:1025B00018160CF07BC06D897E898F89988D20E07C
:1025C00030E04AE754E40E941103DC01CB018C8720
:1025D0009D87AE87BF876C857D858E859F8520E032
:1025E00030E04AEF54E40E941702DC01CB018887F7
:1025F0009987AA87BB87688579858A859B8520E02E
:1026000030E040E85FE30E941D0488232CF481E061
:1026100090E09F838E833FC0688579858A859B85FE
:1026200020E03FEF4FE757E40E94BD0318164CF53A
:102630006C857D858E859F8520E030E040E251E409
:102640000E941702DC01CB01BC01CD010E944100B8
:10265000DC01CB019F838E830FC088EC90E09D83CB
:102660008C838C819D810197F1F79D838C838E8172
:102670009F8101979F838E838E819F81009769F749
:1026800024C0688579858A859B850E944100DC018C
:10269000CB019F838E838E819F819B838A838A81D6
:1026A0009B810197F1F79B838A830FC069897A899F
:1026B0008B899C890E944100DC01CB01888B888931
:1026C000898389818A95F1F7898381E062E040E01E
:1026D0000E94950769960FB6F894DEBF0FBECDBF76
:1026E000CF91DF910895DF93CF9300D00F92CDB7B4
:1026F000DEB79B838A8319820EC08981282F30E040
:102700008A819B81FC01E20FF31F80810E94891264
:1027100089818F5F89838981282F30E08A819B811D
:10272000FC01E20FF31F8081882339F70F900F908F
:102730000F90CF91DF9108950F931F93DF93CF9365
:10274000CDB7DEB761970FB6F894DEBF0FBECDBF31
:102750006E877F87888B998B8AE0FE013496DF0134
:10276000982F1D929A95E9F71B822DC08B81082F17
:1027700010E08E859F85A889B9892AE030E040E085
:1027800050E0BC01CD010E943C2BDC01CB01282F85
:10279000CE010496FC01E00FF11F20838E859F85FA
:1027A000A889B9892AE030E040E050E0BC01CD01C1
:1027B0000E943C2BDA01C9018E879F87A88BB98BB9
:1027C0008B818F5F8B838E859F85A889B9890097C0
:1027D000A105B10559F68B81882F90E001979A8366
:1027E000898310C029813A81CE010496FC01E20F51
:1027F000F31F8081805D0E94891289819A810197EF
:102800009A83898389819A81992364F761960FB6A7
:10281000F894DEBF0FBECDBFCF91DF911F910F9116
:102820000895DF93CF9300D000D00F92CDB7DEB7DD
:102830008A836B8381E089838B818832E0F48A818B
:10284000282F30E03D832C838C819D818130910540
:1028500031F02C813D812230310531F00AC08B816D
:1028600080580E949F1108C08B8180540E949F1144
:1028700003C0198201C0198289810F900F900F90B7
:102880000F900F90CF91DF910895DF93CF93CDB745
:10289000DEB72E970FB6F894DEBF0FBECDBF81E036
:1028A0000E949F1180E090E0A0E0B0E48B879C87BD
:1028B000AD87BE876B857C858D859E8520E030E069
:1028C0004AEF54E40E941702DC01CB018F83988702
:1028D000A987BA876F81788589859A8520E030E05D
:1028E00040E85FE30E941D0488232CF481E090E01F
:1028F0009E838D833FC06F81788589859A8520E08E
:102900003FEF4FE757E40E94BD0318164CF56B8567
:102910007C858D859E8520E030E040E251E40E9478
:102920001702DC01CB01BC01CD010E944100DC019A
:10293000CB019E838D830FC088EC90E09C838B83BA
:102940008B819C810197F1F79C838B838D819E8184
:1029500001979E838D838D819E81009769F714C0B6
:102960006F81788589859A850E944100DC01CB01C1
:102970009E838D838D819E819A83898389819A81AB
:102980000197F1F79A8389832E960FB6F894DEBFEC
:102990000FBECDBFCF91DF910895DF93CF93CDB719
:1029A000DEB72A970FB6F894DEBF0FBECDBF8C837B
:1029B0007E836D834F83288781E08B838C81883071
:1029C00008F079C08885883208F075C08F8183301F
:1029D00008F071C08C81282F30E03A8729878985DB
:1029E0009A8583309105A9F129853A8524303105EE
:1029F0007CF489859A858130910519F129853A857C
:102A00002230310514F589859A850097B1F034C0DC
:102A100029853A852530310521F189859A858530CA
:102A20009105DCF029853A8526303105F1F089855C
:102A30009A8587309105E9F01FC080E40E949F11BC
:102A40001BC088E40E949F1117C080E50E949F115F
:102A500013C088E50E949F110FC080E60E949F115D
:102A60000BC088E60E949F1107C080E70E949F115B
:102A700003C088E70E949F111A8219820FC0298122
:102A80003A818D819E81FC01E20FF31F80810E94BB
:102A9000891289819A8101969A83898389819A8191
:102AA0008830910564F38F8168850E9411148C81B0
:102AB0000E94891201C01B828B812A960FB6F8945E
:102AC000DEBF0FBECDBFCF91DF910895DF93CF93CF
:102AD000CDB7DEB72E970FB6F894DEBF0FBECDBFD1
:102AE0008CE10E949F1180E090E0A8ECB2E48B871B
:102AF0009C87AD87BE876B857C858D859E8520E014
:102B000030E04AEF54E40E941702DC01CB018F83CE
:102B10009887A987BA876F81788589859A8520E00B
:102B200030E040E85FE30E941D0488232CF481E03C
:102B300090E09E838D833FC06F81788589859A85DB
:102B400020E03FEF4FE757E40E94BD0318164CF515
:102B50006B857C858D859E8520E030E040E251E4E8
:102B60000E941702DC01CB01BC01CD010E94410093
:102B7000DC01CB019E838D830FC088EC90E09C83A9
:102B80008B838B819C810197F1F79C838B838D8153
:102B90009E8101979E838D838D819E81009769F729
:102BA00014C06F81788589859A850E944100DC0177
:102BB000CB019E838D838D819E819A8389838981B8
:102BC0009A810197F1F79A8389832E960FB6F8942C
:102BD000DEBF0FBECDBFCF91DF910895DF93CF93BE
:102BE000CDB7DEB72E970FB6F894DEBF0FBECDBFC0
:102BF00088E10E949F1180E090E0A8ECB2E48B870E
:102C00009C87AD87BE876B857C858D859E8520E002
:102C100030E04AEF54E40E941702DC01CB018F83BD
:102C20009887A987BA876F81788589859A8520E0FA
:102C300030E040E85FE30E941D0488232CF481E02B
:102C400090E09E838D833FC06F81788589859A85CA
:102C500020E03FEF4FE757E40E94BD0318164CF504
:102C60006B857C858D859E8520E030E040E251E4D7
:102C70000E941702DC01CB01BC01CD010E94410082
:102C8000DC01CB019E838D830FC088EC90E09C8398
:102C90008B838B819C810197F1F79C838B838D8142
:102CA0009E8101979E838D838D819E81009769F718
:102CB00014C06F81788589859A850E944100DC0166
:102CC000CB019E838D838D819E819A8389838981A7
:102CD0009A810197F1F79A8389832E960FB6F8941B
:102CE000DEBF0FBECDBFCF91DF910895DF93CF93AD
:102CF000CDB7DEB7ADE2B0E0EDE2F0E0808180611B
:102D00008C93ADE2B0E0EDE2F0E080818F7D8C93BA
:102D1000ADE2B0E0EDE2F0E0808182608C93ADE264
:102D2000B0E0EDE2F0E080818E7F8C93ADE2B0E028
:102D3000EDE2F0E08081877F8C93ADE2B0E0EDE2E0
:102D4000F0E080818B7F8C93ADE2B0E0EDE2F0E0CB
:102D5000808180648C93CF91DF910895DF93CF932E
:102D600000D000D0CDB7DEB78A837C836B83198215
:102D70008B819C81009789F0EFE2F0E08A8180836B
:102D8000EEE2F0E080818823DCF7EFE2F0E0808182
:102D9000EB81FC81808381E0898389810F900F9092
:102DA0000F900F90CF91DF910895DF93CF930F9203
:102DB000CDB7DEB78983EFE2F0E089818083EEE270
:102DC000F0E080818823DCF70F90CF91DF910895A8
:102DD000DF93CF9300D00F92CDB7DEB79B838A836A
:102DE00019828A819B81009769F0EEE2F0E0808190
:102DF0008823DCF7EFE2F0E08081EA81FB818083C9
:102E000081E0898389810F900F900F90CF91DF919E
:102E10000895DF93CF93CDB7DEB7A1E2B0E0E1E252
:102E2000F0E080818E7F8C93A1E2B0E0E1E2F0E0FF
:102E300080818D7F8C93E0E2F0E082E08083A6E5E4
:102E4000B0E0E6E5F0E0808184608C93CF91DF9183
:102E50000895DF93CF9300D0CDB7DEB78A8381E0AA
:102E600089838A818823BCF08A818823A1F0E2E2E9
:102E7000F0E08A81880F8083A6E5B0E0E6E5F0E027
:102E8000808180648C93A6E5B0E0E6E5F0E0808187
:102E900084608C9302C082E0898389810F900F90B7
:102EA000CF91DF910895DF93CF930F92CDB7DEB727
:102EB00081E08983A6E5B0E0E6E5F0E0808180620C
:102EC0008C93A6E5B0E0E6E5F0E0808180688C9325
:102ED000E6E5F0E080818823DCF7E1E2F0E0808144
:102EE000882F90E0887F90708830910511F083E002
:102EF000898389810F90CF91DF910895DF93CF93DC
:102F00000F92CDB7DEB781E08983A6E5B0E0E6E5B4
:102F1000F0E0808180628C93A6E5B0E0E6E5F0E029
:102F2000808180688C93E6E5F0E080818823DCF77F
:102F3000E1E2F0E08081882F90E0887F907080311E
:102F4000910511F084E0898389810F90CF91DF9101
:102F50000895DF93CF930F92CDB7DEB781E08983D9
:102F6000A6E5B0E0E6E5F0E0808180618C93A6E51F
:102F7000B0E0E6E5F0E0808180688C9389810F9075
:102F8000CF91DF910895DF93CF9300D0CDB7DEB717
:102F90008A8381E089838A8188237CF18A818823DE
:102FA00061F1E3E2F0E08A81880F8083A3E2B0E080
:102FB000E3E2F0E080818E7F8C93A6E5B0E0E6E569
:102FC000F0E080818F7D8C93A6E5B0E0E6E5F0E04F
:102FD000808180688C93E6E5F0E080818823DCF7CF
:102FE000E1E2F0E08081882F90E0887F9070883166
:102FF000910529F085E0898302C082E08983898177
:103000000F900F90CF91DF910895DF93CF9300D071
:10301000CDB7DEB78A8381E089838A8188237CF1FA
:103020008A81882361F1E3E2F0E08A81880F80835E
:10303000A3E2B0E0E3E2F0E0808181608C93A6E55A
:10304000B0E0E6E5F0E080818F7D8C93A6E5B0E00E
:10305000E6E5F0E0808180688C93E6E5F0E0808131
:103060008823DCF7E1E2F0E08081882F90E0887F20
:1030700090708034910529F086E0898302C082E057
:10308000898389810F900F90CF91DF910895DF930D
:10309000CF9300D0CDB7DEB78A8381E08983E3E2A6
:1030A000F0E08A818083A6E5B0E0E6E5F0E080818B
:1030B00080688C93E6E5F0E080818823DCF7E1E22C
:1030C000F0E08081882F90E0887F907088329105B1
:1030D00011F087E0898389810F900F90CF91DF9164
:1030E0000895DF93CF9300D00F92CDB7DEB79B83C7
:1030F0008A8381E089838A819B81009701F1A6E51B
:10310000B0E0E6E5F0E0808180688C93E6E5F0E0F1
:1031100080818823DCF7E1E2F0E08081882F90E075
:10312000887F90708835910519F088E0898309C0FF
:10313000E3E2F0E08081EA81FB81808302C089E0E4
:10314000898389810F900F900F90CF91DF9108951F
:103150000F931F93DF93CF93CDB7DEB7CB5FD040F4
:103160000FB6F894DEBF0FBECDBFFE01EF50FF4F8C
:103170001082FE01E051FF4F1082FE01E151FF4F2E
:103180001082FE01E251FF4F87EF8083FE01E6517E
:10319000FF4F1082118212821382FE01E751FF4F0E
:1031A00010820E9447060E9409170E9476160E940C
:1031B000DC0E80E690E00E94731382E066E00E94DD
:1031C000111481E790E00E947313FE01E352FF4F58
:1031D00080E090E0AAEFB3E480839183A283B3837D
:1031E0008E0107521F4FFE01E352FF4F6081718134
:1031F0008281938120E030E04AEF54E40E9417027C
:10320000DC01CB01F80180839183A283B383FE01AB
:10321000E752FF4F608171818281938120E030E02D
:1032200040E85FE30E941D04882344F4FE01E95254
:10323000FF4F81E090E09183808364C0FE01E752FC
:10324000FF4F608171818281938120E03FEF4FE7E2
:1032500057E40E94BD0318160CF043C0FE01E35270
:10326000FF4F608171818281938120E030E040E2F4
:1032700051E40E941702DC01CB018E0109521F4F5D
:10328000BC01CD010E944100DC01CB01F80191831A
:1032900080831FC0FE01EB52FF4F88EC90E09183CA
:1032A0008083FE01EB52FF4F808191810197F1F7FE
:1032B000FE01EB52FF4F91838083DE01A952BF4F85
:1032C000FE01E952FF4F80819181019711969C93F5
:1032D0008E93FE01E952FF4F808191810097D1F6D4
:1032E00027C08E0109521F4FFE01E752FF4F608138
:1032F0007181828193810E944100DC01CB01F80140
:1033000091838083DE01AD52BF4FFE01E952FF4F32
:10331000808191818D939C93FE01ED52FF4F8081BE
:1033200091810197F1F7FE01ED52FF4F9183808368
:103330009E012D503F4F80E090E0B9010E94ED0CBE
:10334000FE01ED50FF4F80818F3F09F08FC2FE01DB
:10335000E153FF4F80E090E0AAE7B4E480839183DB
:10336000A283B3838E0105531F4FFE01E153FF4F2C
:10337000608171818281938120E030E04AEF54E4E2
:103380000E941702DC01CB01F80180839183A283A4
:10339000B383FE01E553FF4F608171818281938188
:1033A00020E030E040E85FE30E941D04882344F4FD
:1033B000FE01E753FF4F81E090E09183808364C07A
:1033C000FE01E553FF4F608171818281938120E08E
:1033D0003FEF4FE757E40E94BD0318160CF043C0BF
:1033E000FE01E153FF4F608171818281938120E072
:1033F00030E040E251E40E941702DC01CB018E0173
:1034000007531F4FBC01CD010E944100DC01CB01DD
:10341000F801918380831FC0FE01E953FF4F88ECC0
:1034200090E091838083FE01E953FF4F8081918179
:103430000197F1F7FE01E953FF4F91838083DE018D
:10344000A753BF4FFE01E753FF4F80819181019742
:1034500011969C938E93FE01E753FF4F80819181DB
:103460000097D1F627C08E0107531F4FFE01E55389
:10347000FF4F60817181828193810E944100DC0154
:10348000CB01F80191838083DE01AB53BF4FFE0176
:10349000E753FF4F808191818D939C93FE01EB5305
:1034A000FF4F808191810197F1F7FE01EB53FF4FB0
:1034B000918380830E94451481E061E00E94111491
:1034C00086E790E00E94731382E066E00E94111488
:1034D00086E890E00E947313FE01EF53FF4F80E0F7
:1034E00090E0AAE7B4E480839183A283B3838E0142
:1034F00003541F4FFE01EF53FF4F608171818281A2
:10350000938120E030E04AEF54E40E941702DC018E
:10351000CB01F80180839183A283B383FE01E3543E
:10352000FF4F608171818281938120E030E040E82B
:103530005FE30E941D04882344F4FE01E554FF4F1D
:1035400081E090E09183808364C0FE01E354FF4FEB
:10355000608171818281938120E03FEF4FE757E4E2
:103560000E94BD0318160CF043C0FE01EF53FF4F3D
:10357000608171818281938120E030E040E251E4FA
:103580000E941702DC01CB018E0105541F4FBC01C4
:10359000CD010E944100DC01CB01F80191838083C1
:1035A0001FC0FE01E754FF4F88EC90E091838083B9
:1035B000FE01E754FF4F808191810197F1F7FE01F1
:1035C000E754FF4F91838083DE01A554BF4FFE0176
:1035D000E554FF4F80819181019711969C938E93C2
:1035E000FE01E554FF4F808191810097D1F627C0FD
:1035F0008E0105541F4FFE01E354FF4F608171811E
:10360000828193810E944100DC01CB01F80191830A
:103610008083DE01A954BF4FFE01E554FF4F808136
:1036200091818D939C93FE01E954FF4F808191819C
:103630000197F1F7FE01E954FF4F918380830E94C7
:1036400045148BE890E00E94731382E060E00E94D2
:1036500011148AE990E00E947313FE01E851FF4FB4
:103660001082F7C0CE018E509F4F0E94CD0D05C035
:10367000CE018E509F4F0E94CD0DFE01EE50FF4FA8
:1036800080818F3FA9F3FE01E851FF4F8081882F91
:1036900090E0FE01EE50FF4F2081622F0E943A0C15
:1036A000FE01E851FF4F8081982F955F82E0692FDE
:1036B0000E941114FE01EE50FF4F80810E9489127A
:1036C000FE01ED54FF4F80E090E0A8ECB2E480836F
:1036D0009183A283B3838E0101551F4FFE01ED54E8
:1036E000FF4F608171818281938120E030E04AEF59
:1036F00054E40E941702DC01CB01F801808391831E
:10370000A283B383FE01E155FF4F60817181828105
:10371000938120E030E040E85FE30E941D048823AD
:1037200044F4FE01E355FF4F81E090E091838083F4
:1037300064C0FE01E155FF4F6081718182819381F8
:1037400020E03FEF4FE757E40E94BD0318160CF04E
:1037500043C0FE01ED54FF4F6081718182819381EE
:1037600020E030E040E251E40E941702DC01CB018E
:103770008E0103551F4FBC01CD010E944100DC01A9
:10378000CB01F801918380831FC0FE01E555FF4FF7
:1037900088EC90E091838083FE01E555FF4F8081A6
:1037A00091810197F1F7FE01E555FF4F91838083E9
:1037B000DE01A355BF4FFE01E355FF4F808191818C
:1037C000019711969C938E93FE01E355FF4F8081E4
:1037D00091810097D1F627C08E0103551F4FFE013E
:1037E000E155FF4F60817181828193810E94410088
:1037F000DC01CB01F80191838083DE01A755BF4F27
:10380000FE01E355FF4F808191818D939C93FE01D2
:10381000E755FF4F808191810197F1F7FE01E75550
:10382000FF4F91838083FE01E851FF4F8081982FE5
:10383000955F82E0692F0E9411148AE20E9489122A
:10384000DE01A851BF4FFE01E851FF4F80818F5F1D
:103850008C93FE01E851FF4F8081843008F402CF41
:103860000E94451486EA90E00E9473139E012D5039
:103870003F4F84E090E0B9010E94ED0CFE01ED5055
:10388000FF4F80818F3F09F0CBC1FE01EB55FF4F09
:1038900080E090E0AAE7B4E480839183A283B383BD
:1038A0008E010F551F4FFE01EB55FF4F6081718157
:1038B0008281938120E030E04AEF54E40E941702B5
:1038C000DC01CB01F80180839183A283B383FE01E5
:1038D000EF55FF4F608171818281938120E030E05C
:1038E00040E85FE30E941D04882344F4FE01E15692
:1038F000FF4F81E090E09183808364C0FE01EF552B
:10390000FF4F608171818281938120E03FEF4FE71B
:1039100057E40E94BD0318160CF043C0FE01EB559E
:10392000FF4F608171818281938120E030E040E22D
:1039300051E40E941702DC01CB018E0101561F4F9A
:10394000BC01CD010E944100DC01CB01F801918353
:1039500080831FC0FE01E356FF4F88EC90E0918307
:103960008083FE01E356FF4F808191810197F1F73B
:10397000FE01E356FF4F91838083DE01A156BF4FC6
:10398000FE01E156FF4F80819181019711969C9332
:103990008E93FE01E156FF4F808191810097D1F611
:1039A00027C08E0101561F4FFE01EF55FF4F60816A
:1039B0007181828193810E944100DC01CB01F80179
:1039C00091838083DE01A556BF4FFE01E156FF4F74
:1039D000808191818D939C93FE01E556FF4F8081FC
:1039E00091810197F1F7FE01E556FF4F91838083A6
:1039F0000E94451481EB90E00E94731382E060E026
:103A00000E94111480EC90E00E947313FE01E951B2
:103A1000FF4F1082F8C0CE018E509F4F0E94CD0DF7
:103A200005C0CE018E509F4F0E94CD0DFE01EE507D
:103A3000FF4F80818F3FA9F3FE01E951FF4F808145
:103A4000882F90E00496FE01EE50FF4F2081622FF8
:103A50000E943A0CFE01E951FF4F8081982F955F3B
:103A600082E0692F0E941114FE01EE50FF4F808109
:103A70000E948912FE01E956FF4F80E090E0A8EC19
:103A8000B2E480839183A283B3838E010D561F4FCE
:103A9000FE01E956FF4F608171818281938120E0B0
:103AA00030E04AEF54E40E941702DC01CB01F80138
:103AB00080839183A283B383FE01ED56FF4F608123
:103AC00071818281938120E030E040E85FE30E94D1
:103AD0001D04882344F4FE01EF56FF4F81E090E07F
:103AE0009183808364C0FE01ED56FF4F6081718138
:103AF0008281938120E03FEF4FE757E40E94BD03AE
:103B000018160CF043C0FE01E956FF4F6081718129
:103B10008281938120E030E040E251E40E9417026C
:103B2000DC01CB018E010F561F4FBC01CD010E945D
:103B30004100DC01CB01F801918380831FC0FE01AD
:103B4000E157FF4F88EC90E091838083FE01E157BD
:103B5000FF4F808191810197F1F7FE01E157FF4FFF
:103B600091838083DE01AF56BF4FFE01EF56FF4FBA
:103B700080819181019711969C938E93FE01EF565F
:103B8000FF4F808191810097D1F627C08E010F569B
:103B90001F4FFE01ED56FF4F60817181828193813D
:103BA0000E944100DC01CB01F80191838083DE019A
:103BB000A357BF4FFE01EF56FF4F808191818D9338
:103BC0009C93FE01E357FF4F808191810197F1F7AC
:103BD000FE01E357FF4F91838083FE01E951FF4FC0
:103BE0008081982F955F82E0692F0E9411148AE2EC
:103BF0000E948912DE01A951BF4FFE01E951FF4F1A
:103C000080818F5F8C93FE01E951FF4F808184306A
:103C100008F401CF0E94451486EA90E00E947313D5
:103C200082E062E040E00E94950782E063E040E0CD
:103C30000E94950782E064E040E00E949507FE0143
:103C4000EF50FF4F1082FE01E651FF4F10821182AC
:103C5000128213820E9445148CEC90E00E94731330
:103C600082E060E00E94111489ED90E00E947313DD
:103C700082E068E00E94111481EE90E00E947313CC
:103C8000CE018E509F4F0E94CD0D05C0CE018E50AB
:103C90009F4F0E94CD0DFE01EE50FF4F80818F3F60
:103CA000A9F3FE01EE50FF4F8081813311F00C9497
:103CB000AF2682E062E041E00E9495073DC2FE012E
:103CC000EF50FF4F81E080830E94451489EE90E021
:103CD0000E947313FE01EA51FF4F1082FBC0CE0118
:103CE0008E509F4F0E94CD0D05C0CE018E509F4F2C
:103CF0000E94CD0DFE01EE50FF4F80818F3FA9F352
:103D0000FE01EA51FF4F8081282F30E0FE01EE5086
:103D1000FF4F4081CE018C509F4FFC01E20FF31FFB
:103D20004083FE01EA51FF4F8081982F955F81E02B
:103D3000692F0E941114FE01EE50FF4F80810E94F6
:103D40008912FE01E757FF4F80E090E0A8ECB2E453
:103D500080839183A283B3838E010B571F4FFE0193
:103D6000E757FF4F608171818281938120E030E0CD
:103D70004AEF54E40E941702DC01CB01F801808372
:103D80009183A283B383FE01EB57FF4F6081718162
:103D90008281938120E030E040E85FE30E941D04CF
:103DA000882344F4FE01ED57FF4F81E090E09183BA
:103DB000808364C0FE01EB57FF4F60817181828177
:103DC000938120E03FEF4FE757E40E94BD031816B0
:103DD0000CF043C0FE01E757FF4F60817181828183
:103DE000938120E030E040E251E40E941702DC01C0
:103DF000CB018E010D571F4FBC01CD010E94410028
:103E0000DC01CB01F801918380831FC0FE01EF57D5
:103E1000FF4F88EC90E091838083FE01EF57FF4FC6
:103E2000808191810197F1F7FE01EF57FF4F918358
:103E30008083DE01AD57BF4FFE01ED57FF4F8081FC
:103E40009181019711969C938E93FE01ED57FF4F40
:103E5000808191810097D1F627C08E010D571F4FA9
:103E6000FE01EB57FF4F60817181828193810E9437
:103E70004100DC01CB01F80191838083DE01A15870
:103E8000BF4FFE01ED57FF4F808191818D939C9331
:103E9000FE01E158FF4F808191810197F1F7FE010A
:103EA000E158FF4F91838083FE01EA51FF4F8081EB
:103EB000982F955F81E0692F0E9411148AE20E9479
:103EC0008912DE01AA51BF4FFE01EA51FF4F8081E6
:103ED0008F5F8C93FE01EA51FF4F8081843008F49C
:103EE000FECEFE01EB51FF4F108236C0FE01EB51BA
:103EF000FF4F8081882F90E09E012D503F4FB901E8
:103F00000E94ED0CFE01EB51FF4F8081282F30E025
:103F1000CE018C509F4FFC01E20FF31F9081FE01F8
:103F2000ED50FF4F8081981771F0FE01EF50FF4F69
:103F30001082DE01A051BF4FFE01E051FF4F808192
:103F40008F5F8C930FC0DE01AB51BF4FFE01EB5171
:103F5000FF4F80818F5F8C93FE01EB51FF4F80817B
:103F6000843020F2FE01EF50FF4F8081882309F05A
:103F7000E3C0FE01E051FF4F8081833008F0DCC0D8
:103F80000E94451481E060E00E94111485EF90E0EA
:103F90000E94731382E060E00E94111484E091E0BB
:103FA0000E94731382E06CE00E941114FE01E05144
:103FB000FF4F8081282F30E083E090E0821B930B3D
:103FC000AA2797FDA095BA2FBC01CD010E949C1392
:103FD000FE01E558FF4F80E090E0AAE7B4E480835B
:103FE0009183A283B3838E0109581F4FFE01E558C8
:103FF000FF4F608171818281938120E030E04AEF40
:1040000054E40E941702DC01CB01F8018083918304
:10401000A283B383FE01E958FF4F608171818281E1
:10402000938120E030E040E85FE30E941D04882394
:1040300044F4FE01EB58FF4F81E090E091838083D0
:1040400064C0FE01E958FF4F6081718182819381D4
:1040500020E03FEF4FE757E40E94BD0318160CF035
:1040600043C0FE01E558FF4F6081718182819381D9
:1040700020E030E040E251E40E941702DC01CB0175
:104080008E010B581F4FBC01CD010E944100DC0185
:10409000CB01F801918380831FC0FE01ED58FF4FD3
:1040A00088EC90E091838083FE01ED58FF4F808182
:1040B00091810197F1F7FE01ED58FF4F91838083C5
:1040C000DE01AB58BF4FFE01EB58FF4F808191815D
:1040D000019711969C938E93FE01EB58FF4F8081C0
:1040E00091810097D1F628C08E010B581F4FFE0119
:1040F000E958FF4F60817181828193810E94410064
:10410000DC01CB01F80191838083DE01AF58BF4F02
:10411000FE01EB58FF4F8081918111969C938E9305
:10412000FE01EF58FF4F808191810197F1F7FE0169
:10413000EF58FF4F91838083FE01EF50FF4F808146
:10414000882339F4FE01E051FF4F8081833008F469
:10415000B6CDFE01E051FF4F8081833009F0EEC003
:1041600082E062E040E00E94950782E064E041E086
:104170000E949507FE01E051FF4F10820E944514F6
:1041800080E191E00E947313FE01EC51FF4F85E046
:104190008083CCC081E06CE00E941114FE01EC51E0
:1041A000FF4F8081882F90E0A0E0B0E0BC01CD01FE
:1041B0000E949C13FE01E359FF4F80E090E0AAE7C4
:1041C000B4E480839183A283B3838E0107591F4F88
:1041D000FE01E359FF4F608171818281938120E06C
:1041E00030E04AEF54E40E941702DC01CB01F801F1
:1041F00080839183A283B383FE01E759FF4F6081DF
:1042000071818281938120E030E040E85FE30E9489
:104210001D04882344F4FE01E959FF4F81E090E03A
:104220009183808364C0FE01E759FF4F60817181F3
:104230008281938120E03FEF4FE757E40E94BD0366
:1042400018160CF043C0FE01E359FF4F60817181E5
:104250008281938120E030E040E251E40E94170225
:10426000DC01CB018E0109591F4FBC01CD010E9419
:104270004100DC01CB01F801918380831FC0FE0166
:10428000EB59FF4F88EC90E091838083FE01EB595E
:10429000FF4F808191810197F1F7FE01EB59FF4FAC
:1042A00091838083DE01A959BF4FFE01E959FF4F79
:1042B00080819181019711969C938E93FE01E9591B
:1042C000FF4F808191810097D1F627C08E01095957
:1042D0001F4FFE01E759FF4F6081718182819381F9
:1042E0000E944100DC01CB01F80191838083DE0153
:1042F000AD59BF4FFE01E959FF4F808191818D93E8
:104300009C93FE01ED59FF4F808191810197F1F758
:10431000FE01ED59FF4F91838083DE01AC51BF4F09
:10432000FE01EC51FF4F808181508C93FE01EC51D6
:10433000FF4F8081882309F02DCF72CCFE01EF5012
:10434000FF4F8081813009F06BCCFE01E051FF4FBF
:1043500010820E94451481E062E00E94111480E204
:1043600091E00E947313FE01E15AFF4F80E090E05C
:10437000AAEFB3E480839183A283B3838E01055AAD
:104380001F4FFE01E15AFF4F60817181828193814D
:1043900020E030E04AEF54E40E941702DC01CB0138
:1043A000F80180839183A283B383FE01E55AFF4F16
:1043B000608171818281938120E030E040E85FE399
:1043C0000E941D04882344F4FE01E75AFF4F81E058
:1043D00090E09183808364C0FE01E55AFF4F6081C5
:1043E00071818281938120E03FEF4FE757E40E9483
:1043F000BD0318160CF043C0FE01E15AFF4F608167
:1044000071818281938120E030E040E251E40E949A
:104410001702DC01CB018E01075A1F4FBC01CD01F1
:104420000E944100DC01CB01F801918380831FC011
:10443000FE01E95AFF4F88EC90E091838083FE01F2
:10444000E95AFF4F808191810197F1F7FE01E95A06
:10445000FF4F91838083DE01A75ABF4FFE01E75AC9
:10446000FF4F80819181019711969C938E93FE015D
:10447000E75AFF4F808191810097D1F65EC48E018B
:10448000075A1F4FFE01E55AFF4F608171818281FB
:1044900093810E944100DC01CB01F801918380836C
:1044A000DE01AB5ABF4FFE01E75AFF4F8081918179
:1044B00011969C938E93FE01EB5AFF4F8081918160
:1044C0000197F1F7FE01EB5AFF4F9183808335C4CA
:1044D0000E9445148EE291E00E94731381E069E02E
:1044E0000E94111486E391E00E94731382E060E061
:1044F0000E9411148EE391E00E94731382E069E040
:104500000E94111486E491E00E947313CE018E5034
:104510009F4F0E94CD0D17C0CE018E509F4F0E941D
:10452000CD0D9E0126513F4FFE01E651FF4F808188
:104530009181A281B3810196A11DB11DF9018083F2
:104540009183A283B383FE01EE50FF4F80818F3FA2
:1045500079F4FE01E651FF4F80819181A281B38100
:104560008838F3E19F07F0E0AF07F0E0BF07A0F263
:10457000FE01EE50FF4F8081843309F0D4C2C4C2E3
:104580000E9445148DE491E00E94731382E060E084
:104590000E9411148DE591E00E94731382E068E09F
:1045A0000E94111482E691E00E947313CE018E5096
:1045B0009F4F0E94CD0D05C0CE018E509F4F0E948F
:1045C000CD0DFE01EE50FF4F80818F3FA9F3FE011C
:1045D000EE50FF4F8081813309F045C237C20E94FF
:1045E000451489E691E00E94731382E060E00E9426
:1045F00011148BE791E00E94731382E06AE00E943D
:10460000111482E691E00E947313CE018E509F4FE9
:104610000E94CD0D05C0CE018E509F4F0E94CD0D42
:10462000FE01EE50FF4F80818F3FA9F3FE01EE5057
:10463000FF4F8081813309F0B8C1FE01E151FF4F86
:104640001082FE01E751FF4F10820E94451485E859
:1046500091E00E94731345C0CE018E509F4F0E947F
:10466000CD0D05C0CE018E509F4F0E94CD0DFE0195
:10467000EE50FF4F80818F3FA9F3FE01E151FF4FC4
:104680008081982F975F81E0692F0E941114FE01AD
:10469000EE50FF4F80810E948912FE01E751FF4FCB
:1046A0008081882F90E09C01220F331FC901880F61
:1046B000991F880F991F820F931F982FFE01EE50AC
:1046C000FF4F8081890FFE01E751FF4F80538083A8
:1046D000DE01A151BF4FFE01E151FF4F80818F5F8D
:1046E0008C93FE01E151FF4F8081823008F4B4CFFA
:1046F000FE01E751FF4F80810E94D516FE01EF5A5F
:10470000FF4F80E090E0AAEFB3E480839183A2831F
:10471000B3838E01035B1F4FFE01EF5AFF4F608191
:1047200071818281938120E030E04AEF54E40E945D
:104730001702DC01CB01F80180839183A283B3834C
:10474000FE01E35BFF4F608171818281938120E0F4
:1047500030E040E85FE30E941D04882344F4FE013A
:10476000E55BFF4F81E090E09183808364C0FE01B0
:10477000E35BFF4F608171818281938120E03FEF95
:104780004FE757E40E94BD0318160CF043C0FE012A
:10479000EF5AFF4F608171818281938120E030E088
:1047A00040E251E40E941702DC01CB018E01055B5F
:1047B0001F4FBC01CD010E944100DC01CB01F8017B
:1047C000918380831FC0FE01E75BFF4F88EC90E080
:1047D00091838083FE01E75BFF4F80819181019788
:1047E000F1F7FE01E75BFF4F91838083DE01A55B5C
:1047F000BF4FFE01E55BFF4F8081918101971196CC
:104800009C938E93FE01E55BFF4F80819181009721
:10481000D1F627C08E01055B1F4FFE01E35BFF4F02
:1048200060817181828193810E944100DC01CB0112
:10483000F80191838083DE01A95BBF4FFE01E55B38
:10484000FF4F808191818D939C93FE01E95BFF4F27
:10485000808191810197F1F7FE01E95BFF4F918320
:1048600080830E94451483E991E00E94731382E0E3
:1048700060E00E94111484EA91E00E94731382E0C8
:1048800066E00E941114FE01E751FF4F8081882FDE
:1048900090E0A0E0B0E0BC01CD010E949C13FE01BD
:1048A000ED5BFF4F80E090E0AAE7B4E48083918362
:1048B000A283B3838E01015C1F4FFE01ED5BFF4FAE
:1048C000608171818281938120E030E04AEF54E47D
:1048D0000E941702DC01CB01F80180839183A2833F
:1048E000B383FE01FF96608171818281938120E014
:1048F00030E040E85FE30E941D0488232CF481E04F
:1049000090E09EAF8DAF46C0FE01FF966081718141
:104910008281938120E03FEF4FE757E40E94BD037F
:10492000181664F5FE01ED5BFF4F60817181828195
:10493000938120E030E040E251E40E941702DC0164
:10494000CB01BC01CD010E944100DC01CB019EAF37
:104950008DAF0FC088EC90E09CAF8BAF8BAD9CAD62
:104960000197F1F79CAF8BAF8DAD9EAD01979EAFD8
:104970008DAF8DAD9EAD009769F768C0FE01FF96C3
:1049800060817181828193810E944100DC01CB01B1
:104990009EAF8DAF8DAD9EAD9AAF89AF89AD9AAD0B
:1049A0000197F1F79AAF89AF51C0FE01EE50FF4F6A
:1049B0008081823309F04AC042C00E9445148FEAC8
:1049C00091E00E94731382E060E00E9411148DEB6D
:1049D00091E00E94731382E065E00E94111482EC62
:1049E00091E00E94731382E06BE00E94111488EC46
:1049F00091E00E947313CE018E509F4F0E94CD0D07
:104A000005C0CE018E509F4F0E94CD0DFE01EE508D
:104A1000FF4F80818F3FA9F3FE01EE50FF4F808151
:104A2000813321F488EF0E94D51609C0FE01EE50B3
:104A3000FF4F8081823319F487EF0E94D516FE0163
:104A4000EE50FF4F8081803309F0B7CFFE01EE506A
:104A5000FF4F8081833309F0C2CDCE018E509F4F2E
:104A60000E94CD0D51C0FE01EE50FF4F8081823378
:104A700009F04AC042C00E9445148FEC91E00E94A8
:104A8000731382E060E00E9411148DEB91E00E94AC
:104A9000731382E065E00E94111482EC91E00E94A1
:104AA000731382E06BE00E94111488EC91E00E9485
:104AB0007313CE018E509F4F0E94CD0D05C0CE01C5
:104AC0008E509F4F0E94CD0DFE01EE50FF4F808112
:104AD0008F3FA9F3FE01EE50FF4F8081813321F417
:104AE00086EF0E94D51609C0FE01EE50FF4F80816F
:104AF000823319F485EF0E94D516FE01EE50FF4F68
:104B00008081803309F0B7CFFE01EE50FF4F8081E6
:104B1000833309F035CDFE01E651FF4F108211823B
:104B2000128213820AC1FE01EE50FF4F8081813351
:104B300009F052C042C00E9445148AED91E00E94E3
:104B4000731382E060E00E9411148DEB91E00E94EB
:104B5000731382E065E00E94111482EC91E00E94E0
:104B6000731382E06BE00E94111488EC91E00E94C4
:104B70007313CE018E509F4F0E94CD0D05C0CE0104
:104B80008E509F4F0E94CD0DFE01EE50FF4F808151
:104B90008F3FA9F3FE01EE50FF4F8081813321F456
:104BA0008FEF0E94D51609C0FE01EE50FF4F8081A5
:104BB000823319F48EEF0E94D516FE01EE50FF4F9E
:104BC0008081803309F0B7CFFE01E651FF4F10829C
:104BD000118212821382B1C0FE01EE50FF4F80811C
:104BE000823309F052C042C00E94451480EE91E029
:104BF0000E94731382E060E00E9411148DEB91E03B
:104C00000E94731382E065E00E94111482EC91E02F
:104C10000E94731382E06BE00E94111488EC91E013
:104C20000E947313CE018E509F4F0E94CD0D05C080
:104C3000CE018E509F4F0E94CD0DFE01EE50FF4FD2
:104C400080818F3FA9F3FE01EE50FF4F80818133B9
:104C500021F48DEF0E94D51609C0FE01EE50FF4FE2
:104C60008081823319F48CEF0E94D516FE01EE503C
:104C7000FF4F8081803309F0B7CFFE01E651FF4F2F
:104C8000108211821282138258C0FE01EE50FF4F33
:104C90008081833309F051C042C00E94451486EEE2
:104CA00091E00E94731382E060E00E9411148DEB8A
:104CB00091E00E94731382E065E00E94111482EC7F
:104CC00091E00E94731382E06BE00E94111488EC63
:104CD00091E00E947313CE018E509F4F0E94CD0D24
:104CE00005C0CE018E509F4F0E94CD0DFE01EE50AB
:104CF000FF4F80818F3FA9F3FE01EE50FF4F80816F
:104D0000813321F48BEF0E94D51609C0FE01EE50CD
:104D1000FF4F8081823319F48AEF0E94D516FE017D
:104D2000EE50FF4F8081803309F0B7CFFE01E6518E
:104D3000FF4F1082118212821382FE01E651FF4F53
:104D400080819181A281B3818838F3E19F07F0E0EF
:104D5000AF07F0E0BF0708F4BBCB0C94101EFE01B8
:104D6000EE50FF4F8081823311F00C94101E82E0D0
:104D700063E041E00E949507BBC1FE01EF50FF4F89
:104D800081E080830E9445148CEE91E00E947313B1
:104D9000FE01ED51FF4F1082BAC0CE018E509F4FE1
:104DA0000E94CD0D05C0CE018E509F4F0E94CD0DAB
:104DB000FE01EE50FF4F80818F3FA9F3FE01ED51C0
:104DC000FF4F8081282F30E0FE01EE50FF4F4081E1
:104DD000CE0188509F4FFC01E20FF31F4083FE017C
:104DE000ED51FF4F8081982F955F81E0692F0E94E0
:104DF0001114FE01EE50FF4F80810E94891280E065
:104E000090E0A8ECB2E48DAB9EABAFABB8AF6DA9B0
:104E10007EA98FA998AD20E030E04AEF54E40E94CB
:104E20001702DC01CB0189AB9AABABABBCAB69A978
:104E30007AA98BA99CA920E030E040E85FE30E94BA
:104E40001D0488232CF481E090E098AB8FA73FC02D
:104E500069A97AA98BA99CA920E03FEF4FE757E405
:104E60000E94BD0318164CF56DA97EA98FA998ADB7
:104E700020E030E040E251E40E941702DC01CB0167
:104E8000BC01CD010E944100DC01CB0198AB8FA792
:104E90000FC088EC90E09EA78DA78DA59EA50197D9
:104EA000F1F79EA78DA78FA598A9019798AB8FA71B
:104EB0008FA598A9009769F714C069A97AA98BA949
:104EC0009CA90E944100DC01CB0198AB8FA78FA564
:104ED00098A99CA78BA78BA59CA50197F1F79CA7E8
:104EE0008BA7FE01ED51FF4F8081982F955F81E0E8
:104EF000692F0E9411148AE20E948912DE01AD51CD
:104F0000BF4FFE01ED51FF4F80818F5F8C93FE01FB
:104F1000ED51FF4F8081843008F43FCFFE01EE5108
:104F2000FF4F108237C0FE01EE51FF4F8081882F66
:104F300090E004969E012D503F4FB9010E94ED0C68
:104F4000FE01EE51FF4F8081282F30E0CE018850C6
:104F50009F4FFC01E20FF31F9081FE01ED50FF4FC8
:104F60008081981771F0FE01EF50FF4F1082DE0133
:104F7000A051BF4FFE01E051FF4F80818F5F8C93A6
:104F80000FC0DE01AE51BF4FFE01EE51FF4F8081D9
:104F90008F5F8C93FE01EE51FF4F8081843018F2B9
:104FA000FE01EF50FF4F8081882309F0A1C0FE0170
:104FB000E051FF4F8081833008F09AC00E94451471
:104FC00081E060E00E94111485EF90E00E9473136D
:104FD00082E060E00E94111484E091E00E9473136B
:104FE00082E06CE00E941114FE01E051FF4F8081CD
:104FF000282F30E083E090E0821B930BAA2797FDD7
:10500000A095BA2FBC01CD010E949C1380E090E0D6
:10501000AAE7B4E48FA398A7A9A7BAA76FA178A518
:1050200089A59AA520E030E04AEF54E40E941702D7
:10503000DC01CB018BA39CA3ADA3BEA36BA17CA180
:105040008DA19EA120E030E040E85FE30E941D04B6
:1050500088232CF481E090E09AA389A33FC06BA140
:105060007CA18DA19EA120E03FEF4FE757E40E9475
:10507000BD0318164CF56FA178A589A59AA520E067
:1050800030E040E251E40E941702DC01CB01BC0198
:10509000CD010E944100DC01CB019AA389A30FC07E
:1050A00088EC90E098A38F8F8F8D98A10197F1F7EE
:1050B00098A38F8F89A19AA101979AA389A389A107
:1050C0009AA1009769F714C06BA17CA18DA19EA144
:1050D0000E944100DC01CB019AA389A389A19AA176
:1050E0009E8F8D8F8D8D9E8D0197F1F79E8F8D8F69
:1050F000FE01EF50FF4F8081882339F4FE01E0511B
:10510000FF4F8081833008F438CEFE01E051FF4F1D
:105110008081833009F0AEC082E063E040E00E940D
:10512000950782E064E041E00E949507FE01E051AE
:10513000FF4F10820E94451480E191E00E9473139A
:10514000FE01EF51FF4F85E080838BC081E06CE072
:105150000E941114FE01EF51FF4F8081882F90E0D3
:10516000A0E0B0E0BC01CD010E949C1380E090E083
:10517000AAE7B4E4898F9A8FAB8FBC8F698D7A8D43
:105180008B8D9C8D20E030E04AEF54E40E941702A2
:10519000DC01CB018D8B9E8BAF8BB88F6D897E89A7
:1051A0008F89988D20E030E040E85FE30E941D0485
:1051B00088232CF481E090E09C8B8B8B3FC06D8921
:1051C0007E898F89988D20E03FEF4FE757E40E945A
:1051D000BD0318164CF5698D7A8D8B8D9C8D20E062
:1051E00030E040E251E40E941702DC01CB01BC0137
:1051F000CD010E944100DC01CB019C8B8B8B0FC049
:1052000088EC90E09A8B898B89899A890197F1F7CC
:105210009A8B898B8B899C8901979C8B8B8B8B8933
:105220009C89009769F714C06D897E898F89988D54
:105230000E944100DC01CB019C8B8B8B8B899C896C
:10524000988B8F878F8598890197F1F7988B8F8737
:10525000DE01AF51BF4FFE01EF51FF4F8081815002
:105260008C93FE01EF51FF4F8081882309F06ECFB0
:105270000C94101EFE01EF50FF4F8081813011F021
:105280000C94101EFE01E051FF4F10820E94451445
:1052900081E062E00E94111488EF91E00E94731394
:1052A00080E090E0AAEFB3E48B879C87AD87BE8750
:1052B0006B857C858D859E8520E030E04AEF54E447
:1052C0000E941702DC01CB018F839887A987BA87D8
:1052D0006F81788589859A8520E030E040E85FE33A
:1052E0000E941D0488232CF481E090E09E838D832E
:1052F0003FC06F81788589859A8520E03FEF4FE731
:1053000057E40E94BD0318164CF56B857C858D858E
:105310009E8520E030E040E251E40E941702DC016B
:10532000CB01BC01CD010E944100DC01CB019E8379
:105330008D830FC088EC90E09C838B838B819C8154
:105340000197F1F79C838B838D819E8101979E83CA
:105350008D838D819E81009769F714C06F81788558
:1053600089859A850E944100DC01CB019E838D8353
:105370008D819E819A83898389819A810197F1F732
:105380009A838983CE018E509F4F0E94CD0D5AC1C2
:105390000E9445148EE291E00E94731381E069E05F
:1053A0000E94111486E391E00E94731382E060E092
:1053B0000E9411148EE391E00E94731382E069E071
:1053C0000E94111486E092E00E947313CE018E5069
:1053D0009F4F0E94CD0D17C0CE018E509F4F0E944F
:1053E000CD0D9E0126513F4FFE01E651FF4F8081BA
:1053F0009181A281B3810196A11DB11DF901808324
:105400009183A283B383FE01EE50FF4F80818F3FD3
:1054100079F4FE01E651FF4F80819181A281B38131
:105420008838F3E19F07F0E0AF07F0E0BF07A0F294
:10543000FE01EE50FF4F8081813309F052C042C01F
:105440000E9445148AED91E00E94731382E060E0AF
:105450000E9411148DEB91E00E94731382E065E0CD
:105460000E94111482EC91E00E94731382E06BE0C1
:105470000E94111488EC91E00E947313CE018E50AB
:105480009F4F0E94CD0D05C0CE018E509F4F0E94B0
:10549000CD0DFE01EE50FF4F80818F3FA9F3FE013D
:1054A000EE50FF4F8081813321F48FEF0E94D5169B
:1054B00009C0FE01EE50FF4F8081823319F48EEF58
:1054C0000E94D516FE01EE50FF4F8081803309F017
:1054D000B7CFFE01E651FF4F108211821282138274
:1054E000B1C0FE01EE50FF4F8081823309F052C0FF
:1054F00042C00E94451480EE91E00E94731382E046
:1055000060E00E9411148DEB91E00E94731382E021
:1055100065E00E94111482EC91E00E94731382E016
:105520006BE00E94111488EC91E00E947313CE018D
:105530008E509F4F0E94CD0D05C0CE018E509F4FC3
:105540000E94CD0DFE01EE50FF4F80818F3FA9F3E9
:10555000FE01EE50FF4F8081813321F48DEF0E94D8
:10556000D51609C0FE01EE50FF4F8081823319F439
:105570008CEF0E94D516FE01EE50FF4F80818033E4
:1055800009F0B7CFFE01E651FF4F1082118212825F
:10559000138258C0FE01EE50FF4F8081833309F023
:1055A00051C042C00E94451486EE91E00E947313E0
:1055B00082E060E00E9411148DEB91E00E94731371
:1055C00082E065E00E94111482EC91E00E94731366
:1055D00082E06BE00E94111488EC91E00E9473134A
:1055E000CE018E509F4F0E94CD0D05C0CE018E5032
:1055F0009F4F0E94CD0DFE01EE50FF4F80818F3FE7
:10560000A9F3FE01EE50FF4F8081813321F48BEF2F
:105610000E94D51609C0FE01EE50FF4F80818233F3
:1056200019F48AEF0E94D516FE01EE50FF4F8081DB
:10563000803309F0B7CFFE01E651FF4F108211828F
:1056400012821382FE01E651FF4F80819181A28177
:10565000B381883823E1920720E0A20720E0B20757
:1056600010F00C94101EFE01EE50FF4F8081843329
:1056700009F08ECE0C94101EA1E21A2EAA1BBB1BA1
:10568000FD010DC0AA1FBB1FEE1FFF1FA217B3070E
:10569000E407F50720F0A21BB30BE40BF50B661F24
:1056A000771F881F991F1A9469F7609570958095E8
:1056B00090959B01AC01BD01CF0108952F923F92BF
:1056C0004F925F926F927F928F929F92AF92BF9212
:1056D000CF92DF92EF92FF920F931F93CF93DF93BE
:1056E000CDB7DEB7CA1BDB0B0FB6F894DEBF0FBE1B
:1056F000CDBF09942A88398848885F846E847D8468
:105700008C849B84AA84B984C884DF80EE80FD8069
:105710000C811B81AA81B981CE0FD11D0FB6F894DF
:0E572000DEBF0FBECDBFED010895F894FFCFA0
:10572E0057656C636F6D6520546F20536D61727495
:10573E0000486F6D65004C6F67696E20466F722072
:10574E0046697273740054696D6500536574204127
:10575E00646D696E20506173730041646D696E20D3
:10576E00706173733A005061737320536176656490
:10577E000053657420477565737420506173730010
:10578E00477565737420706173733A0053656C6569
:10579E006374204D6F6F643A00313A41646D696EE7
:1057AE0000323A47756573740041646D696E20501E
:1057BE006173733A0057726F6E672050617373573F
:1057CE006F7264005472696573204C6566743A009A
:1057DE0057616974696E6720466F722020205300EE
:1057EE0057656C636F6D652041646D696E00313A6B
:1057FE00526F6F6D3100323A526F6F6D3200333A25
:10580E00526F6F6D3300343A4D6F726500313A410D
:10581E00697220436F6E646974696F6E00323A5418
:10582E005600333A4261636B00313A53657420542B
:10583E00656D706572617475726500323A436F6E94
:10584E0074726F6C005365742054656D703A20202D
:10585E0060430054656D7065726174757265205396
:10586E00656E640054656D70203D202060430041DC
:10587E00697220436F6E646974696F6E00312D4FCB
:10588E006E00322D4F666600302D4261636B005400
:10589E00656C65766973696F6E00526F6F6D31005E
:1058AE00526F6F6D3200526F6F6D330047756573B7
:1058BE007420506173733A0057656C636F6D652089
:1058CE00477565737400343A4261636B00000000E3
:1058DE0000000000003738392F3435362A31323384
:0E58EE002D25303D2B000102030405060700A6
:00000001FF
