:100000000C942A000C943F000C943F000C943F0089
:100010000C943F000C943F000C943F000C943F0064
:100020000C943F000C943F000C943F000C943F0054
:100030000C943F000C943F000C943F000C943F0044
:100040000C943F000C943F000C943F000C943F0034
:100050000C943F0011241FBECFE5D8E0DEBFCDBF1A
:1000600010E0A0E6B0E0EAE7FCE102C005900D92E6
:10007000A836B107D9F70E94D90D0C943B0E0C9409
:100080000000EF92FF920F931F937B018C0120E001
:1000900030E040E05FE40E94410388238CF0C80117
:1000A000B70120E030E040E05FE40E94B9010E9427
:1000B000A1039B01AC01205030404040504806C095
:1000C000C801B7010E94A1039B01AC01B901CA019B
:1000D0001F910F91FF90EF900895A0E0B0E0E3E74B
:1000E000F0E00C94040EDC012B01FA019C9192309B
:1000F00008F439C1EB018881823008F433C19430AF
:1001000069F4843009F02FC111969C91119789816F
:10011000981709F428C1A0E6B0E025C1843009F49D
:1001200021C18230A9F4923009F01DC19A01AD01BC
:1001300088E0EA010990AE01E90109929E0181502F
:10014000C1F7E201898111969C918923818308C1BD
:10015000923009F407C112962D903C901397EB0151
:100160008A819B811496AD90BD90CD90DC901797BD
:10017000EC80FD800E811F819101281B390BB90194
:1001800037FF04C066277727621B730B6032710547
:100190000CF061C0121613066CF537014801062EEB
:1001A00004C096948794779467940A94D2F721E0D8
:1001B00030E040E050E004C0220F331F441F551FC1
:1001C0006A95D2F721503040404050402E213F21C7
:1001D00040235123211531054105510521F021E02E
:1001E00030E040E050E079018A01E628F72808294C
:1001F00019293CC0232BD1F1260E371E35014601AB
:10020000062E04C096948794779467940A94D2F744
:1002100021E030E040E050E004C0220F331F441FD3
:10022000551F6A95D2F721503040404050402A2156
:100230003B214C215D21211531054105510521F05E
:1002400021E030E040E050E059016A01A628B728DB
:10025000C828D9280BC0821593052CF01C01AA24AC
:10026000BB24650103C0EE24FF24870111969C91F5
:10027000D20111968C91981709F445C0992339F051
:10028000A80197012A193B094C095D0906C0A6017E
:1002900095012E193F09400B510B57FD08C01182E3
:1002A0003382228224833583468357831DC081E0B5
:1002B00081833382228288279927DC01821B930B5A
:1002C000A40BB50B84839583A683B7830DC0220F3F
:1002D000331F441F551F24833583468357838281F0
:1002E000938101979383828324813581468157814D
:1002F000DA01C9010197A109B1098F5F9F4FAF4F83
:10030000BF4328F30BC0918333822282EA0CFB1C8B
:100310000C1D1D1DE482F5820683178383E0808314
:10032000248135814681578157FF1AC0C901AA2708
:1003300097FDA095BA2F81709070A070B0705695FF
:10034000479537952795822B932BA42BB52B848328
:100350009583A683B7838281938101969383828359
:10036000DF0101C0D201CD01CDB7DEB7E2E10C94CF
:10037000200EA0E2B0E0EFEBF1E00C94100E6983E8
:100380007A838B839C832D833E834F835887E9E058
:10039000EE2EF12CEC0EFD1ECE010196B7010E944F
:1003A000CA048E010F5E1F4FCE010596B8010E9450
:1003B000CA048A8991E089278A8BC701B801AE01F6
:1003C000475E5F4F0E946D000E94F503A096E6E035
:1003D0000C942C0EA0E2B0E0E0EFF1E00C94100ED3
:1003E00069837A838B839C832D833E834F835887D5
:1003F000F9E0EF2EF12CEC0EFD1ECE010196B701B7
:100400000E94CA048E010F5E1F4FCE010596B801EF
:100410000E94CA04C701B801AE01475E5F4F0E9447
:100420006D000E94F503A096E6E00C942C0EA0E26D
:10043000B0E0EDE1F2E00C94040E69837A838B83E3
:100440009C832D833E834F835887CE010196BE0146
:10045000675F7F4F0E94CA04CE010596BE016F5EA2
:100460007F4F0E94CA049985923088F08989823032
:10047000C8F0943019F4823051F404C0843029F467
:10048000923081F480E690E0C6C0923049F420E0DA
:100490009A858A89981321E02A87CE010996BBC0E4
:1004A000823049F420E09A858A89981321E02A8BCA
:1004B000CE014196B0C02D843E844F8458886D880B
:1004C0007E888F88988CEE24FF248701AA24BB2481
:1004D000650140E050E060E070E0E0E0F0E0C10184
:1004E00081709070892BE9F0E60CF71C081D191D2E
:1004F0009A01AB012A0D3B1D4C1D5D1D80E090E073
:10050000A0E0B0E0E614F7040805190520F481E046
:1005100090E0A0E0B0E0BA01A901480F591F6A1F9E
:100520007B1FAA0CBB1CCC1CDD1C97FE08C081E005
:1005300090E0A0E0B0E0A82AB92ACA2ADB2A3196C6
:10054000E032F10549F0660C771C881C991C569422
:10055000479437942794C3CFFA85EA892B893C893D
:100560008B859C85280F391F2E5F3F4F17C0CA010E
:1005700081709070892B61F016950795F794E79438
:1005800080E090E0A0E0B0E8E82AF92A0A2B1B2BD3
:1005900076956795579547952F5F3F4F77FDE7CF46
:1005A0000CC0440F551F661F771F17FD4160EE0CEE
:1005B000FF1C001F111F21503040403090E05907B0
:1005C00090E0690790E4790760F32B8F3C8FDB01A3
:1005D000CA018F779070A070B07080349105A1052A
:1005E000B10561F447FD0AC0E114F10401051105EC
:1005F00029F0405C5F4F6F4F7F4F40781A8EFE1797
:1006000011F081E08A8F4D8F5E8F6F8F78A383E02A
:10061000898FCE0149960E94F503A096E2E10C94E1
:10062000200EA8E1B0E0E7E1F3E00C94100E69833E
:100630007A838B839C832D833E834F83588789E005
:10064000E82EF12CEC0EFD1ECE010196B7010E94A2
:10065000CA048E010F5E1F4FCE010596B8010E949D
:10066000CA048985823040F08989823028F0C70128
:10067000B8010E94420501C08FEF6896E6E00C9435
:100680002C0EA8E1B0E0E7E4F3E00C94100E6983CF
:100690007A838B839C832D833E834F83588789E0A5
:1006A000E82EF12CEC0EFD1ECE010196B7010E9442
:1006B000CA048E010F5E1F4FCE010596B8010E943D
:1006C000CA048985823040F08989823028F0C701C8
:1006D000B8010E94420501C08FEF6896E6E00C94D5
:1006E0002C0EA8E1B0E0E7E7F3E00C94100E69836C
:1006F0007A838B839C832D833E834F83588789E045
:10070000E82EF12CEC0EFD1ECE010196B7010E94E1
:10071000CA048E010F5E1F4FCE010596B8010E94DC
:10072000CA048985823040F08989823028F0C70167
:10073000B8010E94420501C081E06896E6E00C9491
:100740002C0EACE0B0E0E7EAF3E00C94140E698301
:100750007A838B839C83CE010196BE016B5F7F4FB2
:100760000E94CA048D81823061F1823050F1843060
:1007700021F48E81882351F12EC02F81388537FDD9
:1007800020C06E812F3131051CF06623F9F023C0A3
:100790008EE190E0821B930B29853A854B855C8521
:1007A00004C056954795379527958A95D2F76623C5
:1007B000B1F050954095309521953F4F4F4F5F4F89
:1007C0000EC020E030E040E050E009C02FEF3FEFE6
:1007D0004FEF5FE704C020E030E040E050E8B901AF
:1007E000CA012C96E2E00C94300EDF92EF92FF9259
:1007F0000F931F93FC01E480F58006811781D1805F
:100800008081823048F480E090E0A0E1B0E0E82A06
:10081000F92A0A2B1B2BA5C0843009F49FC0823013
:1008200021F4EE24FF24870105C0E114F104010541
:10083000110519F4E0E0F0E096C0628173819FEF4A
:10084000623879070CF05BC022E83FEF261B370BBC
:100850002A3131052CF020E030E040E050E02AC0A1
:10086000B801A701022E04C0769567955795479564
:100870000A94D2F781E090E0A0E0B0E004C0880FD5
:10088000991FAA1FBB1F2A95D2F70197A109B10989
:100890008E219F21A023B1230097A105B10521F04E
:1008A00081E090E0A0E0B0E09A01AB01282B392B69
:1008B0004A2B5B2BDA01C9018F779070A070B07062
:1008C00080349105A105B10539F427FF09C0205CEA
:1008D0003F4F4F4F5F4F04C0215C3F4F4F4F5F4F23
:1008E000E0E0F0E02030A0E03A07A0E04A07A0E412
:1008F0005A0710F0E1E0F0E079018A0127C0603882
:10090000710564F5FB01E158FF4FD801C7018F77EE
:100910009070A070B07080349105A105B10539F4D4
:10092000E7FE0DC080E490E0A0E0B0E004C08FE3FB
:1009300090E0A0E0B0E0E80EF91E0A1F1B1F17FFB1
:1009400005C016950795F794E794319687E01695BC
:100950000795F794E7948A95D1F705C0EE24FF2414
:100960008701EFEFF0E06E2F679566276795902F70
:100970009F77D794DD24D7948E2F8695492F462BC9
:10098000582F5D29B701CA011F910F91FF90EF9079
:10099000DF900895FC01DB01408151812281622FAB
:1009A0006F7770E0221F2227221F9381892F880FE3
:1009B000822B282F30E0991F9927991F11969C931D
:1009C000119721153105A9F54115510561057105ED
:1009D00011F482E037C082E89FEF13969C938E93C8
:1009E00012979A01AB0167E0220F331F441F551F76
:1009F0006A95D1F783E08C930DC0220F331F441FFB
:100A0000551F12968D919C911397019713969C9365
:100A10008E931297203080E0380780E0480780E40A
:100A2000580758F314962D933D934D935C93179765
:100A300008952F3F310579F4411551056105710580
:100A400019F484E08C93089564FF03C081E08C93D3
:100A500012C01C9210C02F57304013963C932E9317
:100A6000129783E08C9387E0440F551F661F771F12
:100A70008A95D1F7706414964D935D936D937C9332
:100A8000179708951F93DC01FB019C91923008F4A5
:100A900047C08081823008F443C0943051F41196ED
:100AA0001C91843099F58181682F70E0611B710978
:100AB0003FC0843021F0923031F48230B9F181812D
:100AC000882389F12DC011961C9111978230F1F085
:100AD00081811817D9F412962D913C911397828138
:100AE00093818217930794F028173907BCF0149666
:100AF0008D919D910D90BC91A02D248135814681D1
:100B00005781281739074A075B0718F4112341F06A
:100B10000AC082179307A407B50740F4112319F000
:100B200061E070E005C06FEF7FEF02C060E070E051
:100B3000CB011F910895DF93CF93CDB7DEB7EAE3E2
:100B4000F0E08CE08083E7E3F0E087E78083E4E394
:100B5000F0E01082E1E3F0E01082EBE3F0E08CE003
:100B60008083E8E3F0E080E68083E5E3F0E0108254
:100B7000E2E3F0E01082CF91DF910895DF93CF930D
:100B8000CDB7DEB72E970FB6F894DEBF0FBECDBF40
:100B90008A836B834C8381E089838A81843008F067
:100BA0000CC18B81883008F008C18C81813021F024
:100BB0008C81882309F001C18A81282F30E03E878B
:100BC0002D878D859E858130910509F44FC02D8537
:100BD0003E85223031052CF48D859E85009771F07D
:100BE000EDC02D853E852230310509F477C08D8515
:100BF0009E858330910509F4A9C0E0C08C81282F1F
:100C000030E03C872B878B859C850097D1F02B8526
:100C10003C852130310509F0D1C0AAE3B0E0EAE318
:100C2000F0E08081482F8B81282F30E081E090E038
:100C3000022E02C0880F991F0A94E2F7842B8C932E
:100C4000BDC0AAE3B0E0EAE3F0E08081482F8B81E9
:100C5000282F30E081E090E0022E02C0880F991F1B
:100C60000A94E2F7809584238C93A8C08C81282F66
:100C700030E03A87298789859A850097D1F02985C0
:100C80003A852130310509F099C0A7E3B0E0E7E3E8
:100C9000F0E08081482F8B81282F30E081E090E0C8
:100CA000022E02C0880F991F0A94E2F7842B8C93BE
:100CB00085C0A7E3B0E0E7E3F0E08081482F8B81B7
:100CC000282F30E081E090E0022E02C0880F991FAB
:100CD0000A94E2F7809584238C9370C08C81282F2E
:100CE00030E038872F838F8198850097D1F02F814E
:100CF00038852130310509F061C0A4E3B0E0E4E3B8
:100D0000F0E08081482F8B81282F30E081E090E057
:100D1000022E02C0880F991F0A94E2F7842B8C934D
:100D20004DC0A4E3B0E0E4E3F0E08081482F8B8184
:100D3000282F30E081E090E0022E02C0880F991F3A
:100D40000A94E2F7809584238C9338C08C81282FF5
:100D500030E03E832D838D819E810097C9F02D81E7
:100D60003E812130310551F5A1E3B0E0E1E3F0E04F
:100D70008081482F8B81282F30E081E090E0022E87
:100D800002C0880F991F0A94E2F7842B8C9316C037
:100D9000A1E3B0E0E1E3F0E08081482F8B81282FD0
:100DA00030E081E090E0022E02C0880F991F0A9483
:100DB000E2F7809584238C9301C0198289812E9655
:100DC0000FB6F894DEBF0FBECDBFCF91DF9108956F
:100DD000DF93CF93CDB7DEB72E970FB6F894DEBF73
:100DE0000FBECDBF8A836B834C8381E089838B8167
:100DF000883008F008C18A81282F30E03E872D878F
:100E00008D859E858130910509F450C02D853E85E4
:100E1000223031052CF48D859E85009771F0F1C04C
:100E20002D853E852230310509F479C08D859E855A
:100E30008330910509F4ACC0E4C08C81282F30E0E8
:100E40003C872B878B859C850097C9F02B853C853B
:100E50002130310549F5ABE3B0E0EBE3F0E0808110
:100E6000482F8B81282F30E081E090E0022E02C0D5
:100E7000880F991F0A94E2F7842B8C93C5C0ABE3CB
:100E8000B0E0EBE3F0E08081482F8B81282F30E049
:100E900081E090E0022E02C0880F991F0A94E2F7C9
:100EA000809584238C93B0C01982AEC08C81282F8A
:100EB00030E03A87298789859A850097C9F0298586
:100EC0003A852130310549F5A8E3B0E0E8E3F0E0E8
:100ED0008081482F8B81282F30E081E090E0022E26
:100EE00002C0880F991F0A94E2F7842B8C938CC060
:100EF000A8E3B0E0E8E3F0E08081482F8B81282F61
:100F000030E081E090E0022E02C0880F991F0A9421
:100F1000E2F7809584238C9377C0198275C08C8109
:100F2000282F30E038872F838F8198850097C9F06C
:100F30002F8138852130310549F5A5E3B0E0E5E39F
:100F4000F0E08081482F8B81282F30E081E090E015
:100F5000022E02C0880F991F0A94E2F7842B8C930B
:100F600053C0A5E3B0E0E5E3F0E08081482F8B813A
:100F7000282F30E081E090E0022E02C0880F991FF8
:100F80000A94E2F7809584238C933EC019823CC07A
:100F90008C81282F30E03E832D838D819E810097A8
:100FA000C9F02D813E812130310549F5A2E3B0E041
:100FB000E2E3F0E08081482F8B81282F30E081E050
:100FC00090E0022E02C0880F991F0A94E2F7842B4A
:100FD0008C931AC0A2E3B0E0E2E3F0E08081482FF6
:100FE0008B81282F30E081E090E0022E02C0880F34
:100FF000991F0A94E2F7809584238C9305C0198287
:1010000003C0198201C0198289812E960FB6F89407
:10101000DEBF0FBECDBFCF91DF910895DF93CF9399
:10102000CDB7DEB728970FB6F894DEBF0FBECDBFA1
:101030008B836C835E834D8381E08A838B818430D4
:1010400008F09FC08C81883008F09BC08D819E8104
:10105000009709F496C08B81282F30E038872F83C2
:101060004F81588541305105A9F18F819885823093
:10107000910534F42F8138852115310571F082C036
:101080004F8158854230510509F441C08F819885C0
:101090008330910509F458C075C0E9E3F0E0808120
:1010A000282F30E08C81882F90E0A90102C055954F
:1010B00047958A95E2F7CA018170898389818823DF
:1010C00021F4ED81FE8110825DC0ED81FE8181E021
:1010D000808358C0E6E3F0E08081282F30E08C81E7
:1010E000882F90E0A90102C0559547958A95E2F7AF
:1010F000CA01817089838981882321F4ED81FE8171
:10110000108240C0ED81FE8181E080833BC0E3E33B
:10111000F0E08081282F30E08C81882F90E0A901B9
:1011200002C0559547958A95E2F7CA018170898377
:101130008981882321F4ED81FE81108223C0ED8115
:10114000FE8181E080831EC0E0E3F0E08081282FF3
:1011500030E08C81882F90E0A90102C05595479519
:101160008A95E2F7CA01817089838981882321F4F5
:10117000ED81FE81108206C0ED81FE8181E08083D9
:1011800001C01A828A8128960FB6F894DEBF0FBE7E
:10119000CDBFCF91DF910895DF93CF93CDB7DEB769
:1011A0002D970FB6F894DEBF0FBECDBF8A836B8339
:1011B00081E089838B81813021F08B81882309F044
:1011C0007FC08A81282F30E03D872C878C859D85C4
:1011D0008130910571F12C853D85223031052CF44B
:1011E0008C859D85009769F069C02C853D852230EE
:1011F0003105B1F18C859D858330910509F447C097
:101200005DC08B81282F30E03B872A878A859B85AC
:10121000009759F02A853B852130310509F051C0EE
:10122000EAE3F0E08FEF80834CC0EAE3F0E0108265
:1012300048C08B81282F30E0398728878885998599
:10124000009751F02885398521303105D1F5E7E344
:10125000F0E08FEF808335C0E7E3F0E0108231C02B
:101260008B81282F30E03F832E838E819F810097D2
:1012700051F02E813F812130310519F5E4E3F0E092
:101280008FEF80831EC0E4E3F0E010821AC08B81F0
:10129000282F30E03D832C838C819D81009751F075
:1012A0002C813D812130310561F4E1E3F0E08FEFE5
:1012B000808307C0E1E3F0E0108203C0198201C01F
:1012C000198289812D960FB6F894DEBF0FBECDBF6F
:1012D000CF91DF910895DF93CF9300D000D00F928C
:1012E000CDB7DEB78A836B8381E089838A81282F1B
:1012F00030E03D832C838C819D8181309105D1F03C
:101300002C813D81223031052CF48C819D81009708
:1013100061F01FC02C813D812230310581F08C812C
:101320009D818330910581F014C0EBE3F0E08B8167
:10133000808310C0E8E3F0E08B8180830BC0E5E39D
:10134000F0E08B81808306C0E2E3F0E08B81808354
:1013500001C0198289810F900F900F900F900F900C
:10136000CF91DF910895DF93CF9300D000D000D0CC
:10137000CDB7DEB78A837C836B8381E089838B81E1
:101380009C810097E9F18A81282F30E03E832D83EC
:101390008D819E8181309105E1F02D813E81223049
:1013A00031052CF48D819E81009761F027C02D813D
:1013B0003E8122303105A1F08D819E8183309105DF
:1013C000B1F01CC0E9E3F0E08081EB81FC81808317
:1013D00018C0E6E3F0E08081EB81FC81808311C0DE
:1013E000E3E3F0E08081EB81FC8180830AC0E0E3ED
:1013F000F0E08081EB81FC81808303C0198201C011
:101400001982898126960FB6F894DEBF0FBECDBF34
:10141000CF91DF910895DF93CF9300D000D00F924A
:10142000CDB7DEB78A836B8381E089838A8184307C
:1014300008F073C08B81883008F06FC08A81282F34
:1014400030E03D832C838C819D818130910549F171
:101450002C813D81223031052CF48C819D810097B7
:1014600061F05CC02C813D812230310571F18C81AD
:101470009D8183309105E9F151C0ABE3B0E0EBE32E
:10148000F0E08081482F8B81282F30E081E090E0D0
:10149000022E02C0880F991F0A94E2F784278C93CA
:1014A0003DC0A8E3B0E0E8E3F0E08081482F8B8105
:1014B000282F30E081E090E0022E02C0880F991FB3
:1014C0000A94E2F784278C9329C0A5E3B0E0E5E312
:1014D000F0E08081482F8B81282F30E081E090E080
:1014E000022E02C0880F991F0A94E2F784278C937A
:1014F00015C0A2E3B0E0E2E3F0E08081482F8B81E9
:10150000282F30E081E090E0022E02C0880F991F62
:101510000A94E2F784278C9301C0198289810F9085
:101520000F900F900F900F90CF91DF910895DF9360
:10153000CF9300D000D00F92CDB7DEB78A836B83F4
:101540008B81807F8B8381E089838A81843008F05E
:101550005FC08A81282F30E03D832C838C819D8160
:101560008130910529F12C813D81223031052CF407
:101570008C819D81009761F04CC02C813D8122308F
:10158000310531F18C819D818330910589F141C014
:10159000ABE3B0E0EBE3F0E080818F708C93ABE3E2
:1015A000B0E0EBE3F0E090818B81892B8C9331C02C
:1015B000A8E3B0E0E8E3F0E080818F708C93A8E3CB
:1015C000B0E0E8E3F0E090818B81892B8C9321C01F
:1015D000A5E3B0E0E5E3F0E080818F708C93A5E3B4
:1015E000B0E0E5E3F0E090818B81892B8C9311C012
:1015F000A2E3B0E0E2E3F0E080818F708C93A5E39A
:10160000B0E0E5E3F0E090818B81892B8C9301C001
:10161000198289810F900F900F900F900F90CF91AA
:10162000DF910895DF93CF9300D000D00F92CDB714
:10163000DEB78A836B838B818F708B8381E0898394
:101640008A81843008F05FC08A81282F30E03D8392
:101650002C838C819D818130910529F12C813D81E4
:10166000223031052CF48C819D81009761F04CC0B3
:101670002C813D812230310531F18C819D81833077
:10168000910589F141C0ABE3B0E0EBE3F0E080818C
:10169000807F8C93ABE3B0E0EBE3F0E090818B8153
:1016A000892B8C9331C0A8E3B0E0E8E3F0E08081BF
:1016B000807F8C93A8E3B0E0E8E3F0E090818B8139
:1016C000892B8C9321C0A5E3B0E0E5E3F0E08081B5
:1016D000807F8C93A5E3B0E0E5E3F0E090818B811F
:1016E000892B8C9311C0A2E3B0E0E2E3F0E08081AB
:1016F000807F8C93A2E3B0E0E2E3F0E090818B8105
:10170000892B8C9301C0198289810F900F900F90C3
:101710000F900F90CF91DF910895DF93CF93CDB7C6
:10172000DEB764970FB6F894DEBF0FBECDBF8F87CC
:10173000688B8F85282F30E03C8B2B8B8B899C8985
:101740008230910561F12B893C892330310534F4D5
:101750008B899C898130910569F05FC02B893C8918
:101760002330310589F18B899C898430910509F4F6
:1017700040C053C080E063E040E00E94E80680E0A3
:1017800062E041E00E94E80681E065E041E00E94FD
:10179000E80681E066E041E00E94E8063EC080E0A5
:1017A00063E041E00E94E80680E062E040E00E94E1
:1017B000E80681E065E041E00E94E80681E066E03D
:1017C00041E00E94E80629C080E063E041E00E9419
:1017D000E80680E062E041E00E94E80681E065E022
:1017E00040E00E94E80681E066E041E00E94E806F1
:1017F00014C080E063E041E00E94E80680E062E01F
:1018000041E00E94E80681E065E041E00E94E806D0
:1018100081E066E040E00E94E8068889282F30E0F9
:101820003A8B298B89899A898430910509F49BC068
:1018300029893A8925303105ECF489899A898130E2
:10184000910509F451C029893A89223031052CF4D7
:1018500089899A89009799F103C129893A892230A7
:10186000310509F456C089899A898330910509F4B4
:1018700065C0F6C029893A892730310509F4B2C01C
:1018800089899A89883091056CF429893A892530AB
:10189000310509F47DC089899A898630910509F45A
:1018A0008CC0DEC029893A892830310509F4AFC0DF
:1018B00089899A898930910509F4BEC0D1C081E037
:1018C00060E040E00E94E80681E061E040E00E94C4
:1018D000E80681E062E040E00E94E80681E064E022
:1018E00040E00E94E806BCC081E060E041E00E9468
:1018F000E80681E061E040E00E94E80681E062E005
:1019000040E00E94E80681E064E040E00E94E806D2
:10191000A7C081E060E040E00E94E80681E061E06D
:1019200041E00E94E80681E062E040E00E94E806B3
:1019300081E064E040E00E94E80692C081E060E05F
:1019400041E00E94E80681E061E041E00E94E80693
:1019500081E062E040E00E94E80681E064E040E06F
:101960000E94E8067DC081E060E040E00E94E80659
:1019700081E061E040E00E94E80681E062E041E051
:101980000E94E80681E064E040E00E94E80668C04A
:1019900081E060E041E00E94E80681E061E040E033
:1019A0000E94E80681E062E041E00E94E80681E0F2
:1019B00064E040E00E94E80653C081E060E040E05F
:1019C0000E94E80681E061E041E00E94E80681E0D3
:1019D00062E041E00E94E80681E064E040E00E94AD
:1019E000E8063EC081E060E041E00E94E80681E058
:1019F00061E041E00E94E80681E062E041E00E948F
:101A0000E80681E064E040E00E94E80629C081E049
:101A100060E040E00E94E80681E061E040E00E9472
:101A2000E80681E062E040E00E94E80681E064E0D0
:101A300041E00E94E80614C081E060E041E00E94BD
:101A4000E80681E061E040E00E94E80681E062E0B3
:101A500040E00E94E80681E064E041E00E94E80680
:101A600080E090E0A0EAB0E48B879C87AD87BE87DA
:101A70006B857C858D859E8520E030E04AE755E4C6
:101A80000E941702DC01CB018F839887A987BA8750
:101A90006F81788589859A8520E030E040E85FE3B2
:101AA0000E94710388232CF481E090E09E838D8353
:101AB0003FC06F81788589859A8520E03FEF4FE7A9
:101AC00057E40E94110318164CF56B857C858D85B3
:101AD0009E8520E030E040E251E40E941702DC01E4
:101AE000CB01BC01CD010E944100DC01CB019E83F2
:101AF0008D830FC080E991E09C838B838B819C81D7
:101B00000197F1F79C838B838D819E8101979E8342
:101B10008D838D819E81009769F714C06F817885D0
:101B200089859A850E944100DC01CB019E838D83CB
:101B30008D819E819A83898389819A810197F1F7AA
:101B40009A83898364960FB6F894DEBF0FBECDBF2B
:101B5000CF91DF910895DF93CF9300D00F92CDB74F
:101B6000DEB79B838A8384E0898319C08A819B8145
:101B70002AE030E0B9010E94F00D982F8981692F89
:101B80000E948D0B8981815089838A819B812AE003
:101B900030E0B9010E94F00DCB019B838A838A81DA
:101BA0009B81009719F70F900F900F90CF91DF91C5
:101BB0000895DF93CF93CDB7DEB70E949B0581E0F8
:101BC00069E00E948D0B82E068E00E948D0B83E04B
:101BD00067E00E948D0B84E065E00E948D0BEFCFE3
:101BE000AA1BBB1B51E107C0AA1FBB1FA617B70743
:101BF00010F0A61BB70B881F991F5A95A9F780955F
:101C00009095BC01CD0108952F923F924F925F9223
:101C10006F927F928F929F92AF92BF92CF92DF92FC
:101C2000EF92FF920F931F93CF93DF93CDB7DEB761
:101C3000CA1BDB0B0FB6F894DEBF0FBECDBF0994F5
:101C40002A88398848885F846E847D848C849B844C
:101C5000AA84B984C884DF80EE80FD800C811B815A
:101C6000AA81B981CE0FD11D0FB6F894DEBF0FBE89
:0A1C7000CDBFED010895F894FFCFF9
:081C7A00000000000000000062
:00000001FF
