:100000000C942A000C9447000C9447000C94470071
:100010000C9447000C9447000C9447000C94470044
:100020000C9447000C9447000C9447000C94D21396
:100030000C9447000C9447000C9447000C94470024
:100040000C9447000C9447000C9447000C94470014
:100050000C94470011241FBECFE5D8E0DEBFCDBF12
:1000600010E0A0E6B0E0E4E3F9E202C005900D92F2
:10007000A439B107D9F710E0A4E9B0E001C01D929E
:10008000A839B107E1F70E941E140C9498140C943F
:100090000000EF92FF920F931F937B018C0120E0F1
:1000A00030E040E05FE40E94F50388238CF0C80153
:1000B000B70120E030E040E05FE40E94C1010E940F
:1000C00055049B01AC01205030404040504806C0D0
:1000D000C801B7010E9455049B01AC01B901CA01D6
:1000E0001F910F91FF90EF900895A0E0B0E0EBE733
:1000F000F0E00C946114DC012B01FA019C91923028
:1001000008F439C1EB018881823008F433C194309E
:1001100069F4843009F02FC111969C91119789815F
:10012000981709F428C1A3E7B0E025C1843009F489
:1001300021C18230A9F4923009F01DC19A01AD01AC
:1001400088E0EA010990AE01E90109929E0181501F
:10015000C1F7E201898111969C918923818308C1AD
:10016000923009F407C112962D903C901397EB0141
:100170008A819B811496AD90BD90CD90DC901797AD
:10018000EC80FD800E811F819101281B390BB90184
:1001900037FF04C066277727621B730B6032710537
:1001A0000CF061C0121613066CF537014801062EDB
:1001B00004C096948794779467940A94D2F721E0C8
:1001C00030E040E050E004C0220F331F441F551FB1
:1001D0006A95D2F721503040404050402E213F21B7
:1001E00040235123211531054105510521F021E01E
:1001F00030E040E050E079018A01E628F72808293C
:1002000019293CC0232BD1F1260E371E350146019A
:10021000062E04C096948794779467940A94D2F734
:1002200021E030E040E050E004C0220F331F441FC3
:10023000551F6A95D2F721503040404050402A2146
:100240003B214C215D21211531054105510521F04E
:1002500021E030E040E050E059016A01A628B728CB
:10026000C828D9280BC0821593052CF01C01AA249C
:10027000BB24650103C0EE24FF24870111969C91E5
:10028000D20111968C91981709F445C0992339F041
:10029000A80197012A193B094C095D0906C0A6016E
:1002A00095012E193F09400B510B57FD08C01182D3
:1002B0003382228224833583468357831DC081E0A5
:1002C00081833382228288279927DC01821B930B4A
:1002D000A40BB50B84839583A683B7830DC0220F2F
:1002E000331F441F551F24833583468357838281E0
:1002F000938101979383828324813581468157813D
:10030000DA01C9010197A109B1098F5F9F4FAF4F72
:10031000BF4328F30BC0918333822282EA0CFB1C7B
:100320000C1D1D1DE482F5820683178383E0808304
:10033000248135814681578157FF1AC0C901AA27F8
:1003400097FDA095BA2F81709070A070B0705695EF
:10035000479537952795822B932BA42BB52B848318
:100360009583A683B7838281938101969383828349
:10037000DF0101C0D201CD01CDB7DEB7E2E10C94BF
:100380007D14A0E2B0E0E7ECF1E00C946D14698319
:100390007A838B839C832D833E834F835887E9E048
:1003A000EE2EF12CEC0EFD1ECE010196B7010E943F
:1003B0007E058E010F5E1F4FCE010596B8010E948B
:1003C0007E058A8991E089278A8BC701B801AE0131
:1003D000475E5F4F0E9475000E94A904A096E6E068
:1003E0000C948914A0E2B0E0E8EFF1E00C946D14F5
:1003F00069837A838B839C832D833E834F835887C5
:10040000F9E0EF2EF12CEC0EFD1ECE010196B701A6
:100410000E947E058E010F5E1F4FCE010596B8012A
:100420000E947E05C701B801AE01475E5F4F0E9482
:1004300075000E94A904A096E6E00C948914A0E23D
:10044000B0E0E5E2F2E00C94611469837A838B8377
:100450009C832D833E834F835887CE010196BE0136
:10046000675F7F4F0E947E05CE010596BE016F5EDD
:100470007F4F0E947E059985923088F0898982306D
:10048000C8F0943019F4823051F404C0843029F457
:10049000923081F483E790E0C6C0923049F420E0C6
:1004A0009A858A89981321E02A87CE010996BBC0D4
:1004B000823049F420E09A858A89981321E02A8BBA
:1004C000CE014196B0C02D843E844F8458886D88FB
:1004D0007E888F88988CEE24FF248701AA24BB2471
:1004E000650140E050E060E070E0E0E0F0E0C10174
:1004F00081709070892BE9F0E60CF71C081D191D1E
:100500009A01AB012A0D3B1D4C1D5D1D80E090E062
:10051000A0E0B0E0E614F7040805190520F481E036
:1005200090E0A0E0B0E0BA01A901480F591F6A1F8E
:100530007B1FAA0CBB1CCC1CDD1C97FE08C081E0F5
:1005400090E0A0E0B0E0A82AB92ACA2ADB2A3196B6
:10055000E032F10549F0660C771C881C991C569412
:10056000479437942794C3CFFA85EA892B893C892D
:100570008B859C85280F391F2E5F3F4F17C0CA01FE
:1005800081709070892B61F016950795F794E79428
:1005900080E090E0A0E0B0E8E82AF92A0A2B1B2BC3
:1005A00076956795579547952F5F3F4F77FDE7CF36
:1005B0000CC0440F551F661F771F17FD4160EE0CDE
:1005C000FF1C001F111F21503040403090E05907A0
:1005D00090E0690790E4790760F32B8F3C8FDB0193
:1005E000CA018F779070A070B07080349105A1051A
:1005F000B10561F447FD0AC0E114F10401051105DC
:1006000029F0405C5F4F6F4F7F4F40781A8EFE1786
:1006100011F081E08A8F4D8F5E8F6F8F78A383E01A
:10062000898FCE0149960E94A904A096E2E10C941C
:100630007D14A8E1B0E0EFE1F3E00C946914698364
:100640007A838B839C832D833E834F835887B9E0C5
:10065000EB2EF12CEC0EFD1ECE010196B7010E948F
:100660007E058E010F5E1F4FCE010596B8010E94D8
:100670007E052985223008F47EC03989323010F495
:10068000B8017CC08A859A8989278A87243011F02D
:10069000223031F4231709F06EC063E770E06EC0BA
:1006A000343039F41D861E861F86188A1C861B86E8
:1006B00004C0323021F484E08987B7015FC02B8504
:1006C0003C858B899C89281B390B3C872B87ED84C3
:1006D000FE840F851889AD88BE88CF88D88CEA142F
:1006E000FB040C051D0540F4EE0CFF1C001F111F40
:1006F000215030403C872B8720E030E040E050E044
:1007000080E090E0A0E0B0E460E070E0EA14FB0478
:100710000C051D0540F0282B392B4A2B5B2BEA18C2
:10072000FB080C091D09B695A79597958795EE0CC2
:10073000FF1C001F111F6F5F7F4F6F31710531F775
:10074000DA01C9018F779070A070B0708034910584
:10075000A105B10561F427FD0AC0E114F10401050A
:10076000110529F0205C3F4F4F4F5F4F20782D87B8
:100770003E874F87588BBE01675F7F4FCB010E943A
:10078000A9046896EAE00C948514A8E1B0E0EBECCB
:10079000F3E00C946D1469837A838B839C832D839F
:1007A0003E834F83588789E0E82EF12CEC0EFD1E26
:1007B000CE010196B7010E947E058E010F5E1F4F8C
:1007C000CE010596B8010E947E058985823040F0F1
:1007D0008989823028F0C701B8010E94F60501C05E
:1007E0008FEF6896E6E00C948914A8E1B0E0EBEF97
:1007F000F3E00C946D1469837A838B839C832D833F
:100800003E834F83588789E0E82EF12CEC0EFD1EC5
:10081000CE010196B7010E947E058E010F5E1F4F2B
:10082000CE010596B8010E947E058985823040F090
:100830008989823028F0C701B8010E94F60501C0FD
:100840008FEF6896E6E00C948914A8E1B0E0EBE243
:10085000F4E00C946D1469837A838B839C832D83DD
:100860003E834F83588789E0E82EF12CEC0EFD1E65
:10087000CE010196B7010E947E058E010F5E1F4FCB
:10088000CE010596B8010E947E058985823040F030
:100890008989823028F0C701B8010E94F60501C09D
:1008A00081E06896E6E00C948914ACE0B0E0EBE5FA
:1008B000F4E00C94711469837A838B839C83CE015A
:1008C0000196BE016B5F7F4F0E947E058D81823055
:1008D00061F1823050F1843021F48E81882351F10E
:1008E0002EC02F81388537FD20C06E812F31310514
:1008F0001CF06623F9F023C08EE190E0821B930B7D
:1009000029853A854B855C8504C056954795379572
:1009100027958A95D2F76623B1F05095409530958A
:1009200021953F4F4F4F5F4F0EC020E030E040E039
:1009300050E009C02FEF3FEF4FEF5FE704C020E02A
:1009400030E040E050E8B901CA012C96E2E00C9496
:100950008D14DF92EF92FF920F931F93FC01E480BE
:10096000F58006811781D1808081823048F480E053
:1009700090E0A0E1B0E0E82AF92A0A2B1B2BA5C0E1
:10098000843009F49FC0823021F4EE24FF248701D3
:1009900005C0E114F1040105110519F4E0E0F0E0EF
:1009A00096C0628173819FEF623879070CF05BC05B
:1009B00022E83FEF261B370B2A3131052CF020E0CF
:1009C00030E040E050E02AC0B801A701022E04C088
:1009D00076956795579547950A94D2F781E090E010
:1009E000A0E0B0E004C0880F991FAA1FBB1F2A9582
:1009F000D2F70197A109B1098E219F21A023B1232C
:100A00000097A105B10521F081E090E0A0E0B0E001
:100A10009A01AB01282B392B4A2B5B2BDA01C90138
:100A20008F779070A070B07080349105A105B105EA
:100A300039F427FF09C0205C3F4F4F4F5F4F04C080
:100A4000215C3F4F4F4F5F4FE0E0F0E02030A0E0EF
:100A50003A07A0E04A07A0E45A0710F0E1E0F0E00E
:100A600079018A0127C06038710564F5FB01E158FE
:100A7000FF4FD801C7018F779070A070B07080349D
:100A80009105A105B10539F4E7FE0DC080E490E0C1
:100A9000A0E0B0E004C08FE390E0A0E0B0E0E80E9A
:100AA000F91E0A1F1B1F17FF05C016950795F7941F
:100AB000E794319687E016950795F794E7948A9521
:100AC000D1F705C0EE24FF248701EFEFF0E06E2F91
:100AD000679566276795902F9F77D794DD24D794E5
:100AE0008E2F8695492F462B582F5D29B701CA01B5
:100AF0001F910F91FF90EF90DF900895FC01DB01B3
:100B0000408151812281622F6F7770E0221F22275E
:100B1000221F9381892F880F822B282F30E0991F65
:100B20009927991F11969C93119721153105A9F5C5
:100B3000411551056105710511F482E037C082E865
:100B40009FEF13969C938E9312979A01AB0167E0E7
:100B5000220F331F441F551F6A95D1F783E08C93F2
:100B60000DC0220F331F441F551F12968D919C916B
:100B70001397019713969C938E931297203080E0E1
:100B8000380780E0480780E4580758F314962D93FF
:100B90003D934D935C93179708952F3F310579F45A
:100BA000411551056105710519F484E08C93089590
:100BB00064FF03C081E08C9312C01C9210C02F57B9
:100BC000304013963C932E93129783E08C9387E0EA
:100BD000440F551F661F771F8A95D1F770641496CE
:100BE0004D935D936D937C93179708951F93DC014C
:100BF000FB019C91923008F447C08081823008F458
:100C000043C0943051F411961C91843099F5818140
:100C1000682F70E0611B71093FC0843021F0923071
:100C200031F48230B9F18181882389F12DC0119688
:100C30001C9111978230F1F081811817D9F4129626
:100C40002D913C911397828193818217930794F0A1
:100C500028173907BCF014968D919D910D90BC9189
:100C6000A02D2481358146815781281739074A07ED
:100C70005B0718F4112341F00AC082179307A407F9
:100C8000B50740F4112319F061E070E005C06FEF83
:100C90007FEF02C060E070E0CB011F910895DF9309
:100CA000CF93CDB7DEB7EAE3F0E01082E7E3F0E000
:100CB0001082E4E3F0E01082E1E3F0E01082EBE385
:100CC000F0E01082E8E3F0E01082E5E3F0E010826B
:100CD000E2E3F0E01082CF91DF910895DF93CF93AC
:100CE000CDB7DEB72E970FB6F894DEBF0FBECDBFDF
:100CF0008A836B834C8381E089838A81843008F006
:100D00000CC18B81883008F008C18C81813021F0C2
:100D10008C81882309F001C18A81282F30E03E8729
:100D20002D878D859E858130910509F44FC02D85D5
:100D30003E85223031052CF48D859E85009771F01B
:100D4000EDC02D853E852230310509F477C08D85B3
:100D50009E858330910509F4A9C0E0C08C81282FBD
:100D600030E03C872B878B859C850097D1F02B85C5
:100D70003C852130310509F0D1C0AAE3B0E0EAE3B7
:100D8000F0E08081482F8B81282F30E081E090E0D7
:100D9000022E02C0880F991F0A94E2F7842B8C93CD
:100DA000BDC0AAE3B0E0EAE3F0E08081482F8B8188
:100DB000282F30E081E090E0022E02C0880F991FBA
:100DC0000A94E2F7809584238C93A8C08C81282F05
:100DD00030E03A87298789859A850097D1F029855F
:100DE0003A852130310509F099C0A7E3B0E0E7E387
:100DF000F0E08081482F8B81282F30E081E090E067
:100E0000022E02C0880F991F0A94E2F7842B8C935C
:100E100085C0A7E3B0E0E7E3F0E08081482F8B8155
:100E2000282F30E081E090E0022E02C0880F991F49
:100E30000A94E2F7809584238C9370C08C81282FCC
:100E400030E038872F838F8198850097D1F02F81EC
:100E500038852130310509F061C0A4E3B0E0E4E356
:100E6000F0E08081482F8B81282F30E081E090E0F6
:100E7000022E02C0880F991F0A94E2F7842B8C93EC
:100E80004DC0A4E3B0E0E4E3F0E08081482F8B8123
:100E9000282F30E081E090E0022E02C0880F991FD9
:100EA0000A94E2F7809584238C9338C08C81282F94
:100EB00030E03E832D838D819E810097C9F02D8186
:100EC0003E812130310551F5A1E3B0E0E1E3F0E0EE
:100ED0008081482F8B81282F30E081E090E0022E26
:100EE00002C0880F991F0A94E2F7842B8C9316C0D6
:100EF000A1E3B0E0E1E3F0E08081482F8B81282F6F
:100F000030E081E090E0022E02C0880F991F0A9421
:100F1000E2F7809584238C9301C0198289812E96F3
:100F20000FB6F894DEBF0FBECDBFCF91DF9108950D
:100F3000DF93CF93CDB7DEB72E970FB6F894DEBF11
:100F40000FBECDBF8A836B834C8381E089838B8105
:100F5000883008F008C18A81282F30E03E872D872D
:100F60008D859E858130910509F450C02D853E8583
:100F7000223031052CF48D859E85009771F0F1C0EB
:100F80002D853E852230310509F479C08D859E85F9
:100F90008330910509F4ACC0E4C08C81282F30E087
:100FA0003C872B878B859C850097C9F02B853C85DA
:100FB0002130310549F5ABE3B0E0EBE3F0E08081AF
:100FC000482F8B81282F30E081E090E0022E02C074
:100FD000880F991F0A94E2F7842B8C93C5C0ABE36A
:100FE000B0E0EBE3F0E08081482F8B81282F30E0E8
:100FF00081E090E0022E02C0880F991F0A94E2F768
:10100000809584238C93B0C01982AEC08C81282F28
:1010100030E03A87298789859A850097C9F0298524
:101020003A852130310549F5A8E3B0E0E8E3F0E086
:101030008081482F8B81282F30E081E090E0022EC4
:1010400002C0880F991F0A94E2F7842B8C938CC0FE
:10105000A8E3B0E0E8E3F0E08081482F8B81282FFF
:1010600030E081E090E0022E02C0880F991F0A94C0
:10107000E2F7809584238C9377C0198275C08C81A8
:10108000282F30E038872F838F8198850097C9F00B
:101090002F8138852130310549F5A5E3B0E0E5E33E
:1010A000F0E08081482F8B81282F30E081E090E0B4
:1010B000022E02C0880F991F0A94E2F7842B8C93AA
:1010C00053C0A5E3B0E0E5E3F0E08081482F8B81D9
:1010D000282F30E081E090E0022E02C0880F991F97
:1010E0000A94E2F7809584238C933EC019823CC019
:1010F0008C81282F30E03E832D838D819E81009747
:10110000C9F02D813E812130310549F5A2E3B0E0DF
:10111000E2E3F0E08081482F8B81282F30E081E0EE
:1011200090E0022E02C0880F991F0A94E2F7842BE8
:101130008C931AC0A2E3B0E0E2E3F0E08081482F94
:101140008B81282F30E081E090E0022E02C0880FD2
:10115000991F0A94E2F7809584238C9305C0198225
:1011600003C0198201C0198289812E960FB6F894A6
:10117000DEBF0FBECDBFCF91DF910895DF93CF9338
:10118000CDB7DEB728970FB6F894DEBF0FBECDBF40
:101190008B836C835E834D8381E08A838B81843073
:1011A00008F09FC08C81883008F09BC08D819E81A3
:1011B000009709F496C08B81282F30E038872F8361
:1011C0004F81588541305105A9F18F819885823032
:1011D000910534F42F8138852115310571F082C0D5
:1011E0004F8158854230510509F441C08F8198855F
:1011F0008330910509F458C075C0E9E3F0E08081BF
:10120000282F30E08C81882F90E0A90102C05595ED
:1012100047958A95E2F7CA0181708983898188237D
:1012200021F4ED81FE8110825DC0ED81FE8181E0BF
:10123000808358C0E6E3F0E08081282F30E08C8185
:10124000882F90E0A90102C0559547958A95E2F74D
:10125000CA01817089838981882321F4ED81FE810F
:10126000108240C0ED81FE8181E080833BC0E3E3DA
:10127000F0E08081282F30E08C81882F90E0A90158
:1012800002C0559547958A95E2F7CA018170898316
:101290008981882321F4ED81FE81108223C0ED81B4
:1012A000FE8181E080831EC0E0E3F0E08081282F92
:1012B00030E08C81882F90E0A90102C055954795B8
:1012C0008A95E2F7CA01817089838981882321F494
:1012D000ED81FE81108206C0ED81FE8181E0808378
:1012E00001C01A828A8128960FB6F894DEBF0FBE1D
:1012F000CDBFCF91DF910895DF93CF93CDB7DEB708
:101300002D970FB6F894DEBF0FBECDBF8A836B83D7
:1013100081E089838B81813021F08B81882309F0E2
:101320007FC08A81282F30E03D872C878C859D8562
:101330008130910571F12C853D85223031052CF4E9
:101340008C859D85009769F069C02C853D8522308C
:101350003105B1F18C859D858330910509F447C035
:101360005DC08B81282F30E03B872A878A859B854B
:10137000009759F02A853B852130310509F051C08D
:10138000EAE3F0E08FEF80834CC0EAE3F0E0108204
:1013900048C08B81282F30E0398728878885998538
:1013A000009751F02885398521303105D1F5E7E3E3
:1013B000F0E08FEF808335C0E7E3F0E0108231C0CA
:1013C0008B81282F30E03F832E838E819F81009771
:1013D00051F02E813F812130310519F5E4E3F0E031
:1013E0008FEF80831EC0E4E3F0E010821AC08B818F
:1013F000282F30E03D832C838C819D81009751F014
:101400002C813D812130310561F4E1E3F0E08FEF83
:10141000808307C0E1E3F0E0108203C0198201C0BD
:10142000198289812D960FB6F894DEBF0FBECDBF0D
:10143000CF91DF910895DF93CF9300D000D00F922A
:10144000CDB7DEB78A836B8381E089838A81282FB9
:1014500030E03D832C838C819D8181309105D1F0DA
:101460002C813D81223031052CF48C819D810097A7
:1014700061F01FC02C813D812230310581F08C81CB
:101480009D818330910581F014C0EBE3F0E08B8106
:10149000808310C0E8E3F0E08B8180830BC0E5E33C
:1014A000F0E08B81808306C0E2E3F0E08B818083F3
:1014B00001C0198289810F900F900F900F900F90AB
:1014C000CF91DF910895DF93CF9300D000D000D06B
:1014D000CDB7DEB78A837C836B8381E089838B8180
:1014E0009C810097E9F18A81282F30E03E832D838B
:1014F0008D819E8181309105E1F02D813E812230E8
:1015000031052CF48D819E81009761F027C02D81DB
:101510003E8122303105A1F08D819E81833091057D
:10152000B1F01CC0E9E3F0E08081EB81FC818083B5
:1015300018C0E6E3F0E08081EB81FC81808311C07C
:10154000E3E3F0E08081EB81FC8180830AC0E0E38B
:10155000F0E08081EB81FC81808303C0198201C0AF
:101560001982898126960FB6F894DEBF0FBECDBFD3
:10157000CF91DF910895DF93CF93CDB7DEB7AFE57D
:10158000B0E0EFE5F0E0808180688C93CF91DF914F
:101590000895DF93CF93CDB7DEB7AFE5B0E0EFE5C9
:1015A000F0E080818F778C93CF91DF910895DF9366
:1015B000CF93CDB7DEB765970FB6F894DEBF0FBEF9
:1015C000CDBF9D8B8C8B81E08A8B1F868C899D89FA
:1015D000009709F4F0C0EC89FD898FEF8083198AA8
:1015E000E5C08989882F90E0FC01E557FF4F908185
:1015F00080E0692F40E00E949807188AC1C088895E
:10160000882F90E0FC01E157FF4F90819E012D5EF5
:101610003F4F80E0692FA9010E94BE088B89882373
:1016200009F0ABC080E090E0A0EAB1E48B879C8732
:10163000AD87BE876B857C858D859E8520E030E0FB
:101640004AEF54E40E941F02DC01CB018F8398878C
:10165000A987BA876F81788589859A8520E030E0EF
:1016600040E85FE30E94250488232CF481E090E0A9
:101670009E838D833FC06F81788589859A8520E020
:101680003FEF4FE757E40E94C50318164CF56B85F2
:101690007C858D859E8520E030E040E251E40E940B
:1016A0001F02DC01CB01BC01CD010E944900DC011D
:1016B000CB019E838D830FC088EC90E09C838B834D
:1016C0008B819C810197F1F79C838B838D819E8117
:1016D00001979E838D838D819E81009769F714C049
:1016E0006F81788589859A850E944900DC01CB014C
:1016F0009E838D838D819E819A83898389819A813E
:101700000197F1F79A8389838889882F90E0FC01FB
:10171000E157FF4F90819E012D5E3F4F80E0692F82
:10172000A9010E94BE080FC08889882F90E0FC01A3
:10173000E157FF4F90819E012D5E3F4F80E0692F62
:10174000A9010E94BE088B89882371F38989482FDB
:1017500050E08889282F30E0CA01880F991F880F30
:10176000991F820F931FFC01E558FF4F8081EC8980
:10177000FD89808381E08F8707C088898F5F888B90
:101780008889843008F43BCF8989882F90E0FC0158
:10179000E557FF4F908180E0692F41E00E94980754
:1017A0008F85813049F089898F5F898B8989843061
:1017B00008F417CF01C01A8A8A8965960FB6F89483
:1017C000DEBF0FBECDBFCF91DF9108950F931F9362
:1017D000DF93CF93CDB7DEB7CC54D0400FB6F8949B
:1017E000DEBF0FBECDBFFE01E75BFF4F80E090E0A4
:1017F000ACE0B2E480839183A283B3838E010B5B60
:101800001F4FFE01E75BFF4F6081718182819381F1
:1018100020E030E04AEF54E40E941F02DC01CB01DB
:10182000F80180839183A283B383FE01EB5BFF4FBA
:10183000608171818281938120E030E040E85FE344
:101840000E942504882344F4FE01ED5BFF4F81E0F4
:1018500090E09183808364C0FE01EB5BFF4F608169
:1018600071818281938120E03FEF4FE757E40E942E
:10187000C50318160CF043C0FE01E75BFF4F608103
:1018800071818281938120E030E040E251E40E9446
:101890001F02DC01CB018E010D5B1F4FBC01CD018E
:1018A0000E944900DC01CB01F801918380831FC0B5
:1018B000FE01EF5BFF4F88EC90E091838083FE0197
:1018C000EF5BFF4F808191810197F1F7FE01EF5BA4
:1018D000FF4F91838083DE01AD5BBF4FFE01ED5B67
:1018E000FF4F80819181019711969C938E93FE0109
:1018F000ED5BFF4F808191810097D1F624C08E016E
:101900000D5B1F4FFE01EB5BFF4F60817181828198
:1019100093810E944900DC01CB01F801918380830F
:10192000FE01ED5BFF4F80819181FE01FF96918367
:101930008083FE01FF96808191810197F1F7FE017E
:10194000FF969183808388E30E94A90E80E090E057
:10195000A0E2B2E48BAF9CAFADAFBEAF6BAD7CADE0
:101960008DAD9EAD2BEA3AEA4AE250E40E941F0296
:10197000DC01CB018FAB98AFA9AFBAAF6FA978AD3F
:1019800089AD9AAD20E030E040E85FE30E94250495
:1019900088231CF481E08EAB91C06FA978AD89AD2E
:1019A0009AAD20E030E04FE753E40E94C5031816DB
:1019B0000CF07BC06BAD7CAD8DAD9EAD20E030E01A
:1019C0004AE754E40E941903DC01CB018AAB9BABCC
:1019D000ACABBDAB6AA97BA98CA99DA920E030E086
:1019E0004AEF54E40E941F02DC01CB018EA79FA79F
:1019F000A8ABB9AB6EA57FA588A999A920E030E076
:101A000040E85FE30E94250488232CF481E090E005
:101A10009DA78CA73FC06EA57FA588A999A920E0A6
:101A20003FEF4FE757E40E94C50318164CF56AA92B
:101A30007BA98CA99DA920E030E040E251E40E94FE
:101A40001F02DC01CB01BC01CD010E944900DC0179
:101A5000CB019DA78CA70FC088EC90E09BA78AA71D
:101A60008AA59BA50197F1F79BA78AA78CA59DA5A1
:101A700001979DA78CA78CA59DA5009769F724C009
:101A80006EA57FA588A999A90E944900DC01CB0118
:101A90009DA78CA78CA59DA599A788A788A599A582
:101AA0000197F1F799A788A70FC06FA978AD89AD05
:101AB0009AAD0E944900DC01CB018EAB8EA98FA3A9
:101AC0008FA18A95F1F78FA38EE00E94A90E80E086
:101AD00090E0A0E2B2E48BA39CA3ADA3BEA36BA154
:101AE0007CA18DA19EA12BEA3AEA4AE250E40E9431
:101AF0001F02DC01CB018F8F98A3A9A3BAA36F8D1E
:101B000078A189A19AA120E030E040E85FE30E943B
:101B1000250488231CF481E08E8F91C06F8D78A1FD
:101B200089A19AA120E030E04FE753E40E94C50369
:101B300018160CF07BC06BA17CA18DA19EA120E0AA
:101B400030E04AE754E40E941903DC01CB018A8F9C
:101B50009B8FAC8FBD8F6A8D7B8D8C8D9D8D20E092
:101B600030E04AEF54E40E941F02DC01CB018E8B6F
:101B70009F8BA88FB98F6E897F89888D998D20E082
:101B800030E040E85FE30E94250488232CF481E0E4
:101B900090E09D8B8C8B3FC06E897F89888D998D5D
:101BA00020E03FEF4FE757E40E94C50318164CF5BD
:101BB0006A8D7B8D8C8D9D8D20E030E040E251E47C
:101BC0000E941F02DC01CB01BC01CD010E94490033
:101BD000DC01CB019D8B8C8B0FC088EC90E09B8B44
:101BE0008A8B8A899B890197F1F79B8B8A8B8C89D9
:101BF0009D8901979D8B8C8B8C899D89009769F7B6
:101C000024C06E897F89888D998D0E944900DC01EE
:101C1000CB019D8B8C8B8C899D89998B888B888936
:101C200099890197F1F7998B888B0FC06F8D78A1F7
:101C300089A19AA10E944900DC01CB018E8F8E8D73
:101C40008F878F858A95F1F78F8781E00E94A90E93
:101C500080E090E0A0E0B0E48B879C87AD87BE87F2
:101C60006B857C858D859E8520E030E04AEF54E4CD
:101C70000E941F02DC01CB018F839887A987BA8756
:101C80006F81788589859A8520E030E040E85FE3C0
:101C90000E94250488232CF481E090E09E838D83AC
:101CA0003FC06F81788589859A8520E03FEF4FE7B7
:101CB00057E40E94C50318164CF56B857C858D850D
:101CC0009E8520E030E040E251E40E941F02DC01EA
:101CD000CB01BC01CD010E944900DC01CB019E83F8
:101CE0008D830FC088EC90E09C838B838B819C81DB
:101CF0000197F1F79C838B838D819E8101979E8351
:101D00008D838D819E81009769F714C06F817885DE
:101D100089859A850E944900DC01CB019E838D83D1
:101D20008D819E819A83898389819A810197F1F7B8
:101D30009A83898386E00E94A90EC45BDF4F0FB6A9
:101D4000F894DEBF0FBECDBFCF91DF911F910F91F1
:101D50000895DF93CF93CDB7DEB769970FB6F894A8
:101D6000DEBF0FBECDBF898F80E060E040E00E9403
:101D7000980780E061E040E00E94980783E0698D69
:101D80000E941B0A80E062E041E00E94980780E028
:101D900090E0A0E8BFE38D8B9E8BAF8BB88F6D89F1
:101DA0007E898F89988D2BEA3AEA4AE250E40E94B4
:101DB0001F02DC01CB01898B9A8BAB8BBC8B6989B1
:101DC0007A898B899C8920E030E040E85FE30E94BB
:101DD000250488231CF481E0888B91C069897A8965
:101DE0008B899C8920E030E04FE753E40E94C503D3
:101DF00018160CF07BC06D897E898F89988D20E044
:101E000030E04AE754E40E941903DC01CB018C87DF
:101E10009D87AE87BF876C857D858E859F8520E0F9
:101E200030E04AEF54E40E941F02DC01CB018887B6
:101E30009987AA87BB87688579858A859B8520E0F5
:101E400030E040E85FE30E94250488232CF481E021
:101E500090E09F838E833FC0688579858A859B85C6
:101E600020E03FEF4FE757E40E94C50318164CF5FA
:101E70006C857D858E859F8520E030E040E251E4D1
:101E80000E941F02DC01CB01BC01CD010E94490070
:101E9000DC01CB019F838E830FC088EC90E09D8393
:101EA0008C838C819D810197F1F79D838C838E813A
:101EB0009F8101979F838E838E819F81009769F711
:101EC00024C0688579858A859B850E944900DC014C
:101ED000CB019F838E838E819F819B838A838A819E
:101EE0009B810197F1F79B838A830FC069897A8967
:101EF0008B899C890E944900DC01CB01888B8889F1
:101F0000898389818A95F1F7898380E062E040E0E6
:101F10000E94980769960FB6F894DEBF0FBECDBF3A
:101F2000CF91DF910895DF93CF93CDB7DEB7699757
:101F30000FB6F894DEBF0FBECDBF898F80E060E0A2
:101F400041E00E94980780E061E040E00E9498072D
:101F500083E0698D0E941B0A80E062E041E00E94FC
:101F6000980780E090E0A0E8BFE38D8B9E8BAF8B5D
:101F7000B88F6D897E898F89988D2BEA3AEA4AE27B
:101F800050E40E941F02DC01CB01898B9A8BAB8B42
:101F9000BC8B69897A898B899C8920E030E040E894
:101FA0005FE30E94250488231CF481E0888B91C0A4
:101FB00069897A898B899C8920E030E04FE753E476
:101FC0000E94C50318160CF07BC06D897E898F892D
:101FD000988D20E030E04AE754E40E941903DC01C8
:101FE000CB018C879D87AE87BF876C857D858E856D
:101FF0009F8520E030E04AEF54E40E941F02DC019C
:10200000CB0188879987AA87BB87688579858A8568
:102010009B8520E030E040E85FE30E9425048823B0
:102020002CF481E090E09F838E833FC068857985A2
:102030008A859B8520E03FEF4FE757E40E94C50368
:1020400018164CF56C857D858E859F8520E030E0E7
:1020500040E251E40E941F02DC01CB01BC01CD0132
:102060000E944900DC01CB019F838E830FC088EC66
:1020700090E09D838C838C819D810197F1F79D83F6
:102080008C838E819F8101979F838E838E819F8118
:10209000009769F724C0688579858A859B850E94A9
:1020A0004900DC01CB019F838E838E819F819B83BE
:1020B0008A838A819B810197F1F79B838A830FC072
:1020C00069897A898B899C890E944900DC01CB014E
:1020D000888B8889898389818A95F1F7898380E053
:1020E00062E040E00E94980769960FB6F894DEBF60
:1020F0000FBECDBFCF91DF910895DF93CF9300D076
:102100000F92CDB7DEB79B838A8319820EC0898177
:10211000282F30E08A819B81FC01E20FF31F808130
:102120000E94930F89818F5F89838981282F30E0F6
:102130008A819B81FC01E20FF31F8081882339F79C
:102140000F900F900F90CF91DF9108950F931F93F1
:10215000DF93CF93CDB7DEB761970FB6F894DEBFAC
:102160000FBECDBF6E877F87888B998B8AE0FE017B
:102170003496DF01982F1D929A95E9F71B822DC0A6
:102180008B81082F10E08E859F85A889B9892AE068
:1021900030E040E050E0BC01CD010E943F14DC0182
:1021A000CB01282FCE010496FC01E00FF11F208304
:1021B0008E859F85A889B9892AE030E040E050E00B
:1021C000BC01CD010E943F14DA01C9018E879F87AF
:1021D000A88BB98B8B818F5F8B838E859F85A88918
:1021E000B9890097A105B10559F68B81882F90E038
:1021F00001979A83898310C029813A81CE01049680
:10220000FC01E20FF31F8081805D0E94930F8981A2
:102210009A8101979A83898389819A81992364F7A6
:1022200061960FB6F894DEBF0FBECDBFCF91DF91A0
:102230001F910F910895DF93CF9300D000D00F929C
:10224000CDB7DEB78A836B8381E089838B81883247
:10225000E0F48A81282F30E03D832C838C819D819E
:102260008130910531F02C813D812230310531F0F2
:102270000AC08B8180580E94A90E08C08B818054AF
:102280000E94A90E03C0198201C0198289810F9092
:102290000F900F900F900F90CF91DF910895DF93E3
:1022A000CF93CDB7DEB72E970FB6F894DEBF0FBE33
:1022B000CDBF81E00E94A90E80E090E0A0E0B0E4F4
:1022C0008B879C87AD87BE876B857C858D859E853A
:1022D00020E030E04AEF54E40E941F02DC01CB0111
:1022E0008F839887A987BA876F81788589859A8532
:1022F00020E030E040E85FE30E94250488232CF4CE
:1023000081E090E09E838D833FC06F8178858985D1
:102310009A8520E03FEF4FE757E40E94C503181667
:102320004CF56B857C858D859E8520E030E040E214
:1023300051E40E941F02DC01CB01BC01CD010E94CF
:102340004900DC01CB019E838D830FC088EC90E0B7
:102350009C838B838B819C810197F1F79C838B837A
:102360008D819E8101979E838D838D819E810097B3
:1023700069F714C06F81788589859A850E94490024
:10238000DC01CB019E838D838D819E819A8389831D
:1023900089819A810197F1F79A8389832E960FB6E6
:1023A000F894DEBF0FBECDBFCF91DF910895DF93CC
:1023B000CF93CDB7DEB72A970FB6F894DEBF0FBE26
:1023C000CDBF8C837E836D834F83288781E08B8391
:1023D0008C81883008F079C08885883208F075C013
:1023E0008F81833008F071C08C81282F30E03A87CC
:1023F000298789859A8583309105A9F129853A85B0
:10240000243031057CF489859A858130910519F154
:1024100029853A852230310514F589859A850097FA
:10242000B1F034C029853A852530310521F18985FF
:102430009A8585309105DCF029853A85263031056D
:10244000F1F089859A8587309105E9F01FC080E415
:102450000E94A90E1BC088E40E94A90E17C080E547
:102460000E94A90E13C088E50E94A90E0FC080E645
:102470000E94A90E0BC088E60E94A90E07C080E743
:102480000E94A90E03C088E70E94A90E1A82198231
:102490000FC029813A818D819E81FC01E20FF31FDB
:1024A00080810E94930F89819A8101969A83898302
:1024B00089819A818830910564F38F8168850E94B3
:1024C0001B118C810E94930F01C01B828B812A9665
:1024D0000FB6F894DEBF0FBECDBFCF91DF91089548
:1024E000DF93CF93CDB7DEB72E970FB6F894DEBF4C
:1024F0000FBECDBF8CE10E94A90E80E090E0A8EC59
:10250000B2E48B879C87AD87BE876B857C858D8584
:102510009E8520E030E04AEF54E40E941F02DC0177
:10252000CB018F839887A987BA876F817885898542
:102530009A8520E030E040E85FE30E94250488238C
:102540002CF481E090E09E838D833FC06F8178857D
:1025500089859A8520E03FEF4FE757E40E94C50345
:1025600018164CF56B857C858D859E8520E030E0C6
:1025700040E251E40E941F02DC01CB01BC01CD010D
:102580000E944900DC01CB019E838D830FC088EC43
:1025900090E09C838B838B819C810197F1F79C83D6
:1025A0008B838D819E8101979E838D838D819E81FA
:1025B000009769F714C06F81788589859A850E9494
:1025C0004900DC01CB019E838D838D819E819A839E
:1025D000898389819A810197F1F79A8389832E965D
:1025E0000FB6F894DEBF0FBECDBFCF91DF91089537
:1025F000DF93CF93CDB7DEB72E970FB6F894DEBF3B
:102600000FBECDBF88E10E94A90E80E090E0A8EC4B
:10261000B2E48B879C87AD87BE876B857C858D8573
:102620009E8520E030E04AEF54E40E941F02DC0166
:10263000CB018F839887A987BA876F817885898531
:102640009A8520E030E040E85FE30E94250488237B
:102650002CF481E090E09E838D833FC06F8178856C
:1026600089859A8520E03FEF4FE757E40E94C50334
:1026700018164CF56B857C858D859E8520E030E0B5
:1026800040E251E40E941F02DC01CB01BC01CD01FC
:102690000E944900DC01CB019E838D830FC088EC32
:1026A00090E09C838B838B819C810197F1F79C83C5
:1026B0008B838D819E8101979E838D838D819E81E9
:1026C000009769F714C06F81788589859A850E9483
:1026D0004900DC01CB019E838D838D819E819A838D
:1026E000898389819A810197F1F79A8389832E964C
:1026F0000FB6F894DEBF0FBECDBFCF91DF91089526
:10270000DF93CF93CDB7DEB7A3E5B0E0E3E5F0E02C
:1027100080818F7B8C93A3E5B0E0E3E5F0E08081DE
:10272000877F8C93A9E5B0E0E9E5F0E080818160E6
:102730008C93E2E5F0E080EC8083A3E5B0E0E3E594
:10274000F0E080818E7F8C93A3E5B0E0E3E5F0E0DC
:10275000808182608C93A3E5B0E0E3E5F0E08081C6
:102760008B7F8C93CF91DF910895DF93CF9300D02F
:102770000F92CDB7DEB79B838A8381E089838A81FC
:102780009B81009739F08A819B819093950080937B
:10279000940001C0198289810F900F900F90CF9102
:1027A000DF9108951F920F920FB60F9211242F936D
:1027B0003F934F935F936F937F938F939F93AF93C9
:1027C000BF93EF93FF93DF93CF93CDB7DEB78091A5
:1027D00096009091970001969093970080939600B1
:1027E00080919600909197002FE08334920799F49E
:1027F000E2E5F0E080EC8083109297001092960062
:102800008091940090919500009729F0E0919400B8
:10281000F09195000995CF91DF91FF91EF91BF91D4
:10282000AF919F918F917F916F915F914F913F9168
:102830002F910F900FBE0F901F901895DF93CF939D
:10284000CDB7DEB727970FB6F894DEBF0FBECDBF6A
:102850000E944F060E94BB0A0E94E60B81E064E0E2
:102860000E941B1180E690E00E947D1082E063E0F0
:102870000E941B118AE690E00E947D10FFCFA1E22A
:102880001A2EAA1BBB1BFD010DC0AA1FBB1FEE1FEA
:10289000FF1FA217B307E407F50720F0A21BB30B35
:1028A000E40BF50B661F771F881F991F1A9469F7B1
:1028B00060957095809590959B01AC01BD01CF010D
:1028C00008952F923F924F925F926F927F928F92D4
:1028D0009F92AF92BF92CF92DF92EF92FF920F93AF
:1028E0001F93CF93DF93CDB7DEB7CA1BDB0B0FB6B9
:1028F000F894DEBF0FBECDBF09942A883988488876
:102900005F846E847D848C849B84AA84B984C8840B
:10291000DF80EE80FD800C811B81AA81B981CE0F02
:10292000D11D0FB6F894DEBF0FBECDBFED010895E7
:04293000F894FFCF49
:1029340053746F7057617463680030303A30303AC2
:102944003030000000000000000000303132333429
:10295400353637383939656C722F73000102030438
:04296400050607005D
:00000001FF
