:100000000C942A000C9447000C9447000C94470071
:100010000C9447000C9447000C9447000C94470044
:100020000C9447000C9447000C94270E0C945A0E25
:100030000C9447000C9447000C9447000C94470024
:100040000C9447000C9447000C9447000C94470014
:100050000C94470011241FBECFE5D8E0DEBFCDBF12
:1000600010E0A0E6B0E0E0E5F3E302C005900D92F9
:10007000A038B107D9F710E0A0E8B0E001C01D92A8
:10008000A438B107E1F70E948D0E0C94A6190C94C8
:100090000000EF92FF920F931F937B018C0120E0F1
:1000A00030E040E05FE40E94490388238CF0C801FF
:1000B000B70120E030E040E05FE40E94C1010E940F
:1000C000A9039B01AC01205030404040504806C07D
:1000D000C801B7010E94A9039B01AC01B901CA0183
:1000E0001F910F91FF90EF900895A0E0B0E0EBE733
:1000F000F0E00C946F19DC012B01FA019C91923015
:1001000008F439C1EB018881823008F433C194309E
:1001100069F4843009F02FC111969C91119789815F
:10012000981709F428C1A0E6B0E025C1843009F48D
:1001300021C18230A9F4923009F01DC19A01AD01AC
:1001400088E0EA010990AE01E90109929E0181501F
:10015000C1F7E201898111969C918923818308C1AD
:10016000923009F407C112962D903C901397EB0141
:100170008A819B811496AD90BD90CD90DC901797AD
:10018000EC80FD800E811F819101281B390BB90184
:1001900037FF04C066277727621B730B6032710537
:1001A0000CF061C0121613066CF537014801062EDB
:1001B00004C096948794779467940A94D2F721E0C8
:1001C00030E040E050E004C0220F331F441F551FB1
:1001D0006A95D2F721503040404050402E213F21B7
:1001E00040235123211531054105510521F021E01E
:1001F00030E040E050E079018A01E628F72808293C
:1002000019293CC0232BD1F1260E371E350146019A
:10021000062E04C096948794779467940A94D2F734
:1002200021E030E040E050E004C0220F331F441FC3
:10023000551F6A95D2F721503040404050402A2146
:100240003B214C215D21211531054105510521F04E
:1002500021E030E040E050E059016A01A628B728CB
:10026000C828D9280BC0821593052CF01C01AA249C
:10027000BB24650103C0EE24FF24870111969C91E5
:10028000D20111968C91981709F445C0992339F041
:10029000A80197012A193B094C095D0906C0A6016E
:1002A00095012E193F09400B510B57FD08C01182D3
:1002B0003382228224833583468357831DC081E0A5
:1002C00081833382228288279927DC01821B930B4A
:1002D000A40BB50B84839583A683B7830DC0220F2F
:1002E000331F441F551F24833583468357838281E0
:1002F000938101979383828324813581468157813D
:10030000DA01C9010197A109B1098F5F9F4FAF4F72
:10031000BF4328F30BC0918333822282EA0CFB1C7B
:100320000C1D1D1DE482F5820683178383E0808304
:10033000248135814681578157FF1AC0C901AA27F8
:1003400097FDA095BA2F81709070A070B0705695EF
:10035000479537952795822B932BA42BB52B848318
:100360009583A683B7838281938101969383828349
:10037000DF0101C0D201CD01CDB7DEB7E2E10C94BF
:100380008B19A0E2B0E0E7ECF1E00C947B196983F3
:100390007A838B839C832D833E834F835887E9E048
:1003A000EE2EF12CEC0EFD1ECE010196B7010E943F
:1003B000D2048E010F5E1F4FCE010596B8010E9438
:1003C000D2048A8991E089278A8BC701B801AE01DE
:1003D000475E5F4F0E9475000E94FD03A096E6E015
:1003E0000C949719A0E2B0E0E8EFF1E00C947B19CF
:1003F00069837A838B839C832D833E834F835887C5
:10040000F9E0EF2EF12CEC0EFD1ECE010196B701A6
:100410000E94D2048E010F5E1F4FCE010596B801D7
:100420000E94D204C701B801AE01475E5F4F0E942F
:1004300075000E94FD03A096E6E00C949719A0E2D7
:10044000B0E0E5E2F2E00C946F1969837A838B8364
:100450009C832D833E834F835887CE010196BE0136
:10046000675F7F4F0E94D204CE010596BE016F5E8A
:100470007F4F0E94D2049985923088F0898982301A
:10048000C8F0943019F4823051F404C0843029F457
:10049000923081F480E690E0C6C0923049F420E0CA
:1004A0009A858A89981321E02A87CE010996BBC0D4
:1004B000823049F420E09A858A89981321E02A8BBA
:1004C000CE014196B0C02D843E844F8458886D88FB
:1004D0007E888F88988CEE24FF248701AA24BB2471
:1004E000650140E050E060E070E0E0E0F0E0C10174
:1004F00081709070892BE9F0E60CF71C081D191D1E
:100500009A01AB012A0D3B1D4C1D5D1D80E090E062
:10051000A0E0B0E0E614F7040805190520F481E036
:1005200090E0A0E0B0E0BA01A901480F591F6A1F8E
:100530007B1FAA0CBB1CCC1CDD1C97FE08C081E0F5
:1005400090E0A0E0B0E0A82AB92ACA2ADB2A3196B6
:10055000E032F10549F0660C771C881C991C569412
:10056000479437942794C3CFFA85EA892B893C892D
:100570008B859C85280F391F2E5F3F4F17C0CA01FE
:1005800081709070892B61F016950795F794E79428
:1005900080E090E0A0E0B0E8E82AF92A0A2B1B2BC3
:1005A00076956795579547952F5F3F4F77FDE7CF36
:1005B0000CC0440F551F661F771F17FD4160EE0CDE
:1005C000FF1C001F111F21503040403090E05907A0
:1005D00090E0690790E4790760F32B8F3C8FDB0193
:1005E000CA018F779070A070B07080349105A1051A
:1005F000B10561F447FD0AC0E114F10401051105DC
:1006000029F0405C5F4F6F4F7F4F40781A8EFE1786
:1006100011F081E08A8F4D8F5E8F6F8F78A383E01A
:10062000898FCE0149960E94FD03A096E2E10C94C9
:100630008B19A8E1B0E0EFE1F3E00C947B1969833A
:100640007A838B839C832D833E834F83588789E0F5
:10065000E82EF12CEC0EFD1ECE010196B7010E9492
:10066000D2048E010F5E1F4FCE010596B8010E9485
:10067000D2048985823040F08989823028F0C70110
:10068000B8010E944A0501C08FEF6896E6E00C941D
:100690009719A8E1B0E0EFE4F3E00C947B196983CB
:1006A0007A838B839C832D833E834F83588789E095
:1006B000E82EF12CEC0EFD1ECE010196B7010E9432
:1006C000D2048E010F5E1F4FCE010596B8010E9425
:1006D000D2048985823040F08989823028F0C701B0
:1006E000B8010E944A0501C08FEF6896E6E00C94BD
:1006F0009719A8E1B0E0EFE7F3E00C947B19698368
:100700007A838B839C832D833E834F83588789E034
:10071000E82EF12CEC0EFD1ECE010196B7010E94D1
:10072000D2048E010F5E1F4FCE010596B8010E94C4
:10073000D2048985823040F08989823028F0C7014F
:10074000B8010E944A0501C081E06896E6E00C9479
:100750009719ACE0B0E0EFEAF3E00C947F196983FD
:100760007A838B839C83CE010196BE016B5F7F4FA2
:100770000E94D2048D81823061F1823050F1843048
:1007800021F48E81882351F12EC02F81388537FDC9
:1007900020C06E812F3131051CF06623F9F023C093
:1007A0008EE190E0821B930B29853A854B855C8511
:1007B00004C056954795379527958A95D2F76623B5
:1007C000B1F050954095309521953F4F4F4F5F4F79
:1007D0000EC020E030E040E050E009C02FEF3FEFD6
:1007E0004FEF5FE704C020E030E040E050E8B9019F
:1007F000CA012C96E2E00C949B19DF92EF92FF92D3
:100800000F931F93FC01E480F58006811781D1804E
:100810008081823048F480E090E0A0E1B0E0E82AF6
:10082000F92A0A2B1B2BA5C0843009F49FC0823003
:1008300021F4EE24FF24870105C0E114F104010531
:10084000110519F4E0E0F0E096C0628173819FEF3A
:10085000623879070CF05BC022E83FEF261B370BAC
:100860002A3131052CF020E030E040E050E02AC091
:10087000B801A701022E04C0769567955795479554
:100880000A94D2F781E090E0A0E0B0E004C0880FC5
:10089000991FAA1FBB1F2A95D2F70197A109B10979
:1008A0008E219F21A023B1230097A105B10521F03E
:1008B00081E090E0A0E0B0E09A01AB01282B392B59
:1008C0004A2B5B2BDA01C9018F779070A070B07052
:1008D00080349105A105B10539F427FF09C0205CDA
:1008E0003F4F4F4F5F4F04C0215C3F4F4F4F5F4F13
:1008F000E0E0F0E02030A0E03A07A0E04A07A0E402
:100900005A0710F0E1E0F0E079018A0127C0603871
:10091000710564F5FB01E158FF4FD801C7018F77DE
:100920009070A070B07080349105A105B10539F4C4
:10093000E7FE0DC080E490E0A0E0B0E004C08FE3EB
:1009400090E0A0E0B0E0E80EF91E0A1F1B1F17FFA1
:1009500005C016950795F794E794319687E01695AC
:100960000795F794E7948A95D1F705C0EE24FF2404
:100970008701EFEFF0E06E2F679566276795902F60
:100980009F77D794DD24D7948E2F8695492F462BB9
:10099000582F5D29B701CA011F910F91FF90EF9069
:1009A000DF900895FC01DB01408151812281622F9B
:1009B0006F7770E0221F2227221F9381892F880FD3
:1009C000822B282F30E0991F9927991F11969C930D
:1009D000119721153105A9F54115510561057105DD
:1009E00011F482E037C082E89FEF13969C938E93B8
:1009F00012979A01AB0167E0220F331F441F551F66
:100A00006A95D1F783E08C930DC0220F331F441FEA
:100A1000551F12968D919C911397019713969C9355
:100A20008E931297203080E0380780E0480780E4FA
:100A3000580758F314962D933D934D935C93179755
:100A400008952F3F310579F4411551056105710570
:100A500019F484E08C93089564FF03C081E08C93C3
:100A600012C01C9210C02F57304013963C932E9307
:100A7000129783E08C9387E0440F551F661F771F02
:100A80008A95D1F7706414964D935D936D937C9322
:100A9000179708951F93DC01FB019C91923008F495
:100AA00047C08081823008F443C0943051F41196DD
:100AB0001C91843099F58181682F70E0611B710968
:100AC0003FC0843021F0923031F48230B9F181811D
:100AD000882389F12DC011961C9111978230F1F075
:100AE00081811817D9F412962D913C911397828128
:100AF00093818217930794F028173907BCF0149656
:100B00008D919D910D90BC91A02D248135814681C0
:100B10005781281739074A075B0718F4112341F05A
:100B20000AC082179307A407B50740F4112319F0F0
:100B300061E070E005C06FEF7FEF02C060E070E041
:100B4000CB011F910895DF93CF93CDB7DEB7EAE3D2
:100B5000F0E08FE08083E7E3F0E088E08083E4E387
:100B6000F0E01082E1E3F0E01082EBE3F0E08FEFE1
:100B70008083E8E3F0E088E08083E5E3F0E0108242
:100B8000E2E3F0E01082CF91DF910895DF93CF93FD
:100B9000CDB7DEB72E970FB6F894DEBF0FBECDBF30
:100BA0008A836B834C8381E089838A81843008F057
:100BB0000CC18B81883008F008C18C81813021F014
:100BC0008C81882309F001C18A81282F30E03E877B
:100BD0002D878D859E858130910509F44FC02D8527
:100BE0003E85223031052CF48D859E85009771F06D
:100BF000EDC02D853E852230310509F477C08D8505
:100C00009E858330910509F4A9C0E0C08C81282F0E
:100C100030E03C872B878B859C850097D1F02B8516
:100C20003C852130310509F0D1C0AAE3B0E0EAE308
:100C3000F0E08081482F8B81282F30E081E090E028
:100C4000022E02C0880F991F0A94E2F7842B8C931E
:100C5000BDC0AAE3B0E0EAE3F0E08081482F8B81D9
:100C6000282F30E081E090E0022E02C0880F991F0B
:100C70000A94E2F7809584238C93A8C08C81282F56
:100C800030E03A87298789859A850097D1F02985B0
:100C90003A852130310509F099C0A7E3B0E0E7E3D8
:100CA000F0E08081482F8B81282F30E081E090E0B8
:100CB000022E02C0880F991F0A94E2F7842B8C93AE
:100CC00085C0A7E3B0E0E7E3F0E08081482F8B81A7
:100CD000282F30E081E090E0022E02C0880F991F9B
:100CE0000A94E2F7809584238C9370C08C81282F1E
:100CF00030E038872F838F8198850097D1F02F813E
:100D000038852130310509F061C0A4E3B0E0E4E3A7
:100D1000F0E08081482F8B81282F30E081E090E047
:100D2000022E02C0880F991F0A94E2F7842B8C933D
:100D30004DC0A4E3B0E0E4E3F0E08081482F8B8174
:100D4000282F30E081E090E0022E02C0880F991F2A
:100D50000A94E2F7809584238C9338C08C81282FE5
:100D600030E03E832D838D819E810097C9F02D81D7
:100D70003E812130310551F5A1E3B0E0E1E3F0E03F
:100D80008081482F8B81282F30E081E090E0022E77
:100D900002C0880F991F0A94E2F7842B8C9316C027
:100DA000A1E3B0E0E1E3F0E08081482F8B81282FC0
:100DB00030E081E090E0022E02C0880F991F0A9473
:100DC000E2F7809584238C9301C0198289812E9645
:100DD0000FB6F894DEBF0FBECDBFCF91DF9108955F
:100DE000DF93CF93CDB7DEB72E970FB6F894DEBF63
:100DF0000FBECDBF8A836B834C8381E089838B8157
:100E0000883008F008C18A81282F30E03E872D877E
:100E10008D859E858130910509F450C02D853E85D4
:100E2000223031052CF48D859E85009771F0F1C03C
:100E30002D853E852230310509F479C08D859E854A
:100E40008330910509F4ACC0E4C08C81282F30E0D8
:100E50003C872B878B859C850097C9F02B853C852B
:100E60002130310549F5ABE3B0E0EBE3F0E0808100
:100E7000482F8B81282F30E081E090E0022E02C0C5
:100E8000880F991F0A94E2F7842B8C93C5C0ABE3BB
:100E9000B0E0EBE3F0E08081482F8B81282F30E039
:100EA00081E090E0022E02C0880F991F0A94E2F7B9
:100EB000809584238C93B0C01982AEC08C81282F7A
:100EC00030E03A87298789859A850097C9F0298576
:100ED0003A852130310549F5A8E3B0E0E8E3F0E0D8
:100EE0008081482F8B81282F30E081E090E0022E16
:100EF00002C0880F991F0A94E2F7842B8C938CC050
:100F0000A8E3B0E0E8E3F0E08081482F8B81282F50
:100F100030E081E090E0022E02C0880F991F0A9411
:100F2000E2F7809584238C9377C0198275C08C81F9
:100F3000282F30E038872F838F8198850097C9F05C
:100F40002F8138852130310549F5A5E3B0E0E5E38F
:100F5000F0E08081482F8B81282F30E081E090E005
:100F6000022E02C0880F991F0A94E2F7842B8C93FB
:100F700053C0A5E3B0E0E5E3F0E08081482F8B812A
:100F8000282F30E081E090E0022E02C0880F991FE8
:100F90000A94E2F7809584238C933EC019823CC06A
:100FA0008C81282F30E03E832D838D819E81009798
:100FB000C9F02D813E812130310549F5A2E3B0E031
:100FC000E2E3F0E08081482F8B81282F30E081E040
:100FD00090E0022E02C0880F991F0A94E2F7842B3A
:100FE0008C931AC0A2E3B0E0E2E3F0E08081482FE6
:100FF0008B81282F30E081E090E0022E02C0880F24
:10100000991F0A94E2F7809584238C9305C0198276
:1010100003C0198201C0198289812E960FB6F894F7
:10102000DEBF0FBECDBFCF91DF910895DF93CF9389
:10103000CDB7DEB728970FB6F894DEBF0FBECDBF91
:101040008B836C835E834D8381E08A838B818430C4
:1010500008F09FC08C81883008F09BC08D819E81F4
:10106000009709F496C08B81282F30E038872F83B2
:101070004F81588541305105A9F18F819885823083
:10108000910534F42F8138852115310571F082C026
:101090004F8158854230510509F441C08F819885B0
:1010A0008330910509F458C075C0E9E3F0E0808110
:1010B000282F30E08C81882F90E0A90102C055953F
:1010C00047958A95E2F7CA018170898389818823CF
:1010D00021F4ED81FE8110825DC0ED81FE8181E011
:1010E000808358C0E6E3F0E08081282F30E08C81D7
:1010F000882F90E0A90102C0559547958A95E2F79F
:10110000CA01817089838981882321F4ED81FE8160
:10111000108240C0ED81FE8181E080833BC0E3E32B
:10112000F0E08081282F30E08C81882F90E0A901A9
:1011300002C0559547958A95E2F7CA018170898367
:101140008981882321F4ED81FE81108223C0ED8105
:10115000FE8181E080831EC0E0E3F0E08081282FE3
:1011600030E08C81882F90E0A90102C05595479509
:101170008A95E2F7CA01817089838981882321F4E5
:10118000ED81FE81108206C0ED81FE8181E08083C9
:1011900001C01A828A8128960FB6F894DEBF0FBE6E
:1011A000CDBFCF91DF910895DF93CF93CDB7DEB759
:1011B0002D970FB6F894DEBF0FBECDBF8A836B8329
:1011C00081E089838B81813021F08B81882309F034
:1011D0007FC08A81282F30E03D872C878C859D85B4
:1011E0008130910571F12C853D85223031052CF43B
:1011F0008C859D85009769F069C02C853D852230DE
:101200003105B1F18C859D858330910509F447C086
:101210005DC08B81282F30E03B872A878A859B859C
:10122000009759F02A853B852130310509F051C0DE
:10123000EAE3F0E08FEF80834CC0EAE3F0E0108255
:1012400048C08B81282F30E0398728878885998589
:10125000009751F02885398521303105D1F5E7E334
:10126000F0E08FEF808335C0E7E3F0E0108231C01B
:101270008B81282F30E03F832E838E819F810097C2
:1012800051F02E813F812130310519F5E4E3F0E082
:101290008FEF80831EC0E4E3F0E010821AC08B81E0
:1012A000282F30E03D832C838C819D81009751F065
:1012B0002C813D812130310561F4E1E3F0E08FEFD5
:1012C000808307C0E1E3F0E0108203C0198201C00F
:1012D000198289812D960FB6F894DEBF0FBECDBF5F
:1012E000CF91DF910895DF93CF9300D000D00F927C
:1012F000CDB7DEB78A836B8381E089838A81282F0B
:1013000030E03D832C838C819D8181309105D1F02B
:101310002C813D81223031052CF48C819D810097F8
:1013200061F01FC02C813D812230310581F08C811C
:101330009D818330910581F014C0EBE3F0E08B8157
:10134000808310C0E8E3F0E08B8180830BC0E5E38D
:10135000F0E08B81808306C0E2E3F0E08B81808344
:1013600001C0198289810F900F900F900F900F90FC
:10137000CF91DF910895DF93CF9300D000D000D0BC
:10138000CDB7DEB78A837C836B8381E089838B81D1
:101390009C810097E9F18A81282F30E03E832D83DC
:1013A0008D819E8181309105E1F02D813E81223039
:1013B00031052CF48D819E81009761F027C02D812D
:1013C0003E8122303105A1F08D819E8183309105CF
:1013D000B1F01CC0E9E3F0E08081EB81FC81808307
:1013E00018C0E6E3F0E08081EB81FC81808311C0CE
:1013F000E3E3F0E08081EB81FC8180830AC0E0E3DD
:10140000F0E08081EB81FC81808303C0198201C000
:101410001982898126960FB6F894DEBF0FBECDBF24
:10142000CF91DF910895DF93CF9300D000D00F923A
:10143000CDB7DEB78A836B8381E089838A8184306C
:1014400008F073C08B81883008F06FC08A81282F24
:1014500030E03D832C838C819D818130910549F161
:101460002C813D81223031052CF48C819D810097A7
:1014700061F05CC02C813D812230310571F18C819D
:101480009D8183309105E9F151C0ABE3B0E0EBE31E
:10149000F0E08081482F8B81282F30E081E090E0C0
:1014A000022E02C0880F991F0A94E2F784278C93BA
:1014B0003DC0A8E3B0E0E8E3F0E08081482F8B81F5
:1014C000282F30E081E090E0022E02C0880F991FA3
:1014D0000A94E2F784278C9329C0A5E3B0E0E5E302
:1014E000F0E08081482F8B81282F30E081E090E070
:1014F000022E02C0880F991F0A94E2F784278C936A
:1015000015C0A2E3B0E0E2E3F0E08081482F8B81D8
:10151000282F30E081E090E0022E02C0880F991F52
:101520000A94E2F784278C9301C0198289810F9075
:101530000F900F900F900F90CF91DF910895DF9350
:10154000CF9300D000D00F92CDB7DEB78A836B83E4
:101550008B81807F8B8381E089838A81843008F04E
:101560005FC08A81282F30E03D832C838C819D8150
:101570008130910529F12C813D81223031052CF4F7
:101580008C819D81009761F04CC02C813D8122307F
:10159000310531F18C819D818330910589F141C004
:1015A000ABE3B0E0EBE3F0E080818F708C93ABE3D2
:1015B000B0E0EBE3F0E090818B81892B8C9331C01C
:1015C000A8E3B0E0E8E3F0E080818F708C93A8E3BB
:1015D000B0E0E8E3F0E090818B81892B8C9321C00F
:1015E000A5E3B0E0E5E3F0E080818F708C93A5E3A4
:1015F000B0E0E5E3F0E090818B81892B8C9311C002
:10160000A2E3B0E0E2E3F0E080818F708C93A5E389
:10161000B0E0E5E3F0E090818B81892B8C9301C0F1
:10162000198289810F900F900F900F900F90CF919A
:10163000DF910895DF93CF9300D000D00F92CDB704
:10164000DEB78A836B838B818F708B8381E0898384
:101650008A81843008F05FC08A81282F30E03D8382
:101660002C838C819D818130910529F12C813D81D4
:10167000223031052CF48C819D81009761F04CC0A3
:101680002C813D812230310531F18C819D81833067
:10169000910589F141C0ABE3B0E0EBE3F0E080817C
:1016A000807F8C93ABE3B0E0EBE3F0E090818B8143
:1016B000892B8C9331C0A8E3B0E0E8E3F0E08081AF
:1016C000807F8C93A8E3B0E0E8E3F0E090818B8129
:1016D000892B8C9321C0A5E3B0E0E5E3F0E08081A5
:1016E000807F8C93A5E3B0E0E5E3F0E090818B810F
:1016F000892B8C9311C0A2E3B0E0E2E3F0E080819B
:10170000807F8C93A2E3B0E0E2E3F0E090818B81F4
:10171000892B8C9301C0198289810F900F900F90B3
:101720000F900F90CF91DF910895DF93CF93CDB7B6
:10173000DEB765970FB6F894DEBF0FBECDBF9D8BA9
:101740008C8B81E08A8B1F868C899D89009709F498
:10175000F0C0EC89FD898FEF8083198AE5C0898903
:10176000882F90E0FC01E858FF4F908180E0692FBE
:1017700040E00E94F006188AC1C08889882F90E056
:10178000FC01E458FF4F90819E012D5E3F4F80E0A9
:10179000692FA9010E9416088B89882309F0ABC024
:1017A00080E090E0A0EAB1E48B879C87AD87BE879C
:1017B0006B857C858D859E8520E030E04AEF54E482
:1017C0000E941F02DC01CB018F839887A987BA870B
:1017D0006F81788589859A8520E030E040E85FE375
:1017E0000E94790388232CF481E090E09E838D830E
:1017F0003FC06F81788589859A8520E03FEF4FE76C
:1018000057E40E94190318164CF56B857C858D856D
:101810009E8520E030E040E251E40E941F02DC019E
:10182000CB01BC01CD010E944900DC01CB019E83AC
:101830008D830FC088EC90E09C838B838B819C818F
:101840000197F1F79C838B838D819E8101979E8305
:101850008D838D819E81009769F714C06F81788593
:1018600089859A850E944900DC01CB019E838D8386
:101870008D819E819A83898389819A810197F1F76D
:101880009A8389838889882F90E0FC01E458FF4F70
:1018900090819E012D5E3F4F80E0692FA9010E943B
:1018A00016080FC08889882F90E0FC01E458FF4F8C
:1018B00090819E012D5E3F4F80E0692FA9010E941B
:1018C00016088B89882371F38989482F50E088890D
:1018D000282F30E0CA01880F991F880F991F820FA7
:1018E000931FFC01E859FF4F8081EC89FD898083BB
:1018F00081E08F8707C088898F5F888B88898430D3
:1019000008F43BCF8989882F90E0FC01E858FF4F0D
:10191000908180E0692F41E00E94F0068F85813040
:1019200049F089898F5F898B8989843008F417CFC2
:1019300001C01A8A8A8965960FB6F894DEBF0FBE79
:10194000CDBFCF91DF910895DF93CF93CDB7DEB7B1
:10195000A3E5B0E0E3E5F0E0808180648C93A3E54B
:10196000B0E0E3E5F0E0808188608C93A3E5B0E02F
:10197000E3E5F0E080818F7E8C93A3E5B0E0E3E5C2
:10198000F0E0808180628C93CF91DF910895DF93A6
:10199000CF93CDB7DEB7A3E5B0E0E3E5F0E080811B
:1019A000887F8C93A3E5B0E0E3E5F0E0808182607E
:1019B0008C93CF91DF910895DF93CF93CDB7DEB7AE
:1019C000A3E5B0E0E3E5F0E08081887F8C93A3E5B8
:1019D000B0E0E3E5F0E080818C93CF91DF91089552
:1019E000DF93CF930F92CDB7DEB78983E2E5F0E0C6
:1019F000898180830F90CF91DF910895DF93CF93FA
:101A0000CDB7DEB7E2E5F0E08081CF91DF910895B8
:101A1000DF93CF930F92CDB7DEB78983ECE5F0E08B
:101A2000898180830F90CF91DF910895DF93CF93C9
:101A3000CDB7DEB7A9E5B0E0E9E5F0E080818260EE
:101A40008C93CF91DF910895DF93CF93CDB7DEB71D
:101A5000A9E5B0E0E9E5F0E0808181608C93CF9169
:101A6000DF910895DF93CF93CDB7DEB7A9E5B0E05E
:101A7000E9E5F0E080818D7F8C93CF91DF9108952F
:101A8000DF93CF93CDB7DEB7A9E5B0E0E9E5F0E0AD
:101A900080818E7F8C93CF91DF910895DF93CF93D8
:101AA0000F92CDB7DEB7E8E5F0E0808181708983E1
:101AB00089810F90CF91DF910895DF93CF930F929B
:101AC000CDB7DEB7E8E5F0E0808186958170898347
:101AD00089810F90CF91DF910895DF93CF93CDB798
:101AE000DEB7A8E5B0E0E8E5F0E0808181608C93A6
:101AF000CF91DF910895DF93CF93CDB7DEB7A8E5FF
:101B0000B0E0E8E5F0E0808182608C93CF91DF91D6
:101B10000895DF93CF9300D00F92CDB7DEB79B83AC
:101B20008A8381E089838A819B81009739F08A8149
:101B30009B81909381008093800001C019828981EC
:101B40000F900F900F90CF91DF910895DF93CF9377
:101B500000D00F92CDB7DEB79B838A8381E0898363
:101B60008A819B81009739F08A819B8190938300C1
:101B70008093820001C0198289810F900F900F908D
:101B8000CF91DF910895DF93CF93CDB7DEB7AFE468
:101B9000B0E0EFE4F0E0808182608C93AFE4B0E0ED
:101BA000EFE4F0E080818E7F8C93AEE4B0E0EEE471
:101BB000F0E0808180618C93AEE4B0E0EEE4F0E090
:101BC000808188608C93AFE4B0E0EFE4F0E0808146
:101BD00080688C93AFE4B0E0EFE4F0E080818F7B2D
:101BE0008C93E6E4F0E08FE19EE491838083EAE465
:101BF000F0E089EB90E091838083AEE4B0E0EEE426
:101C0000F0E080818E7F8C93AEE4B0E0EEE4F0E013
:101C1000808182608C93AEE4B0E0EEE4F0E08081FD
:101C20008B7F8C93CF91DF910895DF93CF9300D07A
:101C3000CDB7DEB79A838983EAE4F0E089819A819F
:101C4000918380830F900F90CF91DF9108951F9221
:101C50000F920FB60F9211242F933F934F935F93E0
:101C60006F937F938F939F93AF93BF93EF93FF9364
:101C7000DF93CF93CDB7DEB7809182009091830040
:101C8000009729F0E0918200F09183000995CF91AF
:101C9000DF91FF91EF91BF91AF919F918F917F91D4
:101CA0006F915F914F913F912F910F900FBE0F90C9
:101CB0001F9018951F920F920FB60F9211242F9319
:101CC0003F934F935F936F937F938F939F93AF93C4
:101CD000BF93EF93FF93DF93CF93CDB7DEB78091A0
:101CE000800090918100009729F0E0918000F091B0
:101CF00081000995CF91DF91FF91EF91BF91AF9155
:101D00009F918F917F916F915F914F913F912F9113
:101D10000F900FBE0F901F9018950F931F93DF9396
:101D2000CF93CDB7DEB7C15ED0400FB6F894DEBF1B
:101D30000FBECDBF0E94A3050E94A40C0E94C70C39
:101D4000CE018F519F4F0E94950BFE01EF51FF4F27
:101D50008081813309F0B8C086E90E94080DFE0138
:101D6000E352FF4F80E090E0A8E4B3E480839183E6
:101D7000A283B3838E0107521F4FFE01E352FF4F30
:101D8000608171818281938120E030E04AEF54E4E8
:101D90000E941F02DC01CB01F80180839183A283A2
:101DA000B383FE01E752FF4F60817181828193818D
:101DB00020E030E040E85FE30E947903882344F4A8
:101DC000FE01E952FF4F81E090E09183808364C07F
:101DD000FE01E752FF4F608171818281938120E093
:101DE0003FEF4FE757E40E94190318160CF043C069
:101DF000FE01E352FF4F608171818281938120E077
:101E000030E040E251E40E941F02DC01CB018E0170
:101E100009521F4FBC01CD010E944900DC01CB01DA
:101E2000F801918380831FC0FE01EB52FF4F88ECC5
:101E300090E091838083FE01EB52FF4F808191817E
:101E40000197F1F7FE01EB52FF4F91838083DE0192
:101E5000A952BF4FFE01E952FF4F80819181019746
:101E600011969C938E93FE01E952FF4F80819181E0
:101E70000097D1F665CF8E0109521F4FFE01E75240
:101E8000FF4F60817181828193810E944900DC0152
:101E9000CB01F80191838083DE01AD52BF4FFE017B
:101EA000E952FF4F8081918111969C938E93FE01A0
:101EB000ED52FF4F808191810197F1F7FE01ED52C4
:101EC000FF4F918380833CCFFE01EF51FF4F808114
:101ED000823309F0B8C08FEC0E94080DFE01E15377
:101EE000FF4F80E090E0A8E4B3E480839183A28375
:101EF000B3838E0105531F4FFE01E153FF4F6081F5
:101F000071818281938120E030E04AEF54E40E94A5
:101F10001F02DC01CB01F80180839183A283B3838C
:101F2000FE01E553FF4F608171818281938120E042
:101F300030E040E85FE30E947903882344F4FE0127
:101F4000E753FF4F81E090E09183808364C0FE01FE
:101F5000E553FF4F608171818281938120E03FEFE3
:101F60004FE757E40E94190318160CF043C0FE0116
:101F7000E153FF4F608171818281938120E030E0E5
:101F800040E251E40E941F02DC01CB018E010753A5
:101F90001F4FBC01CD010E944900DC01CB01F801BB
:101FA000918380831FC0FE01E953FF4F88EC90E0CE
:101FB00091838083FE01E953FF4F808191810197D6
:101FC000F1F7FE01E953FF4F91838083DE01A753B0
:101FD000BF4FFE01E753FF4F80819181019711961A
:101FE0009C938E93FE01E753FF4F80819181009770
:101FF000D1F6A6CE8E0107531F4FFE01E553FF4FCA
:1020000060817181828193810E944900DC01CB0152
:10201000F80191838083DE01AB53BF4FFE01E7538C
:10202000FF4F8081918111969C938E93FE01EB531B
:10203000FF4F808191810197F1F7FE01EB53FF4F34
:10204000918380837DCEFE01EF51FF4F80818333EA
:1020500009F0B8C081E60E94080DFE01EF53FF4F62
:1020600080E090E0A8E4B3E480839183A283B3830B
:102070008E0103541F4FFE01EF53FF4F60817181AA
:102080008281938120E030E04AEF54E40E941F02F5
:10209000DC01CB01F80180839183A283B383FE012D
:1020A000E354FF4F608171818281938120E030E0B1
:1020B00040E85FE30E947903882344F4FE01E5547D
:1020C000FF4F81E090E09183808364C0FE01E35480
:1020D000FF4F608171818281938120E03FEF4FE764
:1020E00057E40E94190318160CF043C0FE01EF5389
:1020F000FF4F608171818281938120E030E040E276
:1021000051E40E941F02DC01CB018E0105541F4FD8
:10211000BC01CD010E944900DC01CB01F801918393
:1021200080831FC0FE01E754FF4F88EC90E091834D
:102130008083FE01E754FF4F808191810197F1F781
:10214000FE01E754FF4F91838083DE01A554BF4F0A
:10215000FE01E554FF4F80819181019711969C9378
:102160008E93FE01E554FF4F808191810097D1F657
:10217000E7CD8E0105541F4FFE01E354FF4F6081F0
:102180007181828193810E944900DC01CB01F801B9
:1021900091838083DE01A954BF4FFE01E554FF4FB8
:1021A0008081918111969C938E93FE01E954FF4F9B
:1021B000808191810197F1F7FE01E954FF4F9183EE
:1021C0008083BECDFE01EF51FF4F80818B3209F03D
:1021D000B8C081E40E94080DFE01ED54FF4F80E07D
:1021E00090E0A8E4B3E480839183A283B3838E015B
:1021F00001551F4FFE01ED54FF4F608171818281B7
:10220000938120E030E04AEF54E40E941F02DC0199
:10221000CB01F80180839183A283B383FE01E15552
:10222000FF4F608171818281938120E030E040E83E
:102230005FE30E947903882344F4FE01E355FF4FD6
:1022400081E090E09183808364C0FE01E155FF4FFF
:10225000608171818281938120E03FEF4FE757E4F5
:102260000E94190318160CF043C0FE01ED54FF4FF5
:10227000608171818281938120E030E040E251E40D
:102280000E941F02DC01CB018E0103551F4FBC01D0
:10229000CD010E944900DC01CB01F80191838083CC
:1022A0001FC0FE01E555FF4F88EC90E091838083CD
:1022B000FE01E555FF4F808191810197F1F7FE0105
:1022C000E555FF4F91838083DE01A355BF4FFE018B
:1022D000E355FF4F80819181019711969C938E93D6
:1022E000FE01E355FF4F808191810097D1F628CD03
:1022F0008E0103551F4FFE01E155FF4F6081718133
:10230000828193810E944900DC01CB01F801918315
:102310008083DE01A755BF4FFE01E355FF4F80814B
:10232000918111969C938E93FE01E755FF4F80811A
:1023300091810197F1F7FE01E755FF4F918380836B
:10234000FFCCFE01EF51FF4F8081843309F0B8C00C
:1023500080E50E94080DFE01EB55FF4F80E090E004
:10236000A8E4B3E480839183A283B3838E010F55E5
:102370001F4FFE01EB55FF4F608171818281938178
:1023800020E030E04AEF54E40E941F02DC01CB0160
:10239000F80180839183A283B383FE01EF55FF4F41
:1023A000608171818281938120E030E040E85FE3C9
:1023B0000E947903882344F4FE01E156FF4F81E037
:1023C00090E09183808364C0FE01EF55FF4F6081F0
:1023D00071818281938120E03FEF4FE757E40E94B3
:1023E000190318160CF043C0FE01EB55FF4F608136
:1023F00071818281938120E030E040E251E40E94CB
:102400001F02DC01CB018E0101561F4FBC01CD0123
:102410000E944900DC01CB01F801918380831FC039
:10242000FE01E356FF4F88EC90E091838083FE012C
:10243000E356FF4F808191810197F1F7FE01E3564A
:10244000FF4F91838083DE01A156BF4FFE01E1560D
:10245000FF4F80819181019711969C938E93FE018D
:10246000E156FF4F808191810097D1F669CC8E01B2
:1024700001561F4FFE01EF55FF4F60817181828130
:1024800093810E944900DC01CB01F8019183808394
:10249000DE01A556BF4FFE01E156FF4F80819181BD
:1024A00011969C938E93FE01E556FF4F808191819A
:1024B0000197F1F7FE01E556FF4F9183808340CCF1
:1024C000FE01EF51FF4F8081853309F0B8C08DE2E6
:1024D0000E94080DFE01E956FF4F80E090E0A8E45D
:1024E000B3E480839183A283B3838E010D561F4F83
:1024F000FE01E956FF4F608171818281938120E066
:1025000030E04AEF54E40E941F02DC01CB01F801E5
:1025100080839183A283B383FE01ED56FF4F6081D8
:1025200071818281938120E030E040E85FE30E9486
:102530007903882344F4FE01EF56FF4F81E090E0D9
:102540009183808364C0FE01ED56FF4F60817181ED
:102550008281938120E03FEF4FE757E40E94190307
:1025600018160CF043C0FE01E956FF4F60817181DF
:102570008281938120E030E040E251E40E941F021A
:10258000DC01CB018E010F561F4FBC01CD010E9413
:102590004900DC01CB01F801918380831FC0FE015B
:1025A000E157FF4F88EC90E091838083FE01E15773
:1025B000FF4F808191810197F1F7FE01E157FF4FB5
:1025C00091838083DE01AF56BF4FFE01EF56FF4F70
:1025D00080819181019711969C938E93FE01EF5615
:1025E000FF4F808191810097D1F6AACB8E010F56C3
:1025F0001F4FFE01ED56FF4F6081718182819381F3
:102600000E944900DC01CB01F80191838083DE0147
:10261000A357BF4FFE01EF56FF4F80819181119666
:102620009C938E93FE01E357FF4F80819181019728
:10263000F1F7FE01E357FF4F9183808381CBFE01C9
:10264000EF51FF4F8081863309F0B8C080E70E94C8
:10265000080DFE01E757FF4F80E090E0A8E4B3E4E7
:1026600080839183A283B3838E010B571F4FFE019A
:10267000E757FF4F608171818281938120E030E0D4
:102680004AEF54E40E941F02DC01CB01F801808371
:102690009183A283B383FE01EB57FF4F6081718169
:1026A0008281938120E030E040E85FE30E9479037B
:1026B000882344F4FE01ED57FF4F81E090E09183C1
:1026C000808364C0FE01EB57FF4F6081718182817E
:1026D000938120E03FEF4FE757E40E94190318165B
:1026E0000CF043C0FE01E757FF4F6081718182818A
:1026F000938120E030E040E251E40E941F02DC01BF
:10270000CB018E010D571F4FBC01CD010E94490026
:10271000DC01CB01F801918380831FC0FE01EF57DC
:10272000FF4F88EC90E091838083FE01EF57FF4FCD
:10273000808191810197F1F7FE01EF57FF4F91835F
:102740008083DE01AD57BF4FFE01ED57FF4F808103
:102750009181019711969C938E93FE01ED57FF4F47
:10276000808191810097D1F6EBCA8E010D571F4FE2
:10277000FE01EB57FF4F60817181828193810E943E
:102780004900DC01CB01F80191838083DE01A1586F
:10279000BF4FFE01ED57FF4F8081918111969C93B1
:1027A0008E93FE01E158FF4F808191810197F1F7EF
:1027B000FE01E158FF4F91838083C2CAFE01EF51B1
:1027C000FF4F80818D3209F0B8C087E10E94080D6B
:1027D000FE01E558FF4F80E090E0A8E4B3E4808379
:1027E0009183A283B3838E0109581F4FFE01E558E0
:1027F000FF4F608171818281938120E030E04AEF58
:1028000054E40E941F02DC01CB01F8018083918314
:10281000A283B383FE01E958FF4F608171818281F9
:10282000938120E030E040E85FE30E947903882351
:1028300044F4FE01EB58FF4F81E090E091838083E8
:1028400064C0FE01E958FF4F6081718182819381EC
:1028500020E03FEF4FE757E40E94190318160CF0F1
:1028600043C0FE01E558FF4F6081718182819381F1
:1028700020E030E040E251E40E941F02DC01CB0185
:102880008E010B581F4FBC01CD010E944900DC0195
:10289000CB01F801918380831FC0FE01ED58FF4FEB
:1028A00088EC90E091838083FE01ED58FF4F80819A
:1028B00091810197F1F7FE01ED58FF4F91838083DD
:1028C000DE01AB58BF4FFE01EB58FF4F8081918175
:1028D000019711969C938E93FE01EB58FF4F8081D8
:1028E00091810097D1F62CCA8E010B581F4FFE0123
:1028F000E958FF4F60817181828193810E94490074
:10290000DC01CB01F80191838083DE01AF58BF4F1A
:10291000FE01EB58FF4F8081918111969C938E931D
:10292000FE01EF58FF4F808191810197F1F7FE0181
:10293000EF58FF4F9183808303CAFE01EF51FF4F91
:102940008081873309F0B8C080E90E94080DFE013C
:10295000E359FF4F80E090E0A8E4B3E480839183E3
:10296000A283B3838E0107591F4FFE01E359FF4F26
:10297000608171818281938120E030E04AEF54E4EC
:102980000E941F02DC01CB01F80180839183A283A6
:10299000B383FE01E759FF4F60817181828193818A
:1029A00020E030E040E85FE30E947903882344F4AC
:1029B000FE01E959FF4F81E090E09183808364C07C
:1029C000FE01E759FF4F608171818281938120E090
:1029D0003FEF4FE757E40E94190318160CF043C06D
:1029E000FE01E359FF4F608171818281938120E074
:1029F00030E040E251E40E941F02DC01CB018E0175
:102A000009591F4FBC01CD010E944900DC01CB01D7
:102A1000F801918380831FC0FE01EB59FF4F88ECC2
:102A200090E091838083FE01EB59FF4F808191817B
:102A30000197F1F7FE01EB59FF4F91838083DE018F
:102A4000A959BF4FFE01E959FF4F8081918101973C
:102A500011969C938E93FE01E959FF4F80819181DD
:102A60000097D1F66DC98E0109591F4FFE01E75934
:102A7000FF4F60817181828193810E944900DC0156
:102A8000CB01F80191838083DE01AD59BF4FFE0178
:102A9000E959FF4F8081918111969C938E93FE019D
:102AA000ED59FF4F808191810197F1F7FE01ED59BA
:102AB000FF4F9183808344C9FE01EF51FF4F808116
:102AC000883309F0B8C08AE00E94080DFE01E15A7F
:102AD000FF4F80E090E0A8E4B3E480839183A28379
:102AE000B3838E01055A1F4FFE01E15AFF4F6081EB
:102AF00071818281938120E030E04AEF54E40E94AA
:102B00001F02DC01CB01F80180839183A283B38390
:102B1000FE01E55AFF4F608171818281938120E03F
:102B200030E040E85FE30E947903882344F4FE012B
:102B3000E75AFF4F81E090E09183808364C0FE01FB
:102B4000E55AFF4F608171818281938120E03FEFE0
:102B50004FE757E40E94190318160CF043C0FE011A
:102B6000E15AFF4F608171818281938120E030E0E2
:102B700040E251E40E941F02DC01CB018E01075AA2
:102B80001F4FBC01CD010E944900DC01CB01F801BF
:102B9000918380831FC0FE01E95AFF4F88EC90E0CB
:102BA00091838083FE01E95AFF4F808191810197D3
:102BB000F1F7FE01E95AFF4F91838083DE01A75AA6
:102BC000BF4FFE01E75AFF4F808191810197119617
:102BD0009C938E93FE01E75AFF4F8081918100976D
:102BE000D1F6AEC88E01075A1F4FFE01E55AFF4FBE
:102BF00060817181828193810E944900DC01CB0157
:102C0000F80191838083DE01AB5ABF4FFE01E75A82
:102C1000FF4F8081918111969C938E93FE01EB5A18
:102C2000FF4F808191810197F1F7FE01EB5AFF4F31
:102C30009183808385C8FE01EF51FF4F80818933E6
:102C400009F0BAC080EB0E94080DFE01EF5AFF4F59
:102C500080E090E0A8E4B3E480839183A283B3830F
:102C60008E01035B1F4FFE01EF5AFF4F60817181A0
:102C70008281938120E030E04AEF54E40E941F02F9
:102C8000DC01CB01F80180839183A283B383FE0131
:102C9000E35BFF4F608171818281938120E030E0AE
:102CA00040E85FE30E947903882344F4FE01E55B7A
:102CB000FF4F81E090E09183808365C0FE01E35B7C
:102CC000FF4F608171818281938120E03FEF4FE768
:102CD00057E40E94190318160CF044C0FE01EF5A85
:102CE000FF4F608171818281938120E030E040E27A
:102CF00051E40E941F02DC01CB018E01055B1F4FD6
:102D0000BC01CD010E944900DC01CB01F801918397
:102D100080831FC0FE01E75BFF4F88EC90E091834A
:102D20008083FE01E75BFF4F808191810197F1F77E
:102D3000FE01E75BFF4F91838083DE01A55BBF4F00
:102D4000FE01E55BFF4F80819181019711969C9375
:102D50008E93FE01E55BFF4F808191810097D1F654
:102D60000C94A00E8E01055B1F4FFE01E35BFF4F2D
:102D700060817181828193810E944900DC01CB01D5
:102D8000F80191838083DE01A95BBF4FFE01E55B03
:102D9000FF4F8081918111969C938E93FE01E95B98
:102DA000FF4F808191810197F1F7FE01E95BFF4FB1
:102DB000918380830C94A00EFE01EF51FF4F808120
:102DC0008A3209F08BC08FED0E94080DFE01ED5B89
:102DD000FF4F80E090E0A8E4B3E480839183A28376
:102DE000B3838E01015C1F4FFE01ED5BFF4F6081DD
:102DF00071818281938120E030E04AEF54E40E94A7
:102E00001F02DC01CB01F80180839183A283B3838D
:102E1000FE01FF96608171818281938120E030E024
:102E200040E85FE30E94790388232CF481E090E07E
:102E30009EAF8DAF47C0FE01FF9660817181828198
:102E4000938120E03FEF4FE757E40E9419031816E3
:102E50006CF5FE01ED5BFF4F608171818281938192
:102E600020E030E040E251E40E941F02DC01CB018F
:102E7000BC01CD010E944900DC01CB019EAF8DAFAA
:102E80000FC088EC90E09CAF8BAF8BAD9CAD0197F1
:102E9000F1F79CAF8BAF8DAD9EAD01979EAF8DAF1F
:102EA0008DAD9EAD009769F70C94A00EFE01FF96C4
:102EB00060817181828193810E944900DC01CB0194
:102EC0009EAF8DAF8DAD9EAD9AAF89AF89AD9AADF6
:102ED0000197F1F79AAF89AF0C94A00EFE01EF5164
:102EE000FF4F8081803309F078C080ED0E94080D8B
:102EF00080E090E0A8E4B3E48DAB9EABAFABB8AF9D
:102F00006DA97EA98FA998AD20E030E04AEF54E486
:102F10000E941F02DC01CB0189AB9AABABABBCAB0F
:102F200069A97AA98BA99CA920E030E040E85FE379
:102F30000E94790388232CF481E090E098AB8FA75E
:102F400040C069A97AA98BA99CA920E03FEF4FE76F
:102F500057E40E941903181654F56DA97EA98FA98C
:102F600098AD20E030E040E251E40E941F02DC0115
:102F7000CB01BC01CD010E944900DC01CB0198AB23
:102F80008FA70FC088EC90E09EA78DA78DA59EA56A
:102F90000197F1F79EA78DA78FA598A9019798ABE8
:102FA0008FA78FA598A9009769F70C94A00E69A91F
:102FB0007AA98BA99CA90E944900DC01CB0198AB9E
:102FC0008FA78FA598A99CA78BA78BA59CA50197D8
:102FD000F1F79CA78BA70C94A00EFE01EF51FF4FB9
:102FE00080818D3309F078C084E80E94080D80E06C
:102FF00090E0A8E4B3E48FA398A7A9A7BAA76FA10C
:1030000078A589A59AA520E030E04AEF54E40E9413
:103010001F02DC01CB018BA39CA3ADA3BEA36BA1BC
:103020007CA18DA19EA120E030E040E85FE30E94FA
:10303000790388232CF481E090E09AA389A340C00F
:103040006BA17CA18DA19EA120E03FEF4FE757E44B
:103050000E941903181654F56FA178A589A59AA5A1
:1030600020E030E040E251E40E941F02DC01CB018D
:10307000BC01CD010E944900DC01CB019AA389A3C8
:103080000FC088EC90E098A38F8F8F8D98A1019747
:10309000F1F798A38F8F89A19AA101979AA389A389
:1030A00089A19AA1009769F70C94A00E6BA17CA14D
:1030B0008DA19EA10E944900DC01CB019AA389A3A6
:1030C00089A19AA19E8F8D8F8D8D9E8D0197F1F78D
:1030D0009E8F8D8F0C94A00EFE01EF51FF4F8081CB
:1030E0008F3209F078C08EE40E94080D80E090E0F5
:1030F000A8E4B3E4898F9A8FAB8FBC8F698D7A8DEA
:103100008B8D9C8D20E030E04AEF54E40E941F023A
:10311000DC01CB018D8B9E8BAF8BB88F6D897E8947
:103120008F89988D20E030E040E85FE30E947903CA
:1031300088232CF481E090E09C8B8B8B40C06D89C0
:103140007E898F89988D20E03FEF4FE757E40E94FA
:103150001903181654F5698D7A8D8B8D9C8D20E09E
:1031600030E040E251E40E941F02DC01CB01BC01CF
:10317000CD010E944900DC01CB019C8B8B8B0FC0E1
:1031800088EC90E09A8B898B89899A890197F1F76D
:103190009A8B898B8B899C8901979C8B8B8B8B89D4
:1031A0009C89009769F70C94A00E6D897E898F89A0
:1031B000988D0E944900DC01CB019C8B8B8B8B8905
:1031C0009C89988B8F878F8598890197F1F7988BC9
:1031D0008F870C94A00EFE01EF51FF4F8081853246
:1031E00009F078C08FEF0E94080D80E090E0A8E41D
:1031F000B3E48B879C87AD87BE876B857C858D8587
:103200009E8520E030E04AEF54E40E941F02DC017A
:10321000CB018F839887A987BA876F817885898545
:103220009A8520E030E040E85FE30E94790388233C
:103230002CF481E090E09E838D8340C06F8178857F
:1032400089859A8520E03FEF4FE757E40E941903F4
:10325000181654F56B857C858D859E8520E030E0C1
:1032600040E251E40E941F02DC01CB01BC01CD0110
:103270000E944900DC01CB019E838D830FC088EC46
:1032800090E09C838B838B819C810197F1F79C83D9
:103290008B838D819E8101979E838D838D819E81FD
:1032A000009769F70C94A00E6F81788589859A85BF
:1032B0000E944900DC01CB019E838D838D819E811C
:1032C0009A83898389819A810197F1F79A83898307
:1032D0000C94A00E80E00E94080D0C94A00E2F927A
:1032E0003F924F925F926F927F928F929F92AF9296
:1032F000BF92CF92DF92EF92FF920F931F93CF93E3
:10330000DF93CDB7DEB7CA1BDB0B0FB6F894DEBF79
:103310000FBECDBF09942A88398848885F846E849F
:103320007D848C849B84AA84B984C884DF80EE80E9
:10333000FD800C811B81AA81B981CE0FD11D0FB6F2
:10334000F894DEBF0FBECDBFED010895F894FFCF16
:1033500000000000000000003132332B3435362DE0
:103360003738392A303D2F250001020304050607AE
:00000001FF
