:100000000C942A000C9447000C9447000C94470071
:100010000C9447000C9447000C94760B0C94A90B9D
:100020000C94DC0B0C940F0C0C94420C0C94750C7F
:100030000C9447000C9447000C9447000C94470024
:100040000C9467010C9447000C9447000C944700F3
:100050000C94470011241FBECFE5D8E0DEBFCDBF12
:1000600010E0A0E6B0E0E0E7FBE102C005900D92F1
:10007000A236B107D9F710E0A2E6B0E001C01D92A8
:10008000A737B107E1F70E94A80C0C94B60D0C94A9
:100090000000DF93CF93CDB7DEB7A7E2B0E0E7E291
:1000A000F0E080818F778C93A7E2B0E0E7E2F0E0A8
:1000B000808180648C93A7E2B0E0E7E2F0E0808189
:1000C0008F7D8C93A6E2B0E0E6E2F0E080818F7D48
:1000D0008C93A6E2B0E0E6E2F0E0808181608C9350
:1000E000A6E2B0E0E6E2F0E080818D7F8C93A6E2AC
:1000F000B0E0E6E2F0E080818B7F8C93A6E2B0E096
:10010000E6E2F0E0808180688C93CF91DF910895E2
:10011000DF93CF93CDB7DEB7A6E2B0E0E6E2F0E042
:10012000808180688C93CF91DF910895DF93CF9386
:10013000CDB7DEB7A6E2B0E0E6E2F0E080818F77EF
:100140008C93CF91DF910895DF93CF93CDB7DEB736
:1001500028970FB6F894DEBF0FBECDBF8E83788789
:100160006F8381E08D8319821A821B821C828E81AB
:10017000803208F05BC08F819885009709F456C0E3
:10018000A7E2B0E0E7E2F0E08081807E8C93A7E216
:10019000B0E0E7E2F0E090818E81892B8C93A6E2BB
:1001A000B0E0E6E2F0E0808180648C930BC089814E
:1001B0009A81AB81BC810196A11DB11D89839A836F
:1001C000AB83BC83E6E2F0E0808182958F70882F5C
:1001D00090E081709070009761F489819A81AB8181
:1001E000BC81883823E1920720E0A20720E0B20713
:1001F000F0F2E6E2F0E0808182958F70882F90E047
:1002000081709070882381F0A6E2B0E0E6E2F0E031
:10021000808180618C93E4E2F0E080819181EF81C4
:10022000F8859183808303C01D8201C01D828D816A
:1002300028960FB6F894DEBF0FBECDBFCF91DF91E9
:100240000895DF93CF9300D000D0CDB7DEB78A8377
:100250007C836B8381E089838A81803278F58B810E
:100260009C81009759F180916400882339F581E0E1
:10027000809364008B819C819093630080936200E3
:10028000A6E2B0E0E6E2F0E0808188608C93A7E22D
:10029000B0E0E7E2F0E08081807E8C93A7E2B0E0FE
:1002A000E7E2F0E090818A81892B8C93A6E2B0E0AE
:1002B000E6E2F0E0808180648C9301C0198289813C
:1002C0000F900F900F900F90CF91DF9108951F9294
:1002D0000F920FB60F9211242F933F934F935F937A
:1002E0006F937F938F939F93AF93BF93EF93FF93FE
:1002F000DF93CF93CDB7DEB780916200909163001A
:10030000009799F0A6E2B0E0E6E2F0E08081877F16
:100310008C932091620030916300E4E2F0E08081F0
:100320009181F901099510926400CF91DF91FF91BD
:10033000EF91BF91AF919F918F917F916F915F915D
:100340004F913F912F910F900FBE0F901F901895D6
:10035000DF93CF93CDB7DEB7EAE3F0E08FEF808392
:10036000E7E3F0E087E48083E4E3F0E08FE180837B
:10037000E1E3F0E08FEF8083EBE3F0E01082E8E36D
:10038000F0E01082E5E3F0E01082E2E3F0E01082BA
:10039000CF91DF910895DF93CF93CDB7DEB72E973E
:1003A0000FB6F894DEBF0FBECDBF8A836B834C833C
:1003B00081E089838A81843008F00CC18B81883088
:1003C00008F008C18C81813021F08C81882309F0EC
:1003D00001C18A81282F30E03E872D878D859E853B
:1003E0008130910509F44FC02D853E8522303105BD
:1003F0002CF48D859E85009771F0EDC02D853E858E
:100400002230310509F477C08D859E8583309105B2
:1004100009F4A9C0E0C08C81282F30E03C872B87ED
:100420008B859C850097D1F02B853C85213031054B
:1004300009F0D1C0AAE3B0E0EAE3F0E08081482F00
:100440008B81282F30E081E090E0022E02C0880FDF
:10045000991F0A94E2F7842B8C93BDC0AAE3B0E005
:10046000EAE3F0E08081482F8B81282F30E081E0A3
:1004700090E0022E02C0880F991F0A94E2F780953F
:1004800084238C93A8C08C81282F30E03A87298759
:1004900089859A850097D1F029853A8521303105E3
:1004A00009F099C0A7E3B0E0E7E3F0E08081482FCE
:1004B0008B81282F30E081E090E0022E02C0880F6F
:1004C000991F0A94E2F7842B8C9385C0A7E3B0E0D0
:1004D000E7E3F0E08081482F8B81282F30E081E036
:1004E00090E0022E02C0880F991F0A94E2F78095CF
:1004F00084238C9370C08C81282F30E038872F8321
:100500008F8198850097D1F02F8138852130310572
:1005100009F061C0A4E3B0E0E4E3F0E08081482F9B
:100520008B81282F30E081E090E0022E02C0880FFE
:10053000991F0A94E2F7842B8C934DC0A4E3B0E09A
:10054000E4E3F0E08081482F8B81282F30E081E0C8
:1005500090E0022E02C0880F991F0A94E2F780955E
:1005600084238C9338C08C81282F30E03E832D83E8
:100570008D819E810097C9F02D813E81213031050A
:1005800051F5A1E3B0E0E1E3F0E08081482F8B81F9
:10059000282F30E081E090E0022E02C0880F991FE2
:1005A0000A94E2F7842B8C9316C0A1E3B0E0E1E358
:1005B000F0E08081482F8B81282F30E081E090E0AF
:1005C000022E02C0880F991F0A94E2F780958423B7
:1005D0008C9301C0198289812E960FB6F894DEBFE4
:1005E0000FBECDBFCF91DF910895DF93CF93CDB7ED
:1005F000DEB72E970FB6F894DEBF0FBECDBF8A834D
:100600006B834C8381E089838B81883008F008C13B
:100610008A81282F30E03E872D878D859E85813009
:10062000910509F450C02D853E85223031052CF40A
:100630008D859E85009771F0F1C02D853E85223015
:10064000310509F479C08D859E858330910509F4C3
:10065000ACC0E4C08C81282F30E03C872B878B8591
:100660009C850097C9F02B853C852130310549F5E3
:10067000ABE3B0E0EBE3F0E08081482F8B81282FE3
:1006800030E081E090E0022E02C0880F991F0A94AA
:10069000E2F7842B8C93C5C0ABE3B0E0EBE3F0E072
:1006A0008081482F8B81282F30E081E090E0022E5E
:1006B00002C0880F991F0A94E2F7809584238C93D7
:1006C000B0C01982AEC08C81282F30E03A872987CC
:1006D00089859A850097C9F029853A8521303105A9
:1006E00049F5A8E3B0E0E8E3F0E08081482F8B8192
:1006F000282F30E081E090E0022E02C0880F991F81
:100700000A94E2F7842B8C938CC0A8E3B0E0E8E372
:10071000F0E08081482F8B81282F30E081E090E04D
:10072000022E02C0880F991F0A94E2F78095842355
:100730008C9377C0198275C08C81282F30E0388760
:100740002F838F8198850097C9F02F8138852130BC
:10075000310549F5A5E3B0E0E5E3F0E08081482FFD
:100760008B81282F30E081E090E0022E02C0880FBC
:10077000991F0A94E2F7842B8C9353C0A5E3B0E051
:10078000E5E3F0E08081482F8B81282F30E081E085
:1007900090E0022E02C0880F991F0A94E2F780951C
:1007A00084238C933EC019823CC08C81282F30E07A
:1007B0003E832D838D819E810097C9F02D813E81DE
:1007C0002130310549F5A2E3B0E0E2E3F0E08081B9
:1007D000482F8B81282F30E081E090E0022E02C06C
:1007E000880F991F0A94E2F7842B8C931AC0A2E316
:1007F000B0E0E2E3F0E08081482F8B81282F30E0E9
:1008000081E090E0022E02C0880F991F0A94E2F75F
:10081000809584238C9305C0198203C0198201C07E
:10082000198289812E960FB6F894DEBF0FBECDBF18
:10083000CF91DF910895DF93CF93CDB7DEB728979F
:100840000FB6F894DEBF0FBECDBF8B836C835E8383
:100850004D8381E08A838B81843008F09FC08C8136
:10086000883008F09BC08D819E81009709F496C066
:100870008B81282F30E038872F834F815885413076
:100880005105A9F18F8198858230910534F42F812B
:1008900038852115310571F082C04F81588542306D
:1008A000510509F441C08F8198858330910509F481
:1008B00058C075C0E9E3F0E08081282F30E08C81DA
:1008C000882F90E0A90102C0559547958A95E2F7D7
:1008D000CA01817089838981882321F4ED81FE8199
:1008E00010825DC0ED81FE8181E0808358C0E6E327
:1008F000F0E08081282F30E08C81882F90E0A901E2
:1009000002C0559547958A95E2F7CA01817089839F
:100910008981882321F4ED81FE81108240C0ED8120
:10092000FE8181E080833BC0E3E3F0E08081282FFB
:1009300030E08C81882F90E0A90102C05595479541
:100940008A95E2F7CA01817089838981882321F41D
:10095000ED81FE81108223C0ED81FE8181E08083E4
:100960001EC0E0E3F0E08081282F30E08C81882FEA
:1009700090E0A90102C0559547958A95E2F7CA0112
:10098000817089838981882321F4ED81FE81108221
:1009900006C0ED81FE8181E0808301C01A828A81D8
:1009A00028960FB6F894DEBF0FBECDBFCF91DF9172
:1009B0000895DF93CF93CDB7DEB72D970FB6F89498
:1009C000DEBF0FBECDBF8A836B8381E089838B81BD
:1009D000813021F08B81882309F07FC08A81282F04
:1009E00030E03D872C878C859D858130910571F1A4
:1009F0002C853D85223031052CF48C859D85009712
:100A000069F069C02C853D8522303105B1F18C85B6
:100A10009D858330910509F447C05DC08B81282FE7
:100A200030E03B872A878A859B85009759F02A8585
:100A30003B852130310509F051C0EAE3F0E08FEF4A
:100A400080834CC0EAE3F0E0108248C08B81282FFD
:100A500030E03987288788859985009751F0288567
:100A6000398521303105D1F5E7E3F0E08FEF808360
:100A700035C0E7E3F0E0108231C08B81282F30E0F1
:100A80003F832E838E819F81009751F02E813F817D
:100A90002130310519F5E4E3F0E08FEF80831EC0CB
:100AA000E4E3F0E010821AC08B81282F30E03D8310
:100AB0002C838C819D81009751F02C813D812130C8
:100AC000310561F4E1E3F0E08FEF808307C0E1E3FB
:100AD000F0E0108203C0198201C0198289812D962D
:100AE0000FB6F894DEBF0FBECDBFCF91DF91089552
:100AF000DF93CF9300D000D00F92CDB7DEB78A83BB
:100B00006B8381E089838A81282F30E03D832C83A9
:100B10008C819D8181309105D1F02C813D812230E5
:100B200031052CF48C819D81009761F01FC02C81D0
:100B30003D812230310581F08C819D81833091058A
:100B400081F014C0EBE3F0E08B81808310C0E8E318
:100B5000F0E08B8180830BC0E5E3F0E08B81808344
:100B600006C0E2E3F0E08B81808301C019828981B5
:100B70000F900F900F900F900F90CF91DF910895ED
:100B8000DF93CF9300D000D000D0CDB7DEB78A83FB
:100B90007C836B8381E089838B819C810097E9F161
:100BA0008A81282F30E03E832D838D819E81813084
:100BB0009105E1F02D813E81223031052CF48D81AB
:100BC0009E81009761F027C02D813E812230310542
:100BD000A1F08D819E8183309105B1F01CC0E9E3C5
:100BE000F0E08081EB81FC81808318C0E6E3F0E0D7
:100BF0008081EB81FC81808311C0E3E3F0E08081A0
:100C0000EB81FC8180830AC0E0E3F0E08081EB812E
:100C1000FC81808303C0198201C0198289812696D4
:100C20000FB6F894DEBF0FBECDBFCF91DF91089510
:100C3000DF93CF9300D000D00F92CDB7DEB78A8379
:100C40006B8381E089838A81843008F073C08B8153
:100C5000883008F06FC08A81282F30E03D832C83D4
:100C60008C819D818130910549F12C813D8122301B
:100C700031052CF48C819D81009761F05CC02C8142
:100C80003D812230310571F18C819D818330910548
:100C9000E9F151C0ABE3B0E0EBE3F0E08081482F35
:100CA0008B81282F30E081E090E0022E02C0880F77
:100CB000991F0A94E2F784278C933DC0A8E3B0E023
:100CC000E8E3F0E08081482F8B81282F30E081E03D
:100CD00090E0022E02C0880F991F0A94E2F7842741
:100CE0008C9329C0A5E3B0E0E5E3F0E08081482FD4
:100CF0008B81282F30E081E090E0022E02C0880F27
:100D0000991F0A94E2F784278C9315C0A2E3B0E000
:100D1000E2E3F0E08081482F8B81282F30E081E0F2
:100D200090E0022E02C0880F991F0A94E2F78427F0
:100D30008C9301C0198289810F900F900F900F90B2
:100D40000F90CF91DF910895DF93CF9300D000D023
:100D50000F92CDB7DEB78A836B838B81807F8B83C5
:100D600081E089838A81843008F05FC08A81282FDE
:100D700030E03D832C838C819D818130910529F168
:100D80002C813D81223031052CF48C819D8100978E
:100D900061F04CC02C813D812230310531F18C81D4
:100DA0009D818330910589F141C0ABE3B0E0EBE375
:100DB000F0E080818F708C93ABE3B0E0EBE3F0E088
:100DC00090818B81892B8C9331C0A8E3B0E0E8E35C
:100DD000F0E080818F708C93A8E3B0E0E8E3F0E06E
:100DE00090818B81892B8C9321C0A5E3B0E0E5E352
:100DF000F0E080818F708C93A5E3B0E0E5E3F0E054
:100E000090818B81892B8C9311C0A2E3B0E0E2E347
:100E1000F0E080818F708C93A5E3B0E0E5E3F0E033
:100E200090818B81892B8C9301C0198289810F90CD
:100E30000F900F900F900F90CF91DF910895DF9357
:100E4000CF9300D000D00F92CDB7DEB78A836B83EB
:100E50008B818F708B8381E089838A81843008F055
:100E60005FC08A81282F30E03D832C838C819D8157
:100E70008130910529F12C813D81223031052CF4FE
:100E80008C819D81009761F04CC02C813D81223086
:100E9000310531F18C819D818330910589F141C00B
:100EA000ABE3B0E0EBE3F0E08081807F8C93ABE3D9
:100EB000B0E0EBE3F0E090818B81892B8C9331C023
:100EC000A8E3B0E0E8E3F0E08081807F8C93A8E3C2
:100ED000B0E0E8E3F0E090818B81892B8C9321C016
:100EE000A5E3B0E0E5E3F0E08081807F8C93A5E3AB
:100EF000B0E0E5E3F0E090818B81892B8C9311C009
:100F0000A2E3B0E0E2E3F0E08081807F8C93A2E393
:100F1000B0E0E2E3F0E090818B81892B8C9301C0FB
:100F2000198289810F900F900F900F900F90CF91A1
:100F3000DF910895DF93CF93CDB7DEB7AFE5B0E093
:100F4000EFE5F0E0808180688C93CF91DF91089588
:100F5000DF93CF93CDB7DEB7AFE5B0E0EFE5F0E0DC
:100F600080818F778C93CF91DF910895DF93CF931A
:100F7000CDB7DEB7ADE2B0E0EDE2F0E080818F7E8C
:100F80008C93ADE2B0E0EDE2F0E080818F7D8C9358
:100F9000ADE2B0E0EDE2F0E08081877F8C93ADE2DE
:100FA000B0E0EDE2F0E080818B7F8C93ADE2B0E0C9
:100FB000EDE2F0E0808180648C93CF91DF91089521
:100FC000DF93CF9300D000D0CDB7DEB78A837C8388
:100FD0006B8319828B819C81009789F0EFE2F0E0AE
:100FE0008A818083EEE2F0E080818823DCF7EFE203
:100FF000F0E08081EB81FC81808381E089838981BD
:101000000F900F900F900F90CF91DF910895DF9385
:10101000CF930F92CDB7DEB78983EFE2F0E08981FD
:101020008083EEE2F0E080818823DCF70F90CF919F
:10103000DF910895DF93CF9300D00F92CDB7DEB745
:101040009B838A8319828A819B81009769F0EEE2F3
:10105000F0E080818823DCF7EFE2F0E08081EA8134
:10106000FB81808381E0898389810F900F900F90AD
:10107000CF91DF910895DF93CF93CDB7DEB7A3E58E
:10108000B0E0E3E5F0E080818F7B8C93A3E5B0E0F6
:10109000E3E5F0E0808188608C93A3E5B0E0E3E5D0
:1010A000F0E080818F7E8C93A3E5B0E0E3E5F0E093
:1010B00080818F7D8C93CF91DF910895DF93CF93C3
:1010C000CDB7DEB7AFE4B0E0EFE4F0E080818E7F33
:1010D0008C93AFE4B0E0EFE4F0E0808182608C9329
:1010E000AEE4B0E0EEE4F0E0808188608C93AEE4A2
:1010F000B0E0EEE4F0E0808180618C93AFE4B0E09A
:10110000EFE4F0E080818F7B8C93AFE4B0E0EFE41C
:10111000F0E0808180688C93AFE4B0E0EFE4F0E031
:1011200080818F7E8C93AFE4B0E0EFE4F0E08081CB
:101130008F7D8C93CF91DF910895DF93CF93CDB7BF
:10114000DEB7A3E5B0E0E3E5F0E08081887F8C9333
:10115000A3E5B0E0E3E5F0E0808185608C93CF917A
:10116000DF910895DF93CF93CDB7DEB7AEE4B0E063
:10117000EEE4F0E08081887F8C93AEE4B0E0EEE4B2
:10118000F0E0808182608C93CF91DF910895DF93AE
:10119000CF93CDB7DEB7A3E5B0E0E3E5F0E0808123
:1011A000887F8C93CF91DF910895DF93CF93CDB754
:1011B000DEB7AEE4B0E0EEE4F0E08081887F8C93AF
:1011C000CF91DF910895DF93CF930F92CDB7DEB724
:1011D0008983E2E5F0E0898180830F90CF91DF91F0
:1011E0000895DF93CF9300D0CDB7DEB79A8389837C
:1011F000ECE4F0E089819A81918380830F900F90D5
:10120000CF91DF910895DF93CF93CDB7DEB7E2E5BD
:10121000F0E08081CF91DF910895DF93CF93CDB738
:10122000DEB7ECE4F0E080819181CF91DF91089509
:10123000DF93CF930F92CDB7DEB78983ECE5F0E073
:10124000898180830F90CF91DF910895DF93CF93B1
:1012500000D0CDB7DEB79A838983EAE4F0E08981D4
:101260009A81918380830F900F90CF91DF910895A1
:10127000DF93CF9300D0CDB7DEB79A838983E8E4BC
:10128000F0E089819A81918380830F900F90CF91B4
:10129000DF910895DF93CF9300D0CDB7DEB79A8367
:1012A0008983E6E4F0E089819A81918380830F90BD
:1012B0000F90CF91DF910895DF93CF93CDB7DEB735
:1012C000E6E4F0E080819181CF91DF910895DF9392
:1012D000CF93CDB7DEB7A9E5B0E0E9E5F0E08081D6
:1012E00082608C93CF91DF910895DF93CF93CDB738
:1012F000DEB7A9E5B0E0E9E5F0E0808180618C939C
:10130000CF91DF910895DF93CF93CDB7DEB7A9E5F5
:10131000B0E0E9E5F0E0808188608C93CF91DF91C7
:101320000895DF93CF93CDB7DEB7A9E5B0E0E9E547
:10133000F0E0808180628C93CF91DF910895DF93FC
:10134000CF93CDB7DEB7A9E5B0E0E9E5F0E0808165
:1013500081608C93CF91DF910895DF93CF93CDB7C8
:10136000DEB7A9E5B0E0E9E5F0E0808184608C9328
:10137000CF91DF910895DF93CF93CDB7DEB7A9E585
:10138000B0E0E9E5F0E080818D7F8C93CF91DF9133
:101390000895DF93CF93CDB7DEB7A9E5B0E0E9E5D7
:1013A000F0E080818F7E8C93CF91DF910895DF9361
:1013B000CF93CDB7DEB7A9E5B0E0E9E5F0E08081F5
:1013C000877F8C93CF91DF910895DF93CF93CDB733
:1013D000DEB7A9E5B0E0E9E5F0E080818F7D8C9390
:1013E000CF91DF910895DF93CF93CDB7DEB7A9E515
:1013F000B0E0E9E5F0E080818E7F8C93CF91DF91C2
:101400000895DF93CF93CDB7DEB7A9E5B0E0E9E566
:10141000F0E080818B7F8C93CF91DF910895DF93F3
:10142000CF930F92CDB7DEB7E8E5F0E08081817011
:10143000898389810F90CF91DF910895DF93CF93B6
:101440000F92CDB7DEB7E8E5F0E08081869586950E
:101450008170898389810F90CF91DF910895DF9307
:10146000CF930F92CDB7DEB7E8E5F0E080818695A7
:101470008170898389810F90CF91DF910895DF93E7
:10148000CF930F92CDB7DEB7E8E5F0E08081869587
:10149000869586958170898389810F90CF91DF91A0
:1014A0000895DF93CF930F92CDB7DEB7E8E5F0E074
:1014B000808182958F708170898389810F90CF910F
:1014C000DF910895DF93CF930F92CDB7DEB7E8E5B4
:1014D000F0E080818295869587708170898389810B
:1014E0000F90CF91DF910895DF93CF93CDB7DEB703
:1014F000A8E5B0E0E8E5F0E0808181608C93CF91D1
:10150000DF910895DF93CF93CDB7DEB7A8E5B0E0C4
:10151000E8E5F0E0808184608C93CF91DF910895BD
:10152000DF93CF93CDB7DEB7A8E5B0E0E8E5F0E014
:10153000808182608C93CF91DF910895DF93CF9368
:10154000CDB7DEB7A8E5B0E0E8E5F0E080818860DF
:101550008C93CF91DF910895DF93CF93CDB7DEB712
:10156000A8E5B0E0E8E5F0E0808180618C93CF9160
:10157000DF910895DF93CF93CDB7DEB7A8E5B0E054
:10158000E8E5F0E0808180628C93CF91DF9108954F
:10159000DF93CF9300D00F92CDB7DEB79B838A83C2
:1015A00081E089838A819B81009739F08A819B81C0
:1015B000909366008093650001C0198289810F9025
:1015C0000F900F90CF91DF910895DF93CF9300D0CC
:1015D0000F92CDB7DEB79B838A8381E089838A81AE
:1015E0009B81009739F08A819B819093680080935A
:1015F000670001C0198289810F900F900F90CF91E1
:10160000DF910895DF93CF9300D00F92CDB7DEB76F
:101610009B838A8381E089838A819B81009739F04B
:101620008A819B8190936A008093690001C019822E
:1016300089810F900F900F90CF91DF910895DF93E4
:10164000CF9300D00F92CDB7DEB79B838A8381E022
:1016500089838A819B81009739F08A819B8190934D
:101660006C0080936B0001C0198289810F900F90EC
:101670000F90CF91DF910895DF93CF9300D00F9219
:10168000CDB7DEB79B838A8381E089838A819B8182
:10169000009739F08A819B8190936E0080936D0052
:1016A00001C0198289810F900F900F90CF91DF9127
:1016B0000895DF93CF9300D00F92CDB7DEB79B8311
:1016C0008A8381E089838A819B81009739F08A81AE
:1016D0009B819093700080936F0001C01982898173
:1016E0000F900F900F90CF91DF9108951F920F925E
:1016F0000FB60F9211242F933F934F935F936F93E5
:101700007F938F939F93AF93BF93EF93FF93DF9359
:10171000CF93CDB7DEB780916F00909170000097A6
:1017200029F0E0916F00F09170000995CF91DF9161
:10173000FF91EF91BF91AF919F918F917F916F91A9
:101740005F914F913F912F910F900FBE0F901F907F
:1017500018951F920F920FB60F9211242F933F935B
:101760004F935F936F937F938F939F93AF93BF93A9
:10177000EF93FF93DF93CF93CDB7DEB780916B00EC
:1017800090916C00009729F0E0916B00F0916C0053
:101790000995CF91DF91FF91EF91BF91AF919F910B
:1017A0008F917F916F915F914F913F912F910F900A
:1017B0000FBE0F901F9018951F920F920FB60F92A9
:1017C00011242F933F934F935F936F937F938F9346
:1017D0009F93AF93BF93EF93FF93DF93CF93CDB7D7
:1017E000DEB780916D0090916E00009729F0E09136
:1017F0006D00F0916E000995CF91DF91FF91EF910F
:10180000BF91AF919F918F917F916F915F914F9118
:101810003F912F910F900FBE0F901F9018951F9220
:101820000F920FB60F9211242F933F934F935F9314
:101830006F937F938F939F93AF93BF93EF93FF9398
:10184000DF93CF93CDB7DEB78091670090916800AA
:10185000009729F0E0916700F09168000995CF9119
:10186000DF91FF91EF91BF91AF919F918F917F9108
:101870006F915F914F913F912F910F900FBE0F90FD
:101880001F9018951F920F920FB60F9211242F934D
:101890003F934F935F936F937F938F939F93AF93F8
:1018A000BF93EF93FF93DF93CF93CDB7DEB78091D4
:1018B000690090916A00009729F0E0916900F09129
:1018C0006A000995CF91DF91FF91EF91BF91AF91A0
:1018D0009F918F917F916F915F914F913F912F9148
:1018E0000F900FBE0F901F9018951F920F920FB67A
:1018F0000F9211242F933F934F935F936F937F9396
:101900008F939F93AF93BF93EF93FF93DF93CF9307
:10191000CDB7DEB78091650090916600009729F001
:10192000E0916500F09166000995CF91DF91FF91FC
:10193000EF91BF91AF919F918F917F916F915F9147
:101940004F913F912F910F900FBE0F901F901895C0
:10195000DF93CF9300D00F92CDB7DEB70E94A801DE
:101960000E94B6070E9449008EE40E9418090E9456
:101970003B0885E59DE00E94020B0E9467090E94DA
:101980009D080E949A07CE0101960E941A0889813B
:10199000282F30E03B832A838A819B818A3F9105EF
:1019A00009F461C02A813B812B3F3105FCF48A8117
:1019B0009B81863F910509F468C02A813B81273FBE
:1019C00031053CF48A819B81853F910509F463C010
:1019D00068C02A813B81273F310509F450C08A81C4
:1019E0009B81883F910509F444C05BC02A813B81FB
:1019F0002D3F310531F18A819B818E3F91055CF449
:101A00002A813B812B3F310541F18A819B818C3FAB
:101A10009105E9F046C02A813B812E3F310559F0FE
:101A20008A819B818F3F9105E1F583E065E041E08C
:101A30000E94F502A8CF83E065E040E00E94F50235
:101A4000A2CF83E066E041E00E94F5029CCF83E0F4
:101A500066E040E00E94F50296CF83E067E041E057
:101A60000E94F50290CF83E067E040E00E94F5021B
:101A70008ACF83E063E041E00E94F50284CF83E0F7
:101A800063E040E00E94F5027ECF83E062E041E047
:101A90000E94F50278CF83E062E040E00E94F50208
:101AA00072CF8981809360006ECFDF93CF93CDB7E3
:101AB000DEB7809171008F5F80937100809171001B
:101AC0008A3009F050C01092710023E730E080E0C6
:101AD000B9010E94A40080917300909174009695C2
:101AE0008795909376008093750022E730E083E03D
:101AF00063E0A9010E941B0480917200882331F4E5
:101B000083E060E040E00E94F5022DC0809160001B
:101B1000882F90E001969C0180917500909176004D
:101B20002817390750F480917200813031F483E036
:101B300060E041E00E94F50216C080916000882FAD
:101B400090E001969C01809175009091760082173B
:101B5000930748F480917200813029F483E060E0BB
:101B600040E00E94F502CF91DF910895F894FFCFF5
:021B700018005B
:00000001FF
